:020000040800F2
:20000000D02C002001010008D5030008D1030008D3030008A901000831090008000000002C
:200020000000000000000000000000001105000813030008000000004D040008130500080B
:200040001B0100081B0100081B0100081B0100081B0100081B0100081B0100081B01000880
:200060001B0100081B0100081B0100081B0100081B010008019000081B0100081B010008EB
:200080001B0100081B0100081B0100081B0100081B0100081B0100081B0100081B01000840
:2000A0001B0100081B0100081B01000851910008759100081B0100081B0100081B01000870
:2000C0001B0100081B0100081B0100081B0100081B0100081B0100081B0100081B01000800
:2000E0001B0100081B0100081B010008DFF80CD000F048F800480047911B0008D02C002052
:200100000648804706480047FEE7FEE7FEE7FEE7FEE7FEE7FEE7FEE7FEE7FEE789050008AD
:20012000ED000008D2B201E000F8012B491EFBD270470022F6E710B513460A460446194640
:20014000FFF7F0FF204610BD421C10F8011B0029FBD1801A704730B50B46014600202022E0
:20016000012409E021FA02F59D4205D303FA02F5491B04FA02F52844151EA2F10102F1DC59
:2001800030BD0000064C074D06E0E06840F0010394E8070098471034AC42F6D3FFF7AAFF6E
:2001A000A0710008C0710008FEE7000001684FF6FE72114001600021016041608160C16013
:2001C0002E4A2F49904204BF486840F00F0022D02C4A904204BF486840F0F0001BD02A4A7F
:2001E000904204BF486840F4706014D0274A904204BF486840F470400DD0254A904204BF57
:20020000486840F4702006D0224A904204BF486840F4700001D1486070471F4A904204D1FE
:20022000486840F07060486070471C4A111F904204BF086840F00F0014D0194A904204BFF9
:20024000086840F0F0000DD0164A904204BF086840F4706006D0144A904204BF086840F45B
:20026000704001D108607047104A904218BF7047086840F470200860704700000800024086
:20028000000002401C0002403000024044000240580002406C00024080000240080402406E
:2002A0001C040240300402404404024058040240002A026814BF114322EA0101016070475D
:2002C00010B40268D1F820C08B686FF30E1243EA0C03D1E904C44CEA040C43EA0C03D1F8C9
:2002E00018C043EA0C03D1F81CC043EA0C03D1F824C043EA0C03D1F828C043EA0C031A43D6
:200300000260CA6842600A6882604968C16010BC704770472DE9F003CB7803F00F0213F0F4
:20032000100F1CBF8B781A430B784FF00F0713F0FF0F4FF001081FD0046800235FF0080558
:200340000E8808FA03FC3CEA060611D19E0007FA06F924EA090402FA06F63443CE78282E2E
:2003600008BFC0F814C003D0482E08BFC0F810C05B1C6D1EE4D104600B88FF2B9CBFBDE8BA
:20038000F003704744684FF0000C08250CF108030E8808FA03F333EA060607D06D1E0CF171
:2003A000010CF3D14460BDE8F00370474FEA8C0607FA06F924EA090402FA06F63443CE78DE
:2003C000282E08BF4361CE78482E08BF0361E5E7FEE7FEE77047000010B4C27801784FF072
:2003E0000F0C012322B3184A126801F1E02102F4E062C2F5E062120AC2F104042CFA02F2F8
:2004000090F801C00CFA04FC8478224042EA0C02120181F80024007800F01F0103FA01F1CE
:200420004009800000F1E020C0F8001110BC704701F01F0003FA00F04909890001F1E021EB
:20044000C1F8800110BC70470CED00E070470000044A0029516914BF084321EA0000506144
:200460007047000000100240044A0029D16914BF084321EA0000D06170470000001002405F
:20048000044A0029916914BF084321EA0000906170470000001002400029018814BF41F40E
:2004A000005121F40051018070470029018814BF41F0400121F040010180704710B402887E
:2004C0000B88B1F802C0CC8843EA0C03B1F804C002F441524CEA040C43EA0C03B1F808C0A5
:2004E00043EA0C03B1F80AC043EA0C03B1F80CC043EA0C03B1F80EC043EA0C031A430280CE
:20050000828B22F400628283098A018210BC7047704701F0C5BB000016494868164A10F021
:200520000C03164818BF042B01D0082B01D0026015E04A684B6802F470124FF0020C13F4EB
:20054000803F0CEB924203D04B6813F4003F03D00B4B5A43026002E0074B5A430260496839
:20056000084AC1F30311515C026822FA01F10160704700000010024000127A00180000200E
:2005800000093D001C000020374882B0016841F0010101604168354A11404160016821F493
:2005A000102121F080710160016821F480210160416821F4FE0141604FF41F018160002263
:2005C00001920092016841F480310160016801F4003100910199491C0191009919B9019990
:2005E000B1F5A06FF2D1016811F4003F08BF009233D0012100911E490A6842F010020A6040
:200600000A6822F003020A600A6842F002020A604168416041684160416841F480614160E1
:20062000416821F47C114160416841F4E8114160016841F080710160016811F0007FFBD0B6
:20064000416821F003014160416841F002014160416801F00C010829FAD106494FF000602C
:20066000086002B070470000001002400000FFF80020024008ED00E00029018814BF41F073
:20068000010121F00101018070470029B0F8441014BF41F40041C1F30E01A0F84410704739
:2006A000002A828914BF114322EA01018181704710B4028C22F001020284028C8388B0F8E9
:2006C00018C00C882CF0730C44EA0C0C0C8922F0020222434C882243A0F18044B4F59634BC
:2006E0001CBFA0F18044B4F59A340DD0A0F18044B4F5A0341FBFA0F18044B4F5A234A0F161
:200700008044B4F5A4340DD14C8922F0080222438C8822F0040222438C8923F4407323438A
:20072000CC8923438380A0F818C0C9888186028410BC7047028B22F00802114301837047F2
:2007400030B4028C22F010020284038CB0F804C0028B0D8822F4E6444FF6FF7202EA052554
:200760002C430D8923F0200302EA05152B434D8802EA05152B43A0F18045B5F596351CBFDB
:20078000A0F18045B5F59A3517D14D8923F0800302EA05152B438D8823F0400302EA051551
:2007A0002B438D892CF4406C02EA850545EA0C0CCD8902EA850242EA0C0CA0F804C004833C
:2007C000C9880187038430BC704730B4028C22F480720284028C8388B0F81CC00C882CF049
:2007E000730C44EA0C0422F4007C0D894FF6FF7202EA052545EA0C0C4D8802EA052545EAE7
:200800000C0CA0F18045B5F596351CBFA0F18045B5F59A3517D14D892CF4006C02EA0525EB
:2008200045EA0C0C8D882CF4806C02EA052545EA0C0C8D8923F4405302EA05152B43CD8969
:2008400002EA0512134383808483C9888187A0F820C030BC7047028922F0700211430181DC
:200860007047028922F0800202810289114301817047828822F07002828082881143818018
:200880007047028922F0070202810289114301817047000010B40288234BDFF890C09842A3
:2008A00018BF604511D0B0F1804F1CBFA0F18044B4F5806409D0A0F18044B4F500641CBF98
:2008C000A0F18044B4F5406403D14C8822F070022243A0F18044B4F580541CBFA0F18044E3
:2008E000B4F5A05403D0CC8822F44072224302808A8882850A880285984218BF60450DD020
:20090000A0F18042B2F5A0321FBFA0F18042B2F5A232A0F18042B2F5A43201D1097A0186B3
:200920000121818210BC7047002C014000340140FEE700000FB4084B10B504A902AA039879
:2009400000F01CF8044602A9002000F0C1F8204610BC5DF814FB0000D10A000802E008C8AA
:20096000121F08C1002AFAD170477047002001E001C1121F002AFBD1704700002DE9FF4F15
:2009800089B09B460446002506E025280BD05A460B999047641C6D1C20780028F5D10DB059
:2009A0002846BDE8F08F0027B8460122474900E0074314F8013F203B02FA03F00842F7D1FB
:2009C00020782E2819D114F8010F47F004072A280ED06FF02F022078A0F1300109290CD8B1
:2009E00008EB880102EB410100EB0108641CF2E70A98641C50F8048B0A9020780028CED00E
:200A0000642808D0692806D075281ED05A460B9990476D1C58E00A994FF00A0901C90A914A
:200A2000002802DA40422D2102E0390504D52B218DF82010012103E0F90704D02021F7E7F0
:200A40008A4608AE0DE00021FAE70A994FF00A0901C90A91F7E74946FFF77DFB303106F88D
:200A6000011D0028F7D1ADEB060000F12009780701D44FF00108C84502DDA8EB090000E0AC
:200A800000208046002706E008A85A46C05D0B9990476D1C7F1C5745F6DB04E030205A4616
:200AA0000B9990476D1CB8F10001A8F10108F5DC05E016F8010B5A460B9990476D1CB9F1C8
:200AC0000001A9F10109F4DC641C65E7092801000A68531C0B60107070470000AAB0A048DE
:200AE0000024B0E80E10CDE90612CDE9083CB0E80E10CDE90A12CDE90C3C00680E9099A08F
:200B00002823006800940A2128901A46084601F01AF84FF4FA6001F09BF808F0F9FB0023CA
:200B200091A21946184600F085FE4FF47A7001F08FF8122100238FA2204600F07BFE1B211B
:200B4000002398A2204600F075FE24210023A3A2204600F06FFE2D2540F2DC5001F078F8EE
:200B60000023A6A23621204600F064FE0023ADA23F21204600F05EFE0023B3A24821204630
:200B800000F058FE40F2DC5001F062F85A210023B8A2204600F04EFE63210023BFA220465E
:200BA00000F048FE6C210023C6A2204600F042FE75210023CDA2204600F03CFE7E210023D7
:200BC000D4A2204600F036FE96210023DBA2204600F030FE9F210023DAA2204600F02AFE5D
:200BE000A8210023D9A2204600F024FE0023D9A28721284600F01EFE90210023DCA2284696
:200C000000F018FE99210023E1A2284600F012FEA2210023E7A2284600F00CFEAB2100233A
:200C2000EDA2284600F006FE40F2DC5001F010F868274FF071084FF07A094FF0830A4FF058
:200C40008C0B00BF4FF482765F25642001F000F80023EAA22946304600F0ECFD0023EDA2F3
:200C60003946304600F0E6FD0023EEA24146304600F0E0FD0023F1A24946304600F0DAFDAD
:200C80000023F3A25146304600F0D4FD0023F5A25946304600F0CEFD0023F6A2952130465D
:200CA00000F0C8FD0023F8A29E21304600F0C2FD642000F0CDFF0023F8A22946304600F00C
:200CC000B9FD0023D3A23946304600F0B3FD0023F8A24146304600F0ADFD0023FBA249468E
:200CE000304600F0A7FD0023FDA25146304600F0A1FD0023DBA25946304600F09BFD00232D
:200D0000DCA29521304600F095FD0023DEA29E21304600F08FFD601C04B2192C92DB08F077
:200D2000F7FA0023F3A21946184600F083FD4FF47A7000F08DFF14244FF03C094FF0000831
:200D40000DF1180757F82800FFF7FEF91FFA80FABAF1000F57F828504FF00006D4E1000004
:200D60009C70000820000000546578742064656D6F3A00005468697320766964656F206943
:200D8000732067656E65726174656420776974682053544D33324631303354385536204D5E
:200DA00043552E00564741207369676E616C73206172652067656E6572617465642062795C
:200DC0002054494D312C2054494D322C2053504920616E6420444D412E00000034303078B9
:200DE000323030207265736F6C7574696F6E2C206D6F6E6F6368726F6D652E0042652077FE
:200E0000686F20796F752061726520616E6420736179207768617420796F75206665656C59
:200E20002C000000626563617573652074686F73652077686F206D696E6420646F6E277439
:200E4000206D617474657200616E642074686F73652077686F206D617474657220646F6EF3
:200E60002774206D696E642E202D44722E20536575737300202323202323232023202320E8
:200E80002323232023232320202020202320232020232320202320200000000023202020AE
:200EA000202320202323232020202320202023202020202023202320232020202320232011
:200EC00000000000202320202023202023232320202323202323232020202020232023206E
:200EE000232023202323232000000000202023202023202023202320202023202320202051
:200F0000202020202320232023202320232023200000000023232020202320202320232030
:200F20002323232023232320202020202023202020232320232023200000000020285F2FBA
:200F400029000000283D272E273D29002822295F2822290020205F5F5F5F5F5F5F5F5F5FE6
:200F60005F5F5F5F5F5F5F5F5F5F5F5F5F000000207C202020202020202020202020202042
:200F80002020202020202020207C685F205F5F00207C202042656175746966756C206C61A6
:200FA0006469657320202020207C7C3D7C23234C5F000000207C5F5F5F5F5F5F5F5F5F5FF8
:200FC0005F5F5F5F5F2E3D3D3D3D2E5F5F7C7C5F7C5F5F2E5F5D00002060285F29285F29CD
:200FE000602020202020202060285F29285F292222223D223D285F290000000020202020BF
:20100000203A202020203A524F464C3A524F464C000000002020202020202020205F5E5FE0
:201020005F5F00002020202020205F5F2F2020205B5D205C20202020000000004C4F4C3D0D
:201040003D3D5F5F20202020202020205C20000020202020202020205F5F5F5F5F5F5F5FE4
:201060005D0000002020202020202020204920202049000020202020202020202D2D2D2D4D
:201080002D2D2D2D2F0000002020524F464C20434F505445522121210000000020524F46A3
:2010A0004C3A524F464C3A202020203A2020202000000000204C202020205F5F2F202020CA
:2010C0005B5D205C2020202000000000204F203D3D3D5F5F20202020202020205C200000DC
:2010E000204C2020202020205F5F5F5F5F5F5F5F5D000000536C6F776C792074797065649F
:201100002064656D6F3A00001CBF09F102000FFA80FB12D0282000F09BFD15F8010B8DF825
:20112000A000002328AA5946204600F083FBA01D04B2701C86B2B245ECD809F109000FFAA9
:2011400080F914244FF4167000F082FD08F101000FFA80F8B8F1040FFFF6F4AD09F11400CB
:201160000FFA80FB4FF4167000F072FD4FF0040857F82800FEF7E8FF1FFA80F957F82850CC
:20118000B9F1000F4FF000061CBF0BF102000FFA80FA12D0282000F05BFD15F8010B8DF8E5
:2011A000A000002328AA5146204600F043FBA01D04B2701C86B2B145ECD80BF109000FFA70
:2011C00080FB14244FF4167000F042FD08F101000FFA80F8B8F1090FCADB4FF47A7000F066
:2011E00037FD08F095F8192000F04CF94FF4FA6000F02EFD08F08CF80025C8262C46A80067
:20120000CDE9006403B200212A46084600F054FB322000F01DFD281D05B2C82DEFDBC825DD
:20122000680003B200942A464FF4C8710020019400F042FB322000F00BFD281F05B2002DBA
:20124000EEDC4FF4FA6000F003FD02200090B52340F26112A921302000F075FCB4234FF473
:20126000B072AA213120009400F042FC5FF0B20745F2565068430114A1EBE070421C65A189
:201280000FA8FFF757FB00230FAAA021362000F0D1FA681C05B20A2000F0DAFC05F132004E
:2012A00003B2CDE900741946AC22002000F004FBB5F5967FDCDB4FF47A7000F0C9FC002398
:2012C00058A2A021362000F0B5FA4FF4FA7000F0BFFC08F01DF858480096CDE901040022E6
:2012E0004FF4C8731146104600F008FA002353A21946184600F09EFA40F6B83000F0A8FCC2
:20130000012000210090C72340F28F12084600F01AFC4FF4FA6000F09BFC07F0F9FF0121B5
:2013200000234CA2084600F085FA962004902820DFF830914FF0000B09F5DD6A88250590E4
:20134000494F002607F5DD680095CDE90174DDE904126823002000F0D1F94FF4967000F054
:2013600077FC0095CDE90184DDE904126823002000F0C4F94FF4967000F06AFC0095CDE90C
:201380000194DDE904126823002000F0B7F94FF4967000F05DFC0095CDE901A4DDE9041233
:2013A0006823002000F0AAF94FF4967000F050FC701C06B2042EC7DB2C4F002607F5DD6870
:2013C0000095CDE90174DDE904126823002000F095F9C82000F03CFC0095CDE90184DDE9A2
:2013E00004126823002000F089F9C82000F030FC701C06B2042EE3DB0BF101000FFA80FB01
:20140000BBF1020F9CDB0121002319A2084600F011FAFEE74C6F6164696E672E2E2E2025DD
:201420006425250052454144592120202020202020202020202000001C20000846756C6C11
:2014400073637265656E206269746D61702064656D6F3A005370726974652064656D6F3AFA
:2014600000000000FC5400082C470008CC62000854686174277320616C6C20666F6C6B73A0
:20148000210000002DE9F04F8246002683B000EB8A0400EB4A0500962346324629463046A6
:2014A000019600F009FA962000F0D2FB4FEA4A0900962B46524649460020019600F0FCF9D9
:2014C000962000F0C5FB4FEA8A0B00962346524659460020019600F0EFF9962000F0B8FBBA
:2014E0002B465A4651464846009600F001FB962000F0AEFB0AEB4A004700234629463A4607
:201500005846009600F0F4FA962000F0A1FB3B462A4659465046009600F0EAFA962000F041
:2015200097FBCDE900A63B4629465A46002000F0C3F9962000F08CFBCDE9009600212A4657
:201540005346084600F0B8F9962000F081FBCDE900964B464A465146002000F0ADF9962071
:2015600000F076FBCDE9005600212A464B46084600F0A2F9962000F06BFB0023CDE90046D8
:201580002A461946184600F097F9962000F060FBCDE90046002122465346084600F08CF9BC
:2015A000962000F055FBCAEBCA08CDE900864B463A461946002000F07FF9962000F048FB91
:2015C000CDE9008642465B464946002000F074F9962000F03DFBCDE900A63B4629465A46D0
:2015E000002000F069F9962000F032FBCDE900564B465A465146002000F05EF9962000F0C5
:2016000027FBCDE900463A4629465B46002000F053F9962000F01CFBCDE900865B462246BE
:201620001946002000F048F9962000F011FBCDE90076234642465946002000F03DF9962090
:2016400000F006FBCDE9004623463A462146002000F032F9962000F0FBFACDE900B6434682
:2016600022463946002000F027F9962000F0F0FACDE90096434619465A46002000F01CF9CA
:20168000962000F0E5FACDE9009643462A463946002000F011F9962000F0DAFACDE9009621
:2016A000234600221946104600F006F9962000F0CFFACDE90096434621464A46002000F0B0
:2016C000FBF8962000F0C4FACDE900A63B4621465246002000F0F0F8962000F0B9FACDE9D0
:2016E00000963B4619465246002000F0E5F803B09620BDE8F04F00F0ABBA00002DE9F04FF8
:2017000082B0DDF8348028B104882144448809B2224412B24FEAD309B3EBC90F88BF09F1C7
:201720000109CC080194A1EBC40448B1B0F90400CD184618B542A8BF401A08DB83B207E042
:20174000C818B0F5C87FA8BFC1F5C870F6DA9BB20B9800260028C7BFC4F10700009002B0D6
:20176000BDE8F08FB018C728C4BF02B0BDE8F08F911901EB8104019804EBC10100EB810064
:201780002A49002501444C010098002B04EB8000274C00F1085004EB411A0C992C4606FBCF
:2017A00009173BD9691C00F0E00B89B2002D08BF17F801CB01F007051CF0800118BF012108
:2017C000B8F1000F13D0B8F1010F04BF90F800E08EEA01010BD0B8F1020F04BF90F800E050
:2017E0000EEA010103D0B8F1030F02D006E0017004E090F800E04EEA01010170001F00F032
:20180000E0018B451CBF0AF1200082464FEA4C614FEA116C611C8CB29C42C3D3701C86B2CA
:201820000B9886429EDB02B0BDE8F08F2C0000201C0000222DE9F04F8946117883B09846A6
:2018400014464FF0000C29B112F8011F0CF1010C0029F9D11FFA8CF7002F85B24FF000069B
:2018600019BFDFF850A04FF0090B03B0BDE8F08F14F8010B202816D3203800EBC00080B221
:201880005044CDF800B0CDE9010806234A4629B20020FFF733FFA81D85B2B5F5C87F24BFD4
:2018A00003B0BDE8F08F701C86B2BE42E0D303B0BDE8F08FBC1C00082DE9F04F5C1ADDE992
:2018C00009C826B2ACEB020427B2002EBCBF744226B2002FBCBF7C4227B24FF0010A8B425A
:2018E000B8BF4FF0FF3A4FF001099445B8BF4FF0FF390D461446BE4292B289B2434662DDF5
:2019000000F0C6F8C6EB470001B2B81B40000FFA80FE7800002307B2002ED8BFBDE8F08F97
:201920000029A3BF04EB090004B201EB0E00C81901B205EB0A0005B21FFA85FCA2B2BCF590
:20194000C87F38BFC82A38D24FEADC00ACEBC00C4FF0800B2BFA0CFC5FEA080B06D0BBF100
:20196000010F0FD0B8F1020F1AD026E002EB820B0BEBC20B454A02EB8B0212F800B04BEA99
:201980000C0C0AE002EB820B0BEBC20B3F4A02EB8B0212F800B08BEA0C0C02F800C00CE018
:2019A00002EB820B0BEBC20B384A02EB8B0212F800B00BEA0C0C02F800C0581C03B2B3424F
:2019C000AEDBBDE8F08F00F063F8C7EB460001B2F01B40000FFA80FE7000002306B2002F18
:2019E000D8BFBDE8F08F0029A3BF05EB0A0005B201EB0E00881901B204EB090004B21FFADB
:201A000085FCA2B2BCF5C87F38BFC82A38D24FEADC00ACEBC00C4FF0800B2BFA0CFC5FEA4E
:201A2000080B06D0BBF1010F0FD0B8F1020F1AD026E002EB820B0BEBC20B144A02EB8B0263
:201A400012F800B04BEA0C0C0AE002EB820B0BEBC20B0E4A02EB8B0212F800B08BEA0C0C3F
:201A600002F800C00CE002EB820B0BEBC20B074A02EB8B0212F800B00BEA0C0C02F800C037
:201A8000581C03B2BB42AEDBBDE8F08F2C000020B1F5C87F34BFC82A704710B4C808A1EB7E
:201AA000C0014FF0800C2CFA01FC104902EB820404EBC20201EB8201002B04BF0A5C42EA09
:201AC0000C020FD0012B04BF0A5C82EA0C0209D0022B1CBF10BC70470A5C02EA0C020A5428
:201AE00010BC70470A5410BC704700002C0000202DE9F04182B00E46089D1C46CDE9006547
:201B0000174680461346014632460020FFF7D4FE3B46224641460020CDE90045FFF7CCFE57
:201B20004346324619460020CDE90045FFF7C4FE3B46324619460020CDE90045FFF7BCFE4F
:201B400002B0BDE8F0812DE9F04382B00F468046D91BA2EB0800DDF824900E0480B2360C8F
:201B60004FF0000419BF404405B202B0BDE8F083381902B2CDE900292B4641460020FFF753
:201B80009BFE601CC4B2A642F2D802B0BDE8F08370B5012188B00846FEF75AFC012141F6CD
:201BA0000D20FEF76DFC01210320FEF75DFC07F0B7FB00F055F8FEF7AFFC224847F230515D
:201BC000002400680125B0FBF1F0ADF810001E4EADF81450ADF81240ADF8164004A9304688
:201BE000FEF758FE4020ADF81C0003208DF81E0018208DF81F0007A91448FEF78BFB6020D0
:201C0000ADF80000ADF80250ADF80650ADF8084069463046FEF74CFD08213046FEF78AFDC2
:201C200001213046FEF728FD01213046FEF72DFD40F6B83000F00CF8FEF750FF08B000200D
:201C400070BD00001800002000040040000801400249486048680028FCD170470C00002017
:201C60000D484FF47A710068B0FBF1F0401EB0F1807F24BF0020704720F07F40411E4FF0C8
:201C8000E0204161054AF02182F8141D002181610721016101207047180000200FE000E02B
:201CA00005480168491C01604168002908BF70474168491E416070470C00002000000000C4
:201CC0000000000000002020202020002000005050000000000000000050F850F8500000C4
:201CE000002078A07028F0200000C8D02020205898000020502040A898700000202020003C
:201D0000000000000020408080804020000020100808081020000000A870F870A8000000E3
:201D2000002020F8202000000000000000202040000000000070000000000000000000003B
:201D400000200000101020202040400000708888A8888870000060202020202070000070DB
:201D60008808708080F8000070880830088870000010305090F810100000F08080F0088893
:201D8000700000304080B0C888700000F8081020408080000070888870888870000070889B
:201DA0008878088870000000303000303000000000303000303060000010204080402010E3
:201DC00000000000F800F8000000004020100810204000007088081020002000007088B82B
:201DE000A8B88078000070888888F888880000F08888F08888F0000070888080808870001B
:201E000000F08888888888F00000F88080F08080F80000F88080F08080800000708880B8C2
:201E20008888700000888888F88888880000702020202020700000080808088888700000DA
:201E40008890A0C0A090880000808080808080F8000088D8A888888888000088C8A898881A
:201E600088880000708888888888700000F08888F0808080000070888888A890680000F0C2
:201E80008888F0A090880000708880700888700000F82020202020200000888888888888BA
:201EA00070000088888888885020000088888888A8A87000008888502050888800008888CA
:201EC00088502020200000F80810204080F8000070404040404070000040402020201010C2
:201EE0000000701010101010700000002050880000000000000000000000F8000020201072
:201F0000000000000000000070087898680000008080F08888F00000000078808080780071
:201F20000000080878888878000000007088F080700000304840E040404000000000788861
:201F40007808700000008080B0C88888000020006020202070000000100010109060000099
:201F6000008090A0E0909000006020202020207000000000D0A8A8888800000000B0C88811
:201F8000888800000000708888887000000000F088F08080000000006898780808000000C9
:201FA00000B0C88080800000000070807008F0000040E04040404830000000008888889849
:201FC0006800000000888888502000000000888888A8500000000088502050880000000031
:201FE000888878087000000000F8102040F8000020404080404020004040404040404040C1
:020000040800F2
:202000000000804040204040800000000048A89000000000705050505050700000000000B0
:20202000000001F80000000020010008040000040200000020210000000000000000000033
:202040000000000000000000000000000000060000000000007000000000002000000010DA
:20206000041004000200080000000000000000000000080000000000000000000000000036
:20208000060000000000006000000000000000000010208800044028820000000000000034
:2020A000000000000000000000000000000000000000000000000000000000000020000000
:2020C000141080010000804000000000010000000000000000000001000000000000000099
:2020E0000000000000000000000000000000004000000006280000408004020008000000A4
:202100000000000000000000000000000000000000000000000000000000000000000000BF
:202120000000000000000001420204008001000000001000000000000000000000000000C5
:202140000200000000000000000000000000000000000220000008000064180010010000C6
:20216000000000002000000000000000000000180000020000000000000000000000000025
:2021800000000000060002030010020000080040082000084000000000000000000000006A
:2021A000003E00000000200000000000000000000000000000001200080400400084014896
:2021C000090010000400000000000000000020000000003C00000000000000000000000086
:2021E000000000000000000000000000100280001002408802004180100004080000000094
:2022000060000000001C000000000000000000000000000000000000000004000004010039
:20222000041284281422402400200000000000000000000000000020000000000000000002
:2022400000000000000000000000000000440046001020000000000004000002002000009E
:2022600000000000000000000000C000000000000000000000000000000000000000000896
:202280001004803005504021440400502000002000000000001000000000000000000000DC
:2022A0000000000000000000000000000000000000180000104280010100014000060000EB
:2022C0000000000000000000000000000000000000000000000000000000000000000000FE
:2022E000000000100012190902C015800020994088448000000000000000000000000000FE
:20230000000000000000000000000000000000000000000000020200001010048011488438
:2023200000090000000800000000000000000000000000000000000000000000000000008C
:202340000000000000000000002048269842280900008081200000000000000000000000C3
:20236000000000000000000000000000000000000000000000000000020000001903001827
:202380000240A991040000205000400000000000000000000000000000000000000000000D
:2023A00000000000000000000000000C01043EA301009658040410180210000000000000FA
:2023C0000000000000000000000000000000000000000000000000000000000001001000EC
:2023E0005F044891000140A486004004008000020000000000000000000000000000000070
:20240000000000000000000000000000000000020E921E4240420A11301124800000000038
:2024200000000000000000000000000000000000000000000000000000000000000040005C
:20244000000000003E08090450444A88002228010400000000000000000000000000000074
:2024600000000000000000A000000000000000000000000024006E8060210C8A11455905DF
:2024800000442000000000000000000600000000000000000000000001C000000000000011
:2024A000000000000020001000120524A1A244100040A1000004000000000000000601002E
:2024C000000000000000000000000080000000000000000000002080000020422050882161
:2024E00091805444110080040080000000000002010000000000000000000000000000001B
:2025000000000000020000000000408205004546334C252D02000018040000000000000078
:202520000000000000000000000000000000000000000000000000000000000008100094EF
:202540000122889A6450B0410440001000000000000000000000000000000000000000003D
:202560000000000000000000000000000001800822025C89AA6599A60A28210140004000A7
:20258000000000000000000000000000000000000000000000000000000000000004000136
:2025A0000810000AA135555AAA22618048041000000000000000000000000000000001006A
:2025C00000000000000000000000000000000010000002826A800482AAA554990415008022
:2025E0000000000000000000000000000000000000000000200000000000000000000000BB
:20260000000001802C00225C566A565B99A49A4801020104020000000000000000480000AD
:20262000000000000000000000000000000000000078000000000E2400011255AB766F5B9D
:20264000623098204040000000000000000000F000000000000000000000000000000000C0
:202660000000007802000008260150009496B9EBE75AAA25A442010040000000000000005C
:2026800000F0000000C0000000000000000000000000000000700000480000400A5B4A796A
:2026A000AFBEBDA559A401002000010000000000000000F8000000C0000000000000000074
:2026C00000000000000000310000004000280282A5E7E6FBE9FBA44260180002000000002C
:2026E00000000004006000000000000000000000000000000000000000410000000446806B
:2027000050A45A9D7FDF7F965A980480486000040000000000000000000000000000000039
:202720000000000000000000000000000000100008094519555BFFFFFFED45662820040089
:20274000002400000000000000000000000000000000000000000000000000000000000055
:20276000048810102046AAFFFFFFFFFDFA9081051000000000000000000000000000000084
:202780000000000000000000000000000000000000000000020084613DAFFFFFFFFB99498C
:2027A000AA920210400000000000000000000000000000000000000000000000000000008B
:2027C0000000000400018044251AD7FBFFFFFFFFF7A6200020020200000000000000000042
:2027E000000000000000000000000000000000000000000000000100080102A5DBFFFFFF50
:20280000FFFFD66261241020000000000000000000000000000000000000000000000000CD
:20282000000000000000000800000224691A3FFFFFFFFFFFFDBD8841420004408000000024
:2028400000000000000000000000000000000000000000000000000001004000246501535A
:20286000DBFFFFFFFFFFFFA432002800000000000000000000000000100000000000000075
:20288000000000000030000000000000004800005CADBFFFFFFFFFFFF6DA4C440024400138
:2028A0000000000000000000000010000000000000000000000000180000000000001100DF
:2028C0000200125BBFFFFFFFFFFFFEED5150412800000000000000000000000000000000DA
:2028E000000000000000000000000000000080000009406A49ACFFFFFFFFFFFFFFB6A40459
:202900000010000000000000000000000000000000000000000000000000000000000000A7
:20292000000100200001A5577FFFFFFFFFFFFFDA2A49201012400000000000000000000031
:202940000000000000000000000000000000000000000010000091248AB6FFFFFFFFFFFF78
:20296000FFBBD2504481003000000000000000000000000000000000000000000000000086
:2029800000000000000000020261512FFFFFFFFFFFFFFFFA5441461010180000000000004C
:2029A0000000000000000000000000000000000000000000000000000040100466F7FFFF68
:2029C000FFFFFFFFFFEDAA280000020000000000100000000000000000000000000000002B
:2029E00000000000000000000400020048022BEFFFFFFFFFFFFFFFFFDAC804480000830004
:202A0000000000000000000000040000000000000000000000000060000000002008019C8D
:202A20009637FFFFFFFFFFFFFFFA2411900000000000000000000000000000000000000011
:202A40000000000000000000000000000000004904A44AFFFFFFFFFFFFFFFFFEE91140000B
:202A6000001000000000002000000000000000000000000000000000000000000000000026
:202A800080000001955FFFFFFFFFFFFFFFF796C8020A400000000000000000000000000027
:202AA0000000000000000000000000000000000000810002812199FFFFFFFFFFFFFFFFFF61
:202AC000DA65A89084000000000000000000000000000000000000000000000000000000FB
:202AE000000000000440144A4FBFFFFFFFFFFFFFFFFE6510010000040000080000000000AD
:202B0000000000000000000000000060000000000000000001004020020256FFFFFFFFFF9F
:202B2000FFFFFFFFFA949010004000000800000000000000000000000000020000000038E9
:202B40000000000000000000180020A9A67FFFFFFFFFFFFFFFFF45620004010000000000CB
:202B6000000000000000000000000000000000000010000000000000000000294A41AFFFE3
:202B8000FFFFFFFFFFFFFFFFFE449880000040000000000000000000000000200000000083
:202BA0000000000000000000000000080100201A55FFFFFFFFFFFFFFFFFFD99101102000EB
:202BC0000080000000000000000000000000000008000000000000000000000000040480E5
:202BE000400257BFFFFFFFFFFFFFFFFF6A9C0240010200C000000000000000000300000077
:202C00000000000000000000000000000000000080040A59ADFFFFFFFFFFFFFFFFFFF942EE
:202C200068010080010000000000000000000000000000000000000000000000800000002A
:202C40008000081090895AFFFFFFFFFFFFFFFFFF96A40000600010100000000000000000B8
:202C60000000000000000000100000000000C00000024010000604A2AFFFFFFFFFFFFFFFDE
:202C8000FFFFFD515118000004000000010000000000000000000000000000000000000179
:202CA000F00000000000080E0144F3FFFFFFFFFFFFFFFFFFDD51040820001C101800000041
:202CC000000000000000000000080000000000000000E00000001000008698169FFFFFFF2C
:202CE000FFFFFFFFFFFFF694A1408080FE0000000000000000000000000000180000000059
:202D000000000000E000000000001010051947FFFFFFFFFFFFFFFFFFE64A10100000DE0029
:202D20000000000000000000000000000000000000000000000000300000004200042042BB
:202D4000BEFFFFFFFFFFFFFFFFFFFD94848202013E000000000000000000000000000000E6
:202D600000000000000020000020000000000100048ABFFFFFFFFFFFFFFFFFFFAE522000AE
:202D8000040128000000000000000000000000000000000000000000000000000000000006
:202DA000002451A545FFFFFFFFFFFFFFFFFFFAA842188080000000000000000000000000C1
:202DC000000000000000000000000000000000000808000200429FFFFFFFFFFFFFFFFFFF09
:202DE000FD2A1801000002000000000000000000000000000000000000000000000200008F
:202E0000000000002808251973FFFFFFFFFFFFFFFFFFE65282802000000800000001000077
:202E20000000000000000000000000000000000000000000004001409006DEFFFFFFFFFFA2
:202E4000FFFFFFFFB98C0406210000000000000100000000000000000800000000000000FD
:202E60000000000000000002000801D167FFFFFFFFFFFFFFFFFFFE61A120000008000000F0
:202E8000000000000000000000000000000000000060000000000000000080020A0AA7FF96
:202EA000FFFFFFFFFFFFFFFFE7B110408200000000000000000000000000000000000000B0
:202EC000000000000000000000000000D01840A55DFFFFFFFFFFFFFFFFFFF54C84100001FB
:202EE0000000000000000000000000000000000004000000000000000000000004000820A2
:202F000000149FFFFFFFFFFFFFFFFFFFDA2102410080000100000000000000000000000048
:202F2000000004000000000000000000000000120001554669FFFFFFFFFFFFFFFFFFD9D4D2
:202F4000A800000000000000000000000000000000000000000000000000000000000000C9
:202F6000000000040418BDFFFFFFFFFFFFFFFFFFFD421004280820000000000000000000DA
:202F80000000000000000000000000000000000000000000008020C357FFFFFFFFFFFFFF7E
:202FA000FFFFD6AC82200000000000000000000000000000000000000000000000000000EF
:202FC0000C0000000000000400225EFFFFFFFFFFFFFFFFFFF54608010040000400000000E2
:202FE00000000000000000000000040000000000000000000000000444805A89A3FFFFFF82
:20300000FFFFFFFFFFFFAA904150800000000000000000000000000000000000000000006B
:2030200000000000000000000086001022285FFFFFFFFFFFFFFFFFFFFDAD5000020100005D
:2030400000000000000000000000000000000000000000000000000000000000000100A3CC
:20306000A97FFFFFFFFFFFFFFFFD92400424100000000000000000000001800000000000A7
:2030800000000000000000000000000304004400291227BFFFFFFFFFFFFFFFFF9A300040C2
:2030A000000000000000000000000800000000000000000000000000000000000000800088
:2030C0000284008459FFFFFFFFFFFFFFFFFFF58DA90010000000000000000000000000005B
:2030E0000000000008000000000000000000000000000021803366FFFFFFFFFFFFFFFFFE98
:20310000A66020090000000000000000000000000000000000000C00000000000000000074
:2031200000000002000009089B5FFFFFFFFFFFFFFFFFEA4504400440800000000000000053
:20314000000000000000000000000000000000000000000000000108880012DFFFFFFFFFF1
:20316000FFFFFFFF2B2294086000000000000000000000000000000000000000000000000A
:203180000000000000000000000000AB5D77FFFFFFFFFFFFFFFDD4A4004000000000000002
:2031A000000000000000000000000000000000000000000000000000000010020110477F26
:2031C000FFFFFFFFFFFFFFF6A981000101840000000001A0000000000000000000000000AF
:2031E0000000200000000000080008118040240A92CDFFFFFFFFFFFFFFDED228981000D0F8
:203200000010000003C0000000000000000000020000000020000000200000000000004059
:2032200008981A7BFFFFFFFFFFFFFFEB6A500A4002000100000007E0000000000000000087
:203240000006000000000000000030000000000000082101C59EFFFFFFFFFFFFFFFD981904
:2032600000040000001F000003C000000000000000000001000000000000000078400000AF
:203280000002040080161657FFFFFFFFFFFFFFE943A4840C2080000E000001C0000000005D
:2032A000000000000000000000000000000000C0000000000009108092B7FFFFFFFFFFFF72
:2032C000FFBA980010204000400E00000000000000000000000020000000000000000000BF
:2032E0000000000000200011020008AC7FFFFFFFFFFFFB7746500820000000140000000029
:2033000000000000000000000000000000000000000000000000000000002065A657FFFF2D
:20332000FFFFFFFFFFD9B00220002020000000000000003A0000000000000000000000006D
:203340000000000000000000000004080828A3AB2DFFFFFFFFFFFDA42A8A420A0000800892
:2033600000000000003C000000000000000000000000000000000000000000004000800150
:203380000854F7FFFFFFFFFFFDBA482020800000000000000000007E0000020000000000A0
:2033A00000000000000000000000000000000004094248697FFFFFFFFFFFE6A4459228000A
:2033C0002000000001800280007C000000000000000000000000000000000000000020002E
:2033E000008100101316C9FFFFFFFFFF7B5BA00000000800000001801E00001C0000000016
:203400000000000000000000000300000000000000000400220A60C55BBFFFFFFFFEDD6200
:20342000440502200000000000001E00000000000000000000000000000000000000000003
:203440000000000200000000061AB6DBFFFFFFFBB294129020080020000000203F00000032
:2034600000000000000000000000000000000000000000000000000104A2061235DFFFFF7B
:20348000FFFFD5238A0000000000000000003E000000000008000000000000000000000066
:2034A00000000000000000040000800060CC8A756FFBFBD46A681028448000010000001045
:2034C0000E00000000000E000000000000000000000000000000000000000110202000215E
:2034E0002DDFF6DF9F6B5508A96000002000000000180000000000001E0000000010000015
:20350000000000000000000000000000400002012586D224AFF6FA6DAAD30001120804001F
:20352000000000080000000000000C000000007C00000000000000000000000000000420D7
:2035400000180044296BBBFFB7DA4A080444802000860000008000000000000000000000F0
:20356000007C00000000000000000000000000000000100294214A956A4AAC65A469500007
:2035800001001002000000C08000000000000000000000FE000000000000000000010000D9
:2035A0000000000404082504332A56B9E55A33024911000400000000000000000000000094
:2035C00000000000007800000000000000000000000000800000004000A58495AB565AA5F5
:2035E00048A00080200000000000000000000000000000000000003800000000000000000B
:20360000000000000001104062404890A1195AAA4AD88A0902000008000000000000000062
:2036200000000000000000000000000000000000000200000000000000020004010904C2B2
:203640008555A50630504088884000800000000000000000000000000001800000000000D4
:20366000000000000000000000000000001048021A1968496CA24580A00000000800000091
:20368000000000000000000200000000000000000000000000000000000000000000000127
:2036A0001A80484923929228200909110000800000000000000000000000000000000000AD
:2036C00000000000000000000000000000008000000008100512A66C88521892002402403F
:2036E0000000000000000000000000000000000000000000000000000000000000000001C9
:20370000C0000801D282504800812314810084001000000000000000000000000000000027
:20372000000000000000004000000000000000000005800008498806065ADD1554A5800812
:20374000100820000000000000000000000000000000000000000000000000000000000031
:203760000000000004404000002040000090410019238280000800000000000000027E804E
:2037800000000000000000000000000000080000000000000000008200844022404AA50C7E
:2037A00050052027A1010010100000000000002FFFF8000000000000000000000000001E67
:2037C00000000000000000002000088002001600009209A0840100008000000000000000E9
:2037E00000FEA59E000000000000000000000000001F000000000000000000000000400029
:20380000848824406210228444000000000000000000079559368000000000000000000031
:203820000000001E0000000000000000000000010428001282040004080000201100000068
:20384000000000001FFA2A40000000000000100000000000001400000000000000000008B9
:20386000404004222480122900992110140000000000000000003EC5C280000000000000A0
:203880003800000000000000000000000000000000000004000002020080520002440008C8
:2038A00001C8000000000000779424000000000000001800000000000000000000000000F8
:2038C0000000000002004180000605000A004000002003C0000000000001FE5A8000000014
:2038E000000000001000000000000000000000000000000000000000000448402022204486
:20390000080881008000000000000003D3E8000000000000000000000000000000000000D8
:2039200000000000000000000004008210002884004010040000088000001A0000072DA477
:203940000000000000000000004000000000300000000000200000000000000002000212C1
:203960000010110100820400000000000200000F5651800000000000000000000000000067
:203980000000000000000000000000001000800040400881500402042041000000000000D3
:2039A000003DB1A00000000000000000000000000000000000000000000000000000004039
:2039C000041000042000082040140000000000000000003A4C480000000000000000000065
:2039E0000000000000000000000000000000000000000004001002000001000000000000B0
:203A000000000000007741900000000000000000000000000000000000000000000300005B
:203A20000000000004004808108882A04804000040200000000000F938000000000000009B
:203A400000000000000000000000000000000000000000100004002000028011000004009B
:203A6000040000000000000000ECA69000000000000000000000000000000000000C000014
:203A8000000000000000080020000480040010040080802000000000000001F192000000BE
:203AA0000000000000000000000000001800000E00000000000000000000000400000808CC
:203AC00001014012000002000000000003D018200000000000000000000000000000000085
:203AE00000380000000000000000000008021410100080000000000000000000000001FDD2
:203B0000410000000000000000000000000000000000000000000000000000000002000062
:203B2000000402000800440000000000000000000362A60000000000000000000000040024
:203B40000000000000000000000000000000200000000000404200600000048000001000CF
:203B600000000794200000000000000000000000000000000000000000000000000000008A
:203B800000000001000000002000040010000000000000000623880000000000000000003F
:203BA0000000000000000000000000080000000000000000002000000022000410000001A6
:203BC00000000000000007D8100000000000000000000000000000000000000000080000EE
:203BE0000000000000000000420488000840F94008000400000000000E6A80000000000072
:203C0000000000000000000000000000000000000000000000000040020000400000000022
:203C2000300100000000000000000FB4000000000000000000000000000000000000000090
:203C4000000000000000000000040080800100004002900008000000000000000F50000026
:203C60000000000000000000000000000000000000000020000000000000000000000080A4
:203C8000000801000C2000000000000000000EAA0000000000000000000000000000000037
:203CA0000000040000200000000000000000000000000084008000000020000000000000BC
:203CC0001FD00000000000000000000000000000000000000C0000000000000000000000E9
:203CE00000000600010C0000000000000000000004001929800000000000000000000000EB
:203D000000000000000000000000000000000000000008000700000400000400000000008C
:203D200000000C0008900000000000000000000000000000000000000000000000000000DF
:203D4000000000000000040040000000000000000000000000001F600000000000000000A0
:203D60000000000000000000000000000000000000000000080000000040002000000008D3
:203D8000000000000000000015D80000000000000000000000000000000000000000000036
:203DA00000000000000000000002000000004101000000000000000000001A0000000000A5
:203DC00000000000000000000000000000000000000000000000000008800000000000005B
:203DE0004000000000000000000000000D0000000000000000000000000000000000000076
:203E00000000000000000000000038800000000000000000000000000000000000001AC010
:203E200000000000000000000000000001C000000000000000000000000000001180000030
:203E4000000220100000100000000000000000001A200000000000000000000000000E00D8
:203E6000000000000000000000000000000000000000200000000000000000000000000022
:203E8000000005800000000000000000000000000F0000000000000000000000000000008E
:203EA00000000000000000000000000040000000000000000A0000000000000000000000B8
:203EC0000000060000000000000000000000000000000000000000000000000000000000DC
:203EE0000000E00000000D10000000000000000000000000020000000000002000000000A3
:203F00000000000000000000002000020000400000000000400000000400000000000000FB
:203F20000000000000000000000000000000000000000000000000000002100000000080EF
:203F40000000000000000000000006800000000000000000000000000000000000000000DB
:203F60000000000000000000200000003000000000000000000000000000000004000000ED
:203F800000000000000000000000000000000002000000000000000000000000000010000F
:203FA000000000000000024000000000000007800000000000000000000000000000000038
:203FC00000000000000000000000000000008008084000000000000000E000000000000031
:203FE0000200000000000000000000100000000000000000000000000000000002A000010C
:020000040800F2
:20400000801C000000000000000000000000000000000240000000000000000000000000C2
:204020000000000000000000000C0000000000E00000000000000000000000000000000094
:204040000000000001800000000000000000000000000000000000000000000C00000000D3
:2040600001C0000000000000000000000000001800000000000000800000000000000000E7
:204080000000000000000000000000000000000000000080000000000000000000000000A0
:2040A000000000000000000000000000000000000000000000000000000000000000000000
:2040C0000000000000000000000000000000000000000000000000000000004000000000A0
:2040E000000000000000000000000000000000000000000000000000004000000000000080
:2041000000000000000000000000000000000000000000000000000000000000000000009F
:204120000000000000000000000000E000000000000000000000000000000000000000009F
:2041400000000000000000000000000000000000000000000000000000000000000000005F
:2041600000000000000000000000000000000000000000000000000000000000000000003F
:2041800000000000000000000000000000000000000000000000000000000000000000001F
:2041A0000000000000000000000000000000000000000000000000000000000000000000FF
:2041C0000000000000000000000000000002000000000000000000000000000000000000DD
:2041E0000000000000000000000000000000000000000000000000000000010000000000BE
:2042000000000000000000000000000000000000000000000000000000000000000000009E
:2042200000000000000000000000000003000000000000000000000000000000000000007B
:204240000000000000000000000000000000000000000000000000000E000000000002004E
:2042600000000000000000000000000000000000000000000000000000000000000000003E
:20428000000000000000000000000F0000000000000000000000000000000000000000000F
:2042A000000000000000000000000000000000000000000000000000000000001F000000DF
:2042C00000000000600000000000000000000000000000000000000000000000000000007E
:2042E00000000000000000000060000000000E80000000000000E0400000000000000000B0
:204300000000000000000000000020000000000000000000000000000000003E000000003F
:204320000200000000000000740004000000000000000000000000000000000020000000E3
:2043400000000000000000000000000000F800000000000000000000000000000400000061
:20436000000060000000000000000000000000000000000000000000000000000000003CA1
:204380000000000000000000000000004000000000000000000000000000000000000000DD
:2043A00000000000000000000006000004000000006800000000000000000000000000008B
:2043C0000000000000000000000000000000000000000000000000000000000000000000DD
:2043E0000000000000000000000000000000000000000000000000000000000000000000BD
:20440000000000000000000000000000400400000000000000000000000000000000000058
:204420000001800000000000000000000000000000000000000000000000000000000006F5
:204440000000000000000000800000000000000001F2C00000000000000000000000000029
:2044600000000000000000000000000000000000000F0000000000000021C000000000004C
:20448000000001F0C000000000000000000000000000000000000000380000000000000033
:2044A0000000000F0000000000000021C00000000000000000F840000000000000000000D4
:2044C000000000000000000000007A000000000000000000000F0000000000000001C00092
:2044E00000000000010000E000000000000000000000000000000000000000007C0000005F
:2045000000000000000000000000000000000000000000000000000000200000000000007B
:20452000000000000000000000000000000038000000000000000000000000000000000043
:204540000000008000000000000000000000000000000000000000000000000000000000DB
:2045600010000000000000000000000000000000000000000000000000000000000000002B
:2045800000000000000000000000000000000000000000000000000000000000000000001B
:2045A0000000000000000000000000000000000000000000000000000000000000000000FB
:2045C0000000000000000000000000000000000000000000000000000000000000000000DB
:2045E0000000000000000000000000000000000000000000000000000000000000000000BB
:2046000000000000000000000000000000000000000000000000000000000000000000009A
:20462000000000000000000000400000000000000000000000000000000003000000000037
:20464000000000000000000000000000000000000000000008020030000000000000000020
:204660000000000000000000000000000200000800000040000000000000000000000000F0
:20468000000000000000000000000000000000000000000000000000000000000002000018
:2046A0000000000000400000000000000000000000000000000000000000000000000000BA
:2046C0000000000000060000000000000000000000000000000000000000000000000000D4
:2046E0000000000000000000000000000000000000000000000000070000000000000000B3
:20470000000000000000000000000000000000000000000000000000000000000000000099
:20472000000000020000000000070000000000000000000000000000000000000000000070
:20474000000000000000000000000000000000000000000000000000000000000000000059
:20476000000000000000000000000000000000000000000000000000000000000000000039
:20478000000000000000000000000000000000000000000000000000000000000000000019
:2047A0000000000000000000000000000000000000000000000000000000000000000000F9
:2047C0000000000000000000000000000000000000000000000000000000000000000000D9
:2047E0000000000000000000000000000000000000000000000000000000000000000000B9
:20480000000000000000000000000000000000000000000000000000000000000000000098
:20482000000000000000000000000000000000000000000000000000000000000000000078
:20484000000000000000000000000000000000000000000000000000000000000000000058
:20486000000000000000000000000000000000000000000000000000000000000000000038
:204880000000007FFF00000000000000000000060FFFE0000000000000000000043FFFF272
:2048A000600000000000000001A0FFFFFE180000000000000005417FFFFC0800000000001B
:2048C000000001075FFBFA4200000000000000181BAF9358618000000000000000219FFFCD
:2048E000F5C00000000000000000001BFFC80100000000000000009427A940040000000078
:2049000000000000482DFFA0010000000000000000004BD741800000000000000000022B72
:20492000FE800000000000000000001E53CB880000000000000000007DE387070000000047
:2049400000000001F07FC00077D600000000000007E3FFF0023FE04000000000001FF8FB8E
:20496000FF827FEEF800000000003FFC3BFF8FFFE5FE00000000001DFFDFFFEFFFFFFE0086
:204980000000000017F9FFFFFFFFBFFF000000000057F43FFFBFFECAFC00000000001EA182
:2049A000F76F77F95CBC000000000016567FFFB7DFA4100000000000318D3FFFB7F7C24227
:2049C00000000000007DC04AFFFFBA00090000000000FF4881257C8800010000000001FF9D
:2049E00071A000380000010000000000FFF96C80FE00341380000000005DF95C05FF21509D
:204A00004380000000019DF8133FDBC04013400000000382F083E469B8040080000000023A
:204A20006F844FC3581A2040000000000094A58B4416080001000000004327001E0E4F860D
:204A400080100000000007E1821910035102040000000001BA000C2204008000000000006C
:204A6000127F00A000104501020000000007FE804240241100400000000007FF80000000AB
:204A8000000009000000000FFF80000100000046000000001FFF80100800000191000000F0
:204AA000000FFF8000448088005C4000000007FFC00800010001CDE000000007FE401000AE
:204AC000200000DE600000000BFF8000288444099D5000000007FF8000050240095FA00033
:204AE000000007FF000400000003DFB000000006FE000000000A57DFD000000001FF00887E
:204B000080220243FFF800000002FF010000281CEBFFD800000001F81811028B7FA1FFF8E9
:204B200000000000E204AA4AAFD7F1FFF800000001B22A216FFDB7FDFFBC00000000BE395D
:204B4000C28AAAABB3FFFC000000001FBE442040FFF1FEFC00000000E216602021FFC5FF3F
:204B6000FE000000006016F4020FFFE8FEFE000000007207791007DFDCFDFE000000000F0B
:204B8000E01C0136BFE8FF60000000000403DE00353FE1F6000000000001E8000811FFF9B2
:204BA000805400000000008508801DFFE0044200000000000021061EBCF449FA000000009A
:204BC00000106020157FD02F7600000000000500000FFDB00FFF00000000000408081A5CE3
:204BE000A0173E000000000004400005DFA407FF0000000000102090176BB00BDF00000012
:204C0000000003240018D32407DF00000000000444101EB66003FF00000000001162041A59
:204C200002080FF78000000000081000066C0003FF800000000000081005402007F58000DF
:204C400000000000000002508003C000000000000100500502000416000000000000440009
:204C6000018428000000000000000000000142000000000000000000820001C3900000006E
:204C80000000000004000003BA58000000000000000000000DFED0000000000000001A08FE
:204CA0008007BFD0000000000000002010400FFFD0000000000000000509001F9FC0000004
:204CC000000000000036A0001FFFC0000000000000000A01000B5E80000000000000000B21
:204CE0000500192C20000000000000000180000ADD20000000000000000385000196200083
:204D000000000000000002850001A8400000000000000007D58005C80000000000000000FA
:204D20001EFA40079900000000000000007FFFA007A980000000000000001FFF0007EA001E
:204D40000000000000000017FC801FBE000000000000000005AA000FFD0000000000000028
:204D6000001FFF803FF400000000000000002FFE00125A40000000000000001FFE204A5AA8
:204D8000000000000000000047F5000000000000000000000017F8001A600000000000004E
:204DA000000027FC00018A0000000000000000029400045400000000000000000000001542
:204DC0001000000000000000000000000189000000000000000000000014600000000000C5
:204DE00000000000000001A4000000000000000000000028000000000000000000000000E6
:204E0000000000000000000000000000000000000000000000000000000000000000000092
:204E2000000000000000000000000000000000000000000000000000000000000000000072
:204E4000000000000000000000000000000000000000000000000000000000000000000052
:204E6000000000000000000000000000000000000000000000000000000000000000000032
:204E8000000000000000000000000000000000000000000000000000000000000000000012
:204EA0000000000000000000000000000000000000000000000000000000000000000000F2
:204EC0000000000000000000000000000000000000000000000000000000000000000000D2
:204EE0000000000000000000000000000000000000000000000000000000000000000000B2
:204F0000000000000000000000000000000000000000000000000000000000000000000091
:204F2000000000000000000000000000000000000000000000000000000000000000000071
:204F40000000000000000000000000000000000000000000000000000000000000079FFFAC
:204F60001C000000000000000000D1FFFFF100000000000000000083FFFFF840000000009C
:204F80000000000283FFFFF810000000000000001404F7FFF41800000000000000201D5FD0
:204FA000EF5402000000000000002046FE67AC420000000000000000030FEEBC80000000B7
:204FC0000000000000805FFF04040000000000000000204EA7800000000000000000004016
:204FE00017FE00800000000000000000001F7700000000000000000000062BFCA0000000B9
:205000000000000000001E5E5E0400000000000000000079CA864B0000000000000000B0EE
:20502000FFC0067780000000000000074FF3E6017DB48000000000001FC7FFFF07FFC3F036
:2050400000000000003FFAFFFFAFFFFEFC000000000039FFFFFFFFFF5FFE0000000000657B
:20506000F577FFEFFEFBFD000000000025E99E5ABDF6A4FE000000000007C2FBFFBFBDEE58
:205080002C00000000001C097FFFAFFFDA24000000000040400FFFFFFE0000000000000109
:2050A000E20000BF782118178000000001F4051000740000004000000007F80168007880E9
:2050C00008074000000001F822D801FA0070EF8000000082EA60124FFF0240D7E00000008F
:2050E00000A9C815789BD440DFC00000000018D52F43D0E8105E800000000203000F8518AE
:205100001C02628000000080060591161E042030800000000000040E080BA780020000001D
:205120000004000010000904000840000000004600109842432000000000000900804400A6
:20514000004200800000000013B8000000080000040000000039F80041000000002A10000A
:2051600000000FFA0000004000000FD00000002FF8000000000200BEF00000006DF80000CB
:20518000114120007F780000003BE8000004008000FFFC0000003D68002040002000F7EFF9
:2051A000000000BD68000040000243FFFE800000EFF0000001000001FFFF000000FFA0004A
:2051C0000400000401FF7E000000C7C0000080000003BFFF0000005F80010000210242F745
:2051E000FF4000003760248000001EC2FFFF8000003FD022A00400CF42FFFF4000003D4036
:205200001C0B6B7FDAE6FFFF8000003E403D6557F8BF967FFFC000003F805E6080168AF1AF
:205220007FFF8000001B00DDF001082BA47FFF800000218086980000A1643FC200000030BD
:2052400080A5AC0C00BEE83084800000398016563023689E41510000001F00978B6001B134
:205260005220D60000000BE0906100005AB8430FE0000000400D008001025001EFC00000F6
:2052800005A050680804512D31FFE0000007A062A9000001A821FFE0000001F00010240097
:2052A000425201D5F00000000140000000047600F7E00000000190804001002400FFF0009D
:2052C0000000018108200249D000FFF8000000010000000000A6007FF0000000018000007B
:2052E000004134007FF000000001141040000041007C2000000002448000000624004390C5
:2053000000000002000080000082001400000000024804000182000004000000000200009E
:20532000000000200000000000000200040000120100001000000000D020000000440020D0
:205340000000000000C1100000004000000000000000A4020000480000000000000000D47A
:20536000080000000000000000000000A1800000010400000000000007D81200000000000E
:20538000000000000007E0800000244200000000000006F42000000E010000000000001700
:2053A000E140000018780000000000001F6900000023E80000000000000FC18000009CAA13
:2053C00000000000000007E34000006D7A00000000000007C740000012E4000000000000B8
:2053E00003E7000000065200000000000007FE00000012A80000000000001FFF80000037D7
:20540000B000000000000007FF000000196000000000000017FF8000001DB00000000000FA
:205420000046CE4000001BF40000000000003FF940000036F00000000000009FFC40000090
:205440007FF80000000000007FFE0000007B680000000000003FFA80000045AA00000000CD
:205460000000C27E200000264800000000000000020000000000000000000000000000005C
:20548000005520000000000000000000000001400000000000000000000000020000000054
:2054A00000000000000000002A90000000000000000000000084200000000000000000008E
:2054C0000000218800000000000000000000001420000000000000000000000000040000EB
:2054E0000000000000000000000000000000000000000000000000000000000000000000AC
:2055000000000000000000000000000000000000000000000000000000000000000000008B
:2055200000000000000000000000000000000000000000000000000000000000000000006B
:2055400000000000000000000000000000000000000000000000000000000000000000004B
:2055600000000000000000000000000000000000000000000000000000000000000000002B
:2055800000000000000000000000000000000000000000000000000000000000000000000B
:2055A0000000000000000000000000000000000000000000000000000000000000000000EB
:2055C0000000000000000000000000000000000000000000000000000000000000000000CB
:2055E0000000000000000000000000000000000000000000000000000000000000000000AB
:2056000000000000000000000000000000000000000000000000000000000000000000008A
:2056200000000000000000000000000000000000000000000000000001C7FFF7800000002C
:205640000000000000063FFFFE200000000000000000387FFFFF08000000000000000280A9
:205660003FFFBECA000000000000000421BF7FFE41400000000000000604A3ED62B0800056
:2056800000000000000404DFE5FD8020000000000000000041DDD38200000000000000002E
:2056A0000043FFE2800000000000000000000A95A00000000000000000000000FF80000088
:2056C000000000000000000003BEE0000000000000000000002AFFC0000000000000000040
:2056E0000007CBC1A600000000000000000D0F9891C00000000000000000E07E7C0006404C
:2057000000000000000003F87FFC2007F80000000000000FFE3FFFF07FF9880000000000B9
:2057200017FFFFFFFA7FE606000000000035FFEFFFFFFFFFEF800000000064E7B6FF7BFFE8
:20574000FEFFC00000000040276F6EEBFFA65FC000000000201F5BFFF56BAA6B600000002B
:2057600000321C1DFFFBFFFF6A0000000000A09006DFFBFFFC0440000000007800000B1773
:205780008500004000000000F8023A00456001016000000020611026D003C00099D0000056
:2057A000000220002B880FC0001BF80000000008000A82FDFA043FF8000000008011A01F1C
:2057C000D9BC843EF800000000A00098FE358B801FFA000000060001A06CEB87E23ED8006E
:2057E00000000E0081DBF16170000A6800000004000040024171E035640000001D0200E398
:20580000C00048200080000000048200088180140002800000001804000912000050001024
:20582000000000100000100000110001040000003A600000000400401BE800000058600099
:20584000100000000017E800000012000001002000001FFA0000001AA80000010502000F14
:20586000FE00000035800000100008003FFC00000066100000840024807FFE000000258062
:205880000000004000007FDF8000002AA0000100410011FDFE8000007A4000000000010196
:2058A000EFFF8000005BC0004200010003FFFF8000005E8001400400000EFFFF8000001CD0
:2058C00080009200000007FFFF000000390000EF9B73B85AFFFF0000003E0001F6DFFBFE5E
:2058E0003AFFFF0000003E0001FF553EC5E5DF390000009D0001FFA049226880000000004D
:205900009C000D9FE8000083099800000046000CBF7000018B40A000000026001BFF680698
:20592000138007FF000000B1001E7FBD800B814DF4000000320077FFEA2003184FFD00005D
:20594000001C003EFFA4001A210FFF0000005F807AFD578245101FFF00000000003D7F9B08
:205960000014028FFF000000098099DE1600400A1FFF0000000000389A560080880FFF00C7
:20598000000000000F74670202220FDF80000000007DA9540020000D91000000000089A91F
:2059A000820011220268000000000094440000000202808000000000469246024864048498
:2059C0000000000000E516B00000400002000000000066E87400A20401200000000000F55C
:2059E0007770004A4000400000000000F481F400001002000000000000FA99F00080400038
:205A0000040000000000FA05E000190800000000000001F801E000000000000000000001A7
:205A2000FA9BE0000414000000000000007803E0010080000000000000007811E000400054
:205A400000000000000000A22140001210000000000000027F7EC000000000000000000062
:205A6000007A5B00000000000000000000007FFE80002450000000000000006DBE00004075
:205A800000000000000000007DFE00002030000000000000007C7C000044000000000000FF
:205AA0000007F87C000000000000000000000FD87C0000244000000000000007B97C000068
:205AC000000000000000000007D8780000001000000000000003FAF8000008000000000062
:205AE000000007F8F00000238800000000000001F8F00000086000000000000002F8F000D1
:205B000000190800000000000000F2F00000005000000000000000FFE00000000000000053
:205B20000000000FFFC0000001440000000000000FFFE8000004500000000000000BFF50AE
:205B40000000200A00000000000003FFC00000020000000000000000E00000000064000013
:205B6000000000000FFF000000000000000000000001FFE80000062400000000000009FFFD
:205B8000140000000000000000000006FD500000000000000000000003FFA00000000000FC
:205BA000000000000007FD800000000000000000000002B680000000000000000000000029
:205BC000400000000000000000000000000000000000000000000000000000000000000085
:205BE0000000000000000000000000000000000000000000000000000000000000000000A5
:205C0000000000000000000000000000000000000000000000000000000000000000000084
:205C2000000000000000000000000000000000000000000000000000000000000000000064
:205C4000000000000000000000000000000000000000000000000000000000000000000044
:205C6000000000000000000000000000000000000000000000000000000000000000000024
:205C8000000000000000000000000000000000000000000000000000000000000000000004
:205CA0000000000000000000000000000000000000000000000000000000000000000000E4
:205CC0000000000000000000000000000000000000000000000000000000000000000000C4
:205CE0000000000000000000000000000000000000000000000000000000000000000000A4
:205D0000000000000000000000000000000000000000000000000000000000000000000083
:205D20000FBFFF1C00000000000000000041FFFFF100000000000000000087FFFFF840008D
:205D40000000000000000281FFFFF810000000000000002835FFFFF4140000000000000057
:205D6000200DDF6F5403000000000000002054FE4FAC020000000000000020030FFEAC40C6
:205D80000000000000000001004FFF14080000000000000000201EAD0000000000000000AD
:205DA0000000001FFF00800000000000000000005DF6000000000000000000000447DEA029
:205DC0000000000000000000001F5E9F0400000000000000000076D4844F00000000000086
:205DE000000090F9C4026780000000000000078FFFD20AFBB48000000000001FF3FFFF07B6
:205E0000FFC9F000000000003FEDFFFF8FFFFBFC000000000015FFFFFFFFFFDFFE0000002E
:205E2000000034FA7BDFBFFE93FD000000000043E59E7EB7F9FE7F00000000000F42F7FED6
:205E4000FFDEA6E400000000008A097FFF6FF7EA10000000000048101FFEEFFF0001000006
:205E6000000000C000006FB441100B8000000003F2038080780000008000000023FA2158DD
:205E800001541028874000000003F8227801FC0021CFA000000000B940111FBF84E0DFC0A1
:205EA0000000000128681278979000FFD00000008005C987C3B06C20928000000000438424
:205EC0001F84381C005280000000000400181A26451426200000000082060E060D9680201F
:205EE000000000000400002120030400000000000049100014000687200440000000088868
:205F000080001400000080000000000B20004000000100000000000029F90000004040005F
:205F20004D400000002BF40080020000001FC00000002FFC0000000080403DF00000007DBF
:205F4000F8000010400800FB780000003A780008000400007FFC0000003DA800000100243B
:205F600001FFFF000000BFD8000040000001F7FD000000DFF0000100000000FFFE00000089
:205F800067A0002008080003FFFF0000006FA0020000420003FF7F0000006F8008000000FE
:205FA0001142FFFF000000B760040000000AC2FFFF8000003FD0019484084EE27FFF40000D
:205FC000003F401A136B7EDE42FFFFC000003F0009AA55FAFFDA7FFF8000003F807C608516
:205FE0002501A87FFF80000019802FF0000020493FFF80000021809A30001103D03FC200A6
:020000040800F2
:2060000000003080D9EC08001786201880000039809A6E12006F0061C10000000F0045A353
:20602000A0441F5A219C4000000FE12A0108052A32210FC00000206084A8A000840241EF90
:20604000E000000580D500000200A101FFE00000436008680800110A25F7C0000001F00080
:20606000520800800211F7F00000080045088000029900F7F00000000190A0000010810033
:20608000FFF00000000188002001521800FFF000000001010120000060007FF80000000113
:2060A00080A800021202007DF0000000019802000006A0003C100000000300A000010008FC
:2060C00000478000000002822100000140000400000000029040000084080024200000006D
:2060E0000208000000000000004000000003800440000209004000000000020010800001B1
:206100000800000000000001C001000020800000000000000000000000000A00000000000B
:206120000000040840001020000000000000000800000004140000000000000001120000B0
:206140000002000000000000000080000001A0000000000000005418000018040000000094
:2061600000000060880000546C00000000000000080000001AB2000000000000000810008B
:2061800000056400000000000005600000005A6900000000000002A048000002D0000000B2
:2061A00000000001580000001E7600000000000001A81800007FF00000000000000460401E
:2061C00000007FFC00000000000000502000005D78000000000000007090000045180000A2
:2061E000000000000050600000020000000000000000729000001440000000000000007D1A
:206200002000000A5000000000000007F9EC000029000000000000001DF6820000628A006E
:20622000000000000017FF50000005A000000000000007FE4000005758000000000000005F
:2062400066080000000000000000000007FE40000080000000000000000BFD900000000073
:2062600000000000000006FD20000000000000000000000AF70000000000000000000000FA
:2062800007F9820000000000000000000001FE000000000000000000000000D58000000028
:2062A0000000000000000000000000000000000000000000000000000000000000000000DE
:2062C0000000000000000000000000000000000000000000000000000000000000000000BE
:2062E00000000000000000000000000000000000000000000000000000000000000000009E
:2063000000000000000000000000000000000000000000000000000000000000000000007D
:2063200000000000000000000000000000000000000000000000000000000000000000005D
:2063400000000000000000000000000000000000000000000000000000000000000000003D
:2063600000000000000000000000000000000000000000000000000000000000000000001D
:206380000000000000000000000000000000000000000000000000000000000000000000FD
:2063A0000000000000000000000000000000000000000000000000000000000000000000DD
:2063C0000000000000000000000000000000000000000000000000000000000000000000BD
:2063E000000000000000000000000000000000000000000000000000000000000FFF80000F
:20640000000000000000000007FFFFFC0000000000000000000BFFFFFE0000000000000074
:20642000000007FDFFFF800000000000000000E0FFFFF8200000000000000001D2FFFFFE15
:2064400028000000000000000E08FFBFF026000000000000001802071792830000000000DD
:20646000000008432DA2A6428000000000000000011F2FCC000000000000000008000EFE6B
:2064800080000000000000000000000BD7800000000000000000000083FA40040000000059
:2064A0000000000004020210000000000000000000284A8A490000000000000001C3FC952A
:2064C000FDA680000000000000050073CE931BC00000000000000F87FBF20A3FC000000059
:2064E0000000003F65FFFA84FFCCF800000000005FAFFFFE0FFFFFFE00000000003E517F94
:20650000FFB7FFFDFB8000000001092A3FFECFFFF7FB0000000001A0D5E52F7FFF47058049
:2065200000000000925169FEDEF9D5FF000000000300003FFFEFFFF8BF80000000470000B9
:2065400077FFEFFFF9FF8000000007900000DA7BE923FFE00000000284030005A82001FF32
:20656000E0000000050082C800E20007FFF0000000000001B001600807FFB00000008400C0
:2065800000443FFF5065BFE00000001020080B7A7E20C27FA00000006000100D8585A806B4
:2065A00013A00000006180022B2A50F9037FE000000040020574385820037FC00000004058
:2065C00000023A081E1E8FFFE0000000900000C0208A843FFFE000000208400020120500B0
:2065E0007FFFF8000000400000002001877FFFF80000030D000080000002FFCBC8000001A2
:20660000A00000000000009D1AD8000005680000000000018FFF280000068100000100009F
:20662000000FEFCC00000C600000004500401FFFA400001D880000000080009FFF8000009A
:206640000AC00000100001083FFF9000000D240000000400003FBF80000006480000000088
:2066600000007C43000000159000000100820040125000000E1000000100000043C0480027
:20668000002A0000000000000045754000001E0000008000000000004000001E00000620B4
:2066A00004212B8410A000001C0000062B4A1BD980002000002C000005D9F7FEE780018044
:2066C0000000A600000860999E8694008000002100000E7C0222304000000000218000BE3D
:2066E000BC0000045000000000380000A7EE00225A1800000000110005F7EF81003E380036
:206700000000000A0003BFF18044DCC000000000010003BFB008052E700000000000001628
:206720009FFED000594500000000000017BFCC000444A3000000000000137FF1000E1055CB
:20674000000000000000339FE0800A000A00000000000059FF54400194578000000000009B
:206760001B5E80400080920000000000000FAE88800401090000000000000BAB03800000C2
:206780000000000000000034A400000000114000000000001540290002040000000000004C
:2067A00000B6940100041008200000000000F49001000004040000000000017760100000DD
:2067C0008040000000000000E1B40000000100400000000002B800880000000000000000E1
:2067E0000003E10150000010020000000000079010000000080000000000000E380220003B
:20680000000080800000000006400280000000000000000000182044C00000000000000074
:20682000000009EE098000000810000000000003FD010000000001400000000043FF9100AB
:2068400000000000200000000007EE82000000001080000000001FA57400000000002000B9
:206860000000007FC38000000000012000000000FEC2A000000008000000000001FF87083E
:2068800000000000200000000000FC864000000000008000000001FF9E00000000000000F8
:2068A00000000001990D00000000008914000000001B1C000000000004A2000000021E1E79
:2068C0000000000000222B800000003F1400000000000160800000007FF80000000000043C
:2068E0000C00000007FFE00000000000000000000001FFF00000000000005940000001FF1D
:206900009800000000000420000000087FE00000000000010A000000000500000000000044
