:020000040800F2
:10000000000002201D5D00085D5D00085D5D0008C8
:100010005D5D00085D5D00085D5D0008000000009A
:100020000000000000000000000000005D5D00080E
:100030005D5D0008000000005D5D00085D5D00087A
:100040005D5D00085D5D00085D5D00085D5D0008A8
:100050005D5D00085D5D00085D5D00085D5D000898
:100060005D5D00085D5D00085D5D00085D5D000888
:100070005D5D00085D5D00085D5D00085D5D000878
:100080005D5D00085D5D00085D5D00085D5D000868
:100090005D5D00085D5D00085D5D00085D5D000858
:1000A0005D5D00085D5D00085D5D0008811A000867
:1000B000BD1A00085D5D00085D5D00085D5D00081B
:1000C0005D5D00085D5D00085D5D00085D5D000828
:1000D0005D5D00085D5D00085D5D00085D5D000818
:1000E0005D5D00085D5D00085D5D00085D5D000808
:1000F0005D5D00085D5D00085D5D00085D5D0008F8
:100100005D5D00085D5D00085D5D00085D5D0008E7
:100110005D5D00085D5D00085D5D00085D5D0008D7
:100120005D5D00085D5D00085D5D0008E91A00087E
:100130005D5D00085D5D00085D5D00085D5D0008B7
:100140005D5D00085D5D00085D5D00085D5D0008A7
:100150005D5D00085D5D00085D5D00085D5D000897
:100160005D5D00085D5D00085D5D00085D5D000887
:100170005D5D00085D5D00085D5D00085D5D000877
:100180005D5D00085D5D000880B500AF0B484FF075
:10019000010102F0A3FF4FF001004FF0010103F055
:1001A00003F841F201104FF0010103F01FF84FF086
:1001B00008004FF0010102F091FF80BD03004000F4
:1001C00080B400AFBD4680BC704700BF80B500AFB3
:1001D00005F0C6FDFFF7D8FFFFF7F2FF01F006FDBF
:1001E00000F004F84FF00003184680BD90B589B0C8
:1001F00004AF01F0CDFC4FF0000300934FF000007E
:100200004FF0000140F21F3240F2572300F056FE3B
:100210004FF0B4004FF02801A24A4FF0000300F065
:10022000A7FF4FF0A1004FF037019F4A4FF00003A6
:1002300000F09EFF4FF0AC004FF046019B4A4FF09C
:10024000000300F095FF40F6B83001F071F94FF06F
:100250000003BB813EE04FF0010001F069F900F0BE
:1002600019FB0346FB81B7F90E30914A82FB03125A
:100270004FEA62114FEAE3728A1A40F21F3101FB22
:1002800002F29B1AFB8100F005FB03463B81B7F9A4
:100290000830884A82FB03124FEAA2114FEAE37248
:1002A0008A1A4FF4167101FB02F29B1A9BB29BB2A1
:1002B00003F1FF339BB23B81FA893B894FF0000089
:1002C00011461A464FF0000300F09AFCBB8903F177
:1002D0000103BB81B7F90C2041F287339A42BADDA2
:1002E00040F6B83001F024F901F052FC4FF0000361
:1002F00000934FF000004FF0000140F21F3240F237
:10030000572300F0DBFD4FF0B4004FF02801654AA1
:100310004FF0000300F02CFF4FF0A1004FF0370129
:10032000614A4FF0000300F023FF4FF0AF004FF0A1
:100330004601614A4FF0000300F01AFF40F6B83062
:1003400001F0F6F84FF00003BB8171E04FF032008E
:1003500001F0EEF800F09EFA0346FB81B7F90E308B
:10036000534A82FB03124FEA62114FEAE3728A1A80
:1003700040F21F3101FB02F29B1AFB8100F08AFA66
:1003800003463B81B7F908304A4A82FB03124FEA21
:10039000A2114FEAE3728A1A4FF4167101FB02F2BE
:1003A0009B1A9BB29BB203F1FF339BB23B8100F0DF
:1003B00071FA0346FB80B7F906303D4A82FB03120F
:1003C0004FEA62114FEAE3728A1A40F21F3101FBD1
:1003D00002F29B1AFB8000F05DFA0346BB80B7F97E
:1003E0000430344A82FB03124FEAA2114FEAE3724F
:1003F0008A1A4FF4167101FB02F29B1A9BB29BB250
:1004000003F1FF339BB2BB80B7F90E10B7F9082098
:10041000B7F90630B7F9040000904FF000000190E2
:100420004FF0000000F06CFCBB8903F10103BB81BD
:10043000B7F90C30632B89DD40F6B83001F078F85D
:1004400001F0A6FB4FF0000300934FF000004FF0C7
:10045000000140F21F3240F2572300F02FFD4FF011
:10046000B4004FF028010F4A4FF0000300F080FE67
:100470004FF0A1004FF037010B4A4FF0000300F09E
:1004800077FE4FF09D004FF046010C4A4FF00003FD
:1004900000F06EFE40F6B83001F04AF84FF000036D
:1004A000BB8177E000600008086000081860000861
:1004B0008DB8400AB5814E1B2460000830600008EA
:1004C0004FF0320001F034F800F0E4F90346FB810C
:1004D000B7F90E30A84A82FB03124FEA62114FEAC5
:1004E000E3728A1A40F21F3101FB02F29B1AFB8170
:1004F00000F0D0F903463B81B7F908309F4A82FBF0
:1005000003124FEAA2114FEAE3728A1A4FF41671EE
:1005100001FB02F29B1A9BB29BB203F1FF339BB229
:100520003B8100F0B7F90346FB80B7F90630944AE7
:1005300082FB03124FEA62114FEAE3728A1A4FF00C
:10054000640101FB02F29B1AFB8000F0A3F9034651
:10055000BB80B7F904308A4A82FB03124FEA62116A
:100560004FEAE3728A1A4FF0640101FB02F29B1A10
:10057000BB80B7F90E00B7F90810B7F90620B7F934
:1005800004304FF00004009400F098FCBB8903F1A4
:100590000103BB81B7F90C30632B91DD40F6B83015
:1005A00000F0C6FF01F0F4FA4FF0000300934FF0A3
:1005B00000004FF0000140F21F3240F2572300F0DC
:1005C0007DFC4FF0B4004FF028016E4A4FF000035D
:1005D00000F0CEFD4FF0A1004FF037016A4A4FF016
:1005E000000300F0C5FD4FF0A5004FF04601674A3B
:1005F0004FF0000300F0BCFD40F6B83000F098FF6B
:100600004FF00003BB8154E04FF0140000F090FF66
:1006100000F040F90346FB81B7F90E30564A82FBE1
:1006200003124FEA62114FEAE3728A1A40F21F3155
:1006300001FB02F29B1AFB8100F02CF903463B817F
:10064000B7F908304D4A82FB03124FEAA2114FEA74
:10065000E3728A1A4FF4167101FB02F29B1A9BB2E5
:100660009BB203F1FF339BB23B8100F013F90346C9
:10067000FB80B7F90620464B83FB02134FEA631158
:100680004FEAE273C91A0B464FEA83035B184FEA3D
:100690000313D31AFB80F9893A89FB88084611466F
:1006A0001A464FF0000300F079FCBB8903F1010307
:1006B000BB81B7F90C30C72BA6DD40F6B83000F08F
:1006C00037FF01F065FA4FF0000300934FF0000090
:1006D0004FF0000140F21F3240F2572300F0EEFBD2
:1006E0004FF0B4004FF02801264A4FF0000300F00D
:1006F0003FFD4FF0A1004FF03701234A4FF00003B8
:1007000000F036FD4FF0A5004FF04601214A4FF0B2
:10071000000300F02DFD40F6B83000F009FF4FF067
:100720006403FB814FF082033B814FF000037B8128
:100730004FF00003BB8151E04FF0960000F0F8FE4F
:10074000B7F90A30002B29D04FF000037B81B7F9AD
:100750000E20B7F908304FF00C0100910E490191BD
:100760004FF0000102914FF0000011461A464FF081
:100770000F0300F0F7F828E08DB8400AB5814E1B52
:100780001F85EB5100600008086000084060000809
:10079000676666664C600008D05F00084FF0010392
:1007A0007B81B7F90E20B7F908304FF00C010091AA
:1007B000314901914FF0000102914FF000001146C4
:1007C0001A464FF00F0300F0CDF8FB8903F1020346
:1007D0009BB2FB81BB8903F10103BB81B7F90C30EC
:1007E000632BA9DD40F6B83000F0A2FE01F0D0F98D
:1007F0004FF0000300934FF000004FF0000140F273
:100800001F3240F2572300F059FB4FF0B4004FF075
:1008100028011A4A4FF0000300F0AAFC4FF0A10093
:100820004FF03701164A4FF0000300F0A1FC4FF0E3
:1008300073004FF04B01134A4FF0000300F098FC97
:100840004FF09C004FF05A010F4A4FF0000300F0A8
:100850008FFC4FF08D004FF078010C4A4FF00003F1
:1008600000F086FC4FF0A5004FF08201084A4FF0DF
:10087000000300F07DFCFEE7E85F00080060000870
:100880000860000858600008786000088860000868
:100890009C60000880B400AF0E4B1B680E4A02FB40
:1008A00003F303F5405303F139030A4A1360094B7C
:1008B0001B68002B03DA4FF6FF729A1813464FEAB3
:1008C00023434FEA43434FEA53431846BD4680BC97
:1008D000704700BF400000206D4EC64180B483B019
:1008E00000AF78607A68034B1A6007F10C07BD46C9
:1008F00080BC70474000002080B485B000AF7860B5
:100900004FF00003FB6007E0FB6803F10103FB60AD
:100910007B6803F101037B607B681B78002BF3D1BC
:10092000FB689BB2184607F11407BD4680BC7047B0
:1009300080B483B000AF786039603B681A887B6808
:100940001A803B685A887B685A803B689A887B6823
:100950009A803B68DA887B68DA8007F10C07BD462D
:1009600080BC704780B493B000AFF86079813A8161
:10097000FB80FB68002B0DD0FB681B889AB27B893B
:10098000D3189BB27B81FB685B889AB23B89D318F2
:100990009BB23B81B7F906304FEAD303FB63FB6B95
:1009A0004FEAC302B7F906309A4203D2FB6B03F158
:1009B0000103FB63B7F90A304FEAD3037B62B7F94F
:1009C0000A207B6A4FEAC303D31A3B62FB68002B01
:1009D00012D1B7F90A20B7F90630D21840F21F3306
:1009E0009A4205DD7B89C3F54873A7F840301BE0C8
:1009F000FB88A7F8403017E0B7F90A20B7F90630AE
:100A0000D218B7F90A10FB689B881BB2CB189A4220
:100A100007DBFB689B889AB27B89D31AA7F8403022
:100A200002E0FB88A7F840304FF00003A7F84630FB
:100A3000D6E0B7F84620B7F90830D21840F257236D
:100A40009A4200F3D580B7F90A304FEAD302B7F9DA
:100A50000810B7F84630CB184FF0660101FB03F3DE
:100A6000D318FB61654BBB61BA69FB69D318BB61E5
:100A70003A6A13464FEA83739B1A4FEA83031A4676
:100A8000BB6903F188734FEA4313D31803F11C03C6
:100A90007B63BB6903F188734FEA431303F11C03C3
:100AA0003B63B7F84630FA6B02FB03F37A6DD31859
:100AB000BB62FB88A7F844304FF00003A7F8423030
:100AC0004FF00003A7F844307DE07B6BDBB223F0EE
:100AD0001F03FB75B7F84230002B14BF002301231E
:100AE000DBB2B7F8422002F10102A7F84220002B46
:100AF00007D0BB6A1B7887F83B30BB6A03F1010360
:100B0000BB62B7F8423003F00703A7F8423097F80A
:100B10003B305BB2002B03DA4FF00103FB6202E0D3
:100B20004FF00003FB62B7F85830032B2DD801A219
:100B300052F823F0450B00084F0B0008630B000828
:100B4000770B0008FB6ADAB27B6B1A701DE07B6BD7
:100B50001A78FB6ADBB282EA0303DAB27B6B1A70A3
:100B600013E07B6B1A78FB6ADBB202EA0303DAB2AA
:100B70007B6B1A7009E07B6B1A78FB6ADBB242EA86
:100B80000303DAB27B6B1A7000BF7B6BA3F1040323
:100B90007B637B6B03F0E0033B61FA7D3B699A4228
:100BA00005D03B6B03F120037B637B6B3B6397F8C2
:100BB0003B304FEA430387F83B30B7F8443003F14A
:100BC0000103A7F84430B7F84420B7F840309A4200
:100BD000FFF47BAFB7F8463003F10103A7F84630C6
:100BE000B7F84620B7F950309A42FFF622AF00E03E
:100BF00000BF07F14C07BD4680BC70476000002075
:100C0000B0B487B000AFF86079813A81FB807A890F
:100C100040F21F339A4268D83A8940F257239A42E9
:100C200065D87B894FEAD303FB82FB8A4FEAC30373
:100C30009BB27A89D31ABB82BB8A4FF0800242FAF8
:100C400003F3FB74FB88012B1CD0022B33D0002B49
:100C50004ED13889FB8A3C89FA8A28494FF06605CB
:100C600005FB04F4A2188A181178FA7C41EA020202
:100C7000D2B222494FF0660404FB00F0C318CB182F
:100C80001A7035E03889FB8A3C89FA8A1B494FF093
:100C9000660505FB04F4A2188A181178FA7C81EA2B
:100CA0000202D2B215494FF0660404FB00F0C318EB
:100CB000CB181A701CE03889FB8A3C89FA8A0F49E4
:100CC0004FF0660505FB04F4A2188A181178FA7C27
:100CD00001EA0202D2B209494FF0660404FB00F0B7
:100CE000C318CB181A7000BF02E000BF00E000BFBD
:100CF00007F11C07BD46B0BC704700BF6000002074
:100D000080B58AB000AFF86079813A81FB80FA88BB
:100D10007B89D31A9BB2FB843A8E3B89D31A9BB250
:100D2000BB84B7F92630002B04DAFB8CC3F1000337
:100D30009BB2FB84B7F92430002B04DABB8CC3F1DF
:100D400000039BB2BB844FF00103FB83B7F906207D
:100D5000B7F90A309A4202DA4FF6FF73FB834FF07D
:100D60000103BB83B7F93020B7F908309A4202DAA1
:100D70004FF6FF73BB837B897B833B893B83B7F94A
:100D80002620B7F924309A424ADD798B3A8BBB8E04
:100D9000F868FFF735FFBB8C4FEA43039AB2FB8C30
:100DA000D31A9BB23B84B7F92420B7F92630D31A63
:100DB0009BB24FEA43039BB2FB82BB8C4FEA4303D7
:100DC0009BB2BB824FF000037B8422E0B7F9203056
:100DD000002B0ADB3A8BBB8BD3189BB23B833A8C3C
:100DE000FB8AD3189BB23B8404E03A8CBB8AD318AD
:100DF0009BB23B847A8BFB8BD3189BB27B83798B22
:100E00003A8BBB8EF868FFF7FBFE7B8C03F1010386
:100E10007B84B7F92220B7F926309A42D6DB49E025
:100E2000798B3A8BBB8EF868FFF7EAFEFB8C4FEAB2
:100E300043039AB2BB8CD31A9BB23B84B7F92620EA
:100E4000B7F92430D31A9BB24FEA43039BB2FB821B
:100E5000FB8C4FEA43039BB2BB824FF000037B84C1
:100E600022E0B7F92030002B0ADB7A8BFB8BD318FA
:100E70009BB27B833A8CFB8AD3189BB23B8404E001
:100E80003A8CBB8AD3189BB23B843A8BBB8BD3186A
:100E90009BB23B83798B3A8BBB8EF868FFF7B0FE31
:100EA0007B8C03F101037B84B7F92220B7F924304E
:100EB0009A42D6DB07F12807BD4680BD80B584B0D5
:100EC00002AFF880B9807A803B80B7F90610B7F995
:100ED0000420B7F90230B7F904000090388A019075
:100EE0004FF00000FFF70CFFB7F90610B7F900202C
:100EF000B7F90230B7F900000090388A01904FF03E
:100F00000000FFF7FDFEB7F90610B7F90420B7F9A6
:100F10000630B7F900000090388A01904FF00000C9
:100F2000FFF7EEFEB7F90210B7F90420B7F9023067
:100F3000B7F900000090388A01904FF00000FFF7E9
:100F4000DFFE07F10807BD4680BD00BF90B585B044
:100F500002AF78600B467B807B6818887B68598875
:100F60007B681B889AB27B689B889BB2D3189BB224
:100F70009AB27B685B889CB27B68DB889BB2E31883
:100F80009BB29BB200B209B212B21BB27C88009431
:100F9000FFF794FF07F10C07BD4690BD90B587B0F1
:100FA00000AFF880B9807A803B804FF00003FB826D
:100FB00034E07C88FB8A184600F008FA034603FBFD
:100FC00004F33B617C88FB8A184600F0DBF903469A
:100FD00003FB04F3FB603B69154A82FB03024FEA03
:100FE00022324FEAE373D31A9AB2FB88D31899B22C
:100FF000FB680F4A82FB03024FEA22324FEAE37397
:10100000D31A9AB2BB88D3189AB23B884FF000002B
:10101000FFF7F6FDFB8A03F10103FB82FA8A40F237
:1010200067139A42C5D907F11C07BD4690BD00BFA2
:10103000AD8BDB6880B58CB004AFF860B960FA8026
:10104000BB80B868FFF758FC03461A464FEA4202D5
:10105000D3184FEA43037B83FB88102B16D0202B39
:1010600031D17A8BFB689B881BB29A4228DAFB68E5
:101070001B889AB2FB689B8899B27B8BCB1A9BB278
:10108000D3189BB29AB2FB681A801CE07A8BFB687B
:101090009B881BB29A4215DAFB681B889AB2FB68E0
:1010A0009B8819B27B8BCB1A4FEAD371CB184FEACE
:1010B00063039BB2D3189BB29AB2FB681A8002E01A
:1010C00000BF00E000BFB868FFF716FC03467B8353
:1010D0004FF00103BB834FF00003FB833CE0BB6890
:1010E0001B787B76BB6803F10103BB607B7E1F2B03
:1010F0002ED97B7E9BB21A464FEAC202D3189BB20E
:10110000A3F59073FB82FA8A184BD3183B61BB8B13
:101110001BB24FF0090200923A690192BA8802921A
:10112000F86819464FF000024FF00603FFF71AFC6B
:10113000BB8B03F10603BB83BA8BFB681B8819B218
:10114000FB689B881BB2CB18A3F106039A4208DA0E
:10115000FB8B03F10103FB83FA8B7B8B9A42BED39B
:1011600000E000BF07F12007BD4680BDA860000871
:1011700080B58CB004AFBA600246FA810A46BA81E3
:10118000FB80B868FFF7B8FB03467B83FB89BB8312
:101190004FF00003FB8337E0BB681B787B76BB68AE
:1011A00003F10103BB607B7E1F2B29D97B7E9BB2A1
:1011B0001A464FEAC202D3189BB2A3F59073FB8282
:1011C000FA8A164BD3183B61BB8B1AB2B7F90C30B5
:1011D0004FF00901009139690191F98802914FF0AE
:1011E000000011461A464FF00603FFF7BBFBBB8B0E
:1011F00003F10603BB83BA8B40F21F339A4208D82F
:10120000FB8B03F10103FB83FA8B7B8B9A42C3D3E5
:1012100000E000BF07F12007BD4680BDA8600008C0
:1012200090B58DB004AF78607B6803F1020307F1DD
:10123000140210461946FFF77BFB7B681B8803F0FE
:101240000103DBB2002B00F08F807B6803F1020307
:1012500007F10C0210461946FFF76AFBFB899BB2A7
:1012600003F10B039BB29BB27B82BB899BB203F160
:1012700002039BB29BB2BB81FB899BB203F10103CA
:101280009BB29BB2FB817B8B9BB203F10A039BB2A7
:101290009BB27B834FF00003FB8323E0B98AFB8A78
:1012A0009AB2FB8BD3189BB29AB2BB8A98B23B8B93
:1012B0009BB2C3189BB29BB2F88A84B2F88B2018F9
:1012C00080B280B209B212B21BB200B200904FF0ED
:1012D000000001904FF00000FFF712FDFB8B03F1BF
:1012E0000103FB83B7F91E300A2BD7DD7B681B880F
:1012F00003F00303002B20D03B8B9BB2A3F1090327
:101300009BB29BB207F114021BB24FF0090100918E
:101310001B4901914FF000010291104619464FF010
:1013200001024FF00A03FFF71DFB3B8A9BB2A3F1BA
:101330000B039BB29BB23B8206E03B8A9BB203F15C
:10134000FF339BB29BB23B827B68DA687B681B8869
:1013500003F030039BB207F10C01084611461A4610
:101360004FF00103FFF766FE07F1140318464FF034
:101370000001FFF7EBFD07F12407BD4690BD00BF5C
:101380000864000880B485B000AF0346FB80FB888A
:101390000C4AA2FB0312991A4FEA510152184FEA64
:1013A000122240F2671101FB02F29B1AFB81FA89BB
:1013B000054B33F812301BB2184607F11407BD462F
:1013C00080BC704769621A6D2064000880B485B0E3
:1013D00000AF0346FB80FB8803F15A030D4A82FBF2
:1013E0000312D2184FEA22214FEAE3728A1A40F21E
:1013F000671101FB02F29A1A1346FB81FA89064B28
:1014000033F812301BB2184607F11407BD4680BCF2
:10141000704700BF35318DB62064000880B483B0BA
:1014200000AF03463960FB7197F90730002B0DDAE6
:101430000E49FB7903F00F03A3F104033A68D2B21B
:101440004FEA0212D2B2CB181A760AE0084997F98D
:1014500007303A68D2B24FEA0212D2B2CB1883F800
:10146000002307F10C07BD4680BC704700ED00E08B
:1014700000E100E080B582B000AF78607A686FF07C
:101480007F439A4202D94FF0010316E00D4B7A6870
:1014900022F07F4202F1FF325A604FF0FF304FF0EE
:1014A0000F01FFF7BBFF074B4FF000029A60054B9F
:1014B0004FF007021A604FF00003184607F10807C3
:1014C000BD4680BD10E000E080B500AF0A4B1A6851
:1014D0000A4BA3FB02134FEA931303F1FF331846A1
:1014E000FFF7C8FF0346002B02D04FF0000301E0D6
:1014F0004FF00103184680BD14000020D34D621048
:1015000080B400AF094B4FF000021A6005E0074BB2
:101510001B6803F10102054B1A60044B1A6840F284
:10152000E7339A42F3D9BD4680BC70474C00002097
:10153000B0B483B000AF78604FF000040AE04FF021
:10154000000501E005F1010544F61F639D42F9DD48
:1015500004F1010422467B689A42F0D307F10C079C
:10156000BD46B0BC704700BF80B400AF094B1B68DC
:1015700003F10102074B1A60074B1B68002B05D0D3
:10158000054B1B6803F1FF32034B1A60BD4680BC5C
:10159000704700BF480000204400002080B58EB096
:1015A00000AF07F114034FF000021A6003F10403C7
:1015B0004FF000021A6003F104034FF000021A60BA
:1015C00003F104033B464FF000021A6003F10403E9
:1015D0004FF000021A6003F104034FF000021A609A
:1015E00003F104034FF000021A6003F104034FF00B
:1015F00000021A6003F104034FF000037B634FF015
:1016000000037B864FF000033B864FF00003FB8511
:101610004FF481737B624FF0020387F828304FF05C
:10162000020387F829304FF0000387F82A304FF083
:10163000010387F82B3007F124039C48194600F07A
:1016400081FC9A484FF008014FF0010200F00AFEB9
:1016500096484FF001014FF0010200F003FE944B59
:101660001A68944BA3FB02134FEAD3337B63904B6E
:101670001A68914BA3FB02134FEA53437B868C4BB2
:101680001B684FEA53128D4BA3FB02134FEAD3138F
:101690003B8607F114038A48194602F04BFD4FF0D0
:1016A0000003BB824FF00003FB827B6BBB614FF0FA
:1016B0000003BB834FF00003BB7707F1140380489E
:1016C000194602F037FD3B46184603F003F94FF088
:1016D00070033B807B8EBB604FF001037B804FF03B
:1016E0000103BB804FF00203BB814FF00203FB817B
:1016F0004FF000033B824FF000037B823B46704873
:10170000194602F0C3FE4FF070033B803B8EBB6076
:101710003B466B48194602F03DFF69484FF008010F
:1017200003F01AFA66484FF0080103F033FA6448F0
:101730004FF0010102F032FE61484FF0010103F069
:101740008FFE5F484FF0800104F0E8F85C484FF0EE
:10175000200104F0ABF84FF080404FF0050104F099
:10176000C1F84FF080404FF0000104F081F840F2E2
:1017700071237B634FF002033B864FF01803FB8518
:1017800007F114034FF08040194602F0D3FC4FF0EC
:101790000003BB824FF00003FB827B6BBB614FF009
:1017A0000003BB834FF00003BB7707F114034FF036
:1017B0008040194602F0BEFC3B46184603F08AF80A
:1017C0004FF070033B804FF001037B804FF0040328
:1017D000BB803B8EBB604FF00203BB814FF0080320
:1017E000FB814FF000033B824FF000037B823B46BE
:1017F0004FF08040194602F0CDFE4FF020033B80B1
:10180000FB8DBB603B464FF08040194602F05AFF0B
:101810004FF080404FF0010103F022FE4FF01C0317
:1018200087F820304FF0010387F821304FF0000394
:1018300087F822304FF0010387F8233007F12003A7
:10184000184600F00DFA4FF080404FF008014FF0BD
:10185000010203F06DFE4FF01B0387F820304FF0BC
:10186000010387F821304FF0000387F822304FF052
:10187000010387F8233007F12003184600F0F0F940
:101880000F484FF004014FF0010203F051FE4FF0FA
:1018900080404FF0010102F0D9FD09484FF00101ED
:1018A00002F0D4FD07F13807BD4680BD00000240BC
:1018B00014000020E9699CEE83DE1B43DF4ED30554
:1018C0000000014080B598B000AF4FF020037B606E
:1018D0004FF002033B724FF002037B724FF00003A4
:1018E000BB7207F104036048194600F02BFB5E4809
:1018F0004FF005014FF0050200F0B4FC5B4801F029
:1019000093FE5A484FF0000102F068F8584800F082
:10191000FFFC07F10C03184600F030FE554B3B610D
:10192000554B7B614FF04003BB614FF06603FB6199
:101930004FF000033B624FF480637B624FF0000383
:10194000BB624FF00003FB624FF000033B634FF4B8
:1019500000337B634FF0C063FB604FF00003BB6359
:101960004FF000033B644FF000037B6407F10C036E
:101970003F48194600F0A6FD07F14803184601F05C
:10198000DDFF4FF44043A7F848304FF48273A7F8C7
:101990004A304FF00003A7F84C304FF00003A7F88F
:1019A0004E304FF00103A7F850304FF40073A7F802
:1019B00052304FF00003A7F854304FF00003A7F85F
:1019C00056304FF00703A7F8583007F1480327486F
:1019D000194601F069FE25484FF0000102F04EF96A
:1019E0004FF03B0387F85C304FF0000387F85D3021
:1019F0004FF0010387F85E304FF0010387F85F3046
:101A000007F15C03184600F02BF9194B184A1268CD
:101A100022F001021A60164B4FF066025A60144B16
:101A2000154ADA6011484FF002014FF0010202F04E
:101A30007FF90E484FF0010101F0D0FF0C484FF044
:101A400010014FF0010200F057FF094B084A1268DD
:101A500042F001021A6009484FF4805100F0AEFBD9
:101A600007F16007BD4680BD000402400030014020
:101A7000586402400C30014060000020000C02401D
:101A800080B400AF0A4B1B68002B05D0094B094AF4
:101A9000126842F001021A60074B074A128A92B29A
:101AA00022F0040292B21A82BD4680BC704700BF89
:101AB00074EF0020586402400000014080B400AF81
:101AC000084B4FF001021A604FF080434FF0804204
:101AD000128A92B222F0080292B21A82BD4680BCEB
:101AE000704700BF74EF002080B400AF224B4FF06E
:101AF00000629A60214B214A126822F001021A60AA
:101B00001E4B4FF066025A601D4B1B6803F1010229
:101B10001B4B1A601A4B1B68012B29D1184B4FF035
:101B200000021A60174B1B889BB203F101039AB2A3
:101B3000144B1A80134B1B889BB2B3F5167F11D13F
:101B4000114B4FF000021A600E4B4FF000021A804A
:101B50000C4B1B889BB21A46094B1A60074B0B4A69
:101B6000DA6005E0054B054AD26802F16602DA60E8
:101B7000BD4680BC704700BF00640240586402400C
:101B800078EF002070EF002074EF0020600000204C
:101B900080B483B000AF4FF00003BB801AE04FF079
:101BA0000003FB800FE0B988FB880F4A4FF0660006
:101BB00000FB01F1CB18D3184FF000021A70FB881C
:101BC00003F10103FB80FB88652BECD9BB8803F193
:101BD0000103BB80BA8840F257239A42DFD907F14C
:101BE0000C07BD4680BC70476000002080B582B005
:101BF00000AF4FF470433B604FF001033B714FF077
:101C000003037B714FF00003BB714FF00003FB71C6
:101C10003B460948194600F095F907484FF4004142
:101C200000F0CCFAFFF74EFEFFF7B8FCFFF7B0FF6D
:101C300007F10807BD4680BD000C024080B483B0A8
:101C400000AF7860054A7B6843F0BE6343F420230D
:101C5000D36007F10C07BD4680BC704700ED00E083
:101C600080B485B000AF78604FF00003FB734FF095
:101C70000003BB734FF00F037B737B68DB78002B93
:101C80003ED02B4BDB686FEA030303F4E0634FEABB
:101C90001323FB73FB7BC3F10403BB737A7BFB7BD6
:101CA00042FA03F37B737B685B781A46BB7B02FACC
:101CB00003F3FB737B689A787B7B02EA0303DAB257
:101CC000FB7B42EA0303FB73FB7B4FEA0313FB73CB
:101CD000184A7B681B78D318FA7B83F80023154BCE
:101CE0007A6812784FEA5212D2B27968097801F014
:101CF0001F014FF0010000FA01F143F8221011E03A
:101D00000C4B7A6812784FEA5212D2B2796809788D
:101D100001F01F014FF0010000FA01F102F1200271
:101D200043F8221007F11407BD4680BC704700BF7E
:101D300000ED00E000E100E080B483B000AF786027
:101D40003960074A3B6823F0604323F07F037968DA
:101D50000B43936007F10C07BD4680BC704700BF82
:101D600000ED00E080B483B000AF02460B46FA718C
:101D7000BB71BB79002B07D00A4B0A4A1169FA796B
:101D800041EA02021A6108E0064B064A1169FA7933
:101D90006FEA020201EA02021A6107F10C07BD466E
:101DA00080BC704700ED00E080B483B000AF786085
:101DB0007B68042B06D1094B084A126842F00402E2
:101DC0001A6005E0054B054A126822F004021A6009
:101DD00007F10C07BD4680BC704700BF10E000E073
:101DE00080B582B000AF78607A684D4B9A420CD1D2
:101DF0004FF001004FF0010101F01AFA4FF001001D
:101E00004FF0000101F014FA86E07A68454B9A42DF
:101E10000CD14FF002004FF0010101F009FA4FF030
:101E200002004FF0000101F003FA75E07A683E4BC2
:101E30009A420CD14FF004004FF0010101F0F8F983
:101E40004FF004004FF0000101F0F2F964E07A680D
:101E5000364B9A420CD14FF008004FF0010101F0CF
:101E6000E7F94FF008004FF0000101F0E1F953E00D
:101E70007A682F4B9A420CD14FF010004FF00101BD
:101E800001F0D6F94FF010004FF0000101F0D0F949
:101E900042E07A68274B9A420CD14FF020004FF075
:101EA000010101F0C5F94FF020004FF0000101F0F1
:101EB000BFF931E07A68204B9A420CD14FF04000D4
:101EC0004FF0010101F0B4F94FF040004FF0000174
:101ED00001F0AEF920E07A68184B9A420CD14FF02D
:101EE00080004FF0010101F0A3F94FF080004FF0A6
:101EF000000101F09DF90FE07A68114B9A420BD175
:101F00004FF480704FF0010101F092F94FF48070AE
:101F10004FF0000101F08CF907F10807BD4680BDC4
:101F2000000002400004024000080240000C024091
:101F3000001002400014024000180240001C024041
:101F40000020024080B487B000AF786039604FF065
:101F500000037B614FF000033B614FF00003FB6027
:101F60004FF000037B6187E07B694FF0010202FACA
:101F700003F33B613B681A683B6902EA0303FB60B9
:101F8000FA683B699A4273D17B681A687B694FEAA9
:101F900043034FF0030101FA03F36FEA03031A400E
:101FA0007B681A607B681A683B681B7919467B69F5
:101FB0004FEA430301FA03F31A437B681A603B6854
:101FC0001B79012B03D03B681B79022B34D17B6832
:101FD0009A687B694FEA43034FF0030101FA03F368
:101FE0006FEA03031A407B689A607B689A683B68D3
:101FF0005B7919467B694FEA430301FA03F31A43FD
:102000007B689A607B685A687B699BB24FF00101DC
:1020100001FA03F36FEA03031A407B685A607B6896
:102020005A683B689B7919467B699BB201FA03F3B6
:102030009BB21A437B685A607B68DA687B699BB203
:102040004FEA43034FF0030101FA03F36FEA03037E
:102050001A407B68DA607B68DA683B68DB7919468E
:102060007B694FEA430301FA03F31A437B68DA60A2
:102070007B6903F101037B617B690F2B7FF674AFF2
:1020800007F11C07BD4680BC704700BF80B483B019
:1020900000AF78607B684FF6FF721A607B684FF084
:1020A00000021A717B684FF000025A717B684FF092
:1020B00000029A717B684FF00002DA7107F10C0799
:1020C000BD4680BC704700BF80B485B000AF78606B
:1020D0000B467B804FF48033FB607A88FB6842EAD2
:1020E0000303FB60FA687B68DA617A887B68DA61EF
:1020F000FA687B68DA617B68DB69FB607B68DB69B7
:10210000FB6007F11407BD4680BC704780B485B002
:1021100000AF78600B467B804FF00003FB737B6859
:102120001A697B8802EA0303002B03D04FF00103F6
:10213000FB7302E04FF00003FB73FB7B184607F1D3
:102140001407BD4680BC704780B483B000AF786090
:102150007B681B699BB2184607F10C07BD4680BC23
:10216000704700BF80B485B000AF78600B467B80BD
:102170004FF00003FB737B685A697B8802EA030314
:10218000002B03D04FF00103FB7302E04FF000037C
:10219000FB73FB7B184607F11407BD4680BC7047F4
:1021A00080B483B000AF78607B685B699BB21846EF
:1021B00007F10C07BD4680BC704700BF80B483B0F8
:1021C00000AF78600B467B807B687A881A8307F1C2
:1021D0000C07BD4680BC704780B483B000AF786008
:1021E0000B467B807B687A885A8307F10C07BD46D3
:1021F00080BC704780B483B000AF786013460A4655
:102200007A807B707B78002B03D07B687A881A8376
:1022100002E07B687A885A8307F10C07BD4680BCD0
:10222000704700BF80B483B000AF78600B467B80FE
:102230007A887B685A6107F10C07BD4680BC7047FD
:1022400080B483B000AF78600B467B807B685A69AE
:102250007B885A407B685A6107F10C07BD4680BCF9
:10226000704700BF80B485B000AF786013460A465F
:102270007A807B704FF00003FB604FF00003BB607F
:102280007A787B8803F007034FEA830302FA03F3AB
:10229000FB607B884FEAD3039BB21A467B884FEAE8
:1022A000D3039BB219467B6801F1080153F8211052
:1022B0007B8803F007034FEA83034FF00F0000FA17
:1022C00003F36FEA030319407B6802F1080243F845
:1022D00022107B884FEAD3039BB21A467B6802F137
:1022E000080253F82220FB6842EA0303BB607B88A4
:1022F0004FEAD3039BB21A467B6802F10802B96821
:1023000043F8221007F11407BD4680BC704700BF98
:1023100080B483B000AF78607B681B6823F0010253
:102320007B681A607B684FF000021A607B684FF090
:1023300000025A607B684FF000029A607B684FF0A1
:102340000002DA607B684FF000021A617B684FF090
:1023500021025A617A68464B9A4204D1454B4FF0AC
:102360003D029A607FE07A68434B9A4204D1414B28
:102370004FF474629A6076E07A68404B9A4204D1D6
:102380003C4B4FF474129A606DE07A683C4B9A4271
:1023900004D1384B4FF074629A6064E07A68394B2C
:1023A0009A4203D1334B384ADA605CE07A68374BA3
:1023B0009A4203D12F4B364ADA6054E07A68354BA3
:1023C0009A4203D12B4B344ADA604CE07A68334BA3
:1023D0009A4204D1274B4FF03D52DA6043E07A68CD
:1023E0002F4B9A4204D12F4B4FF03D029A603AE0B6
:1023F0007A682D4B9A4204D12A4B4FF474629A604A
:1024000031E07A68294B9A4204D1264B4FF474127A
:102410009A6028E07A68264B9A4204D1214B4FF00B
:1024200074629A601FE07A68224B9A4203D11D4B76
:10243000154ADA6017E07A681F4B9A4203D1194BAC
:10244000134ADA600FE07A681C4B9A4203D1154BAD
:10245000114ADA6007E07A68194B9A4203D1114BAE
:102460004FF03D52DA6007F10C07BD4680BC704763
:10247000106002400060024028600240406002405C
:1024800058600240706002403D00002088600240B9
:10249000400F0020A060024000003D20B8600240D4
:1024A000106402400064024028640240406402401C
:1024B000586402407064024088640240A064024094
:1024C000B864024080B485B000AF786039604FF0E6
:1024D0000003FB607B681B68FB60FA68264B02EA1E
:1024E0000303FB603B681A683B68DB681A433B6880
:1024F0005B691A433B689B691A433B68DB691A4373
:102500003B681B6A1A433B685B6A1A433B689B6AD9
:102510001A433B685B6B1A433B689B6B42EA0303BD
:10252000FA6842EA0303FB607B68FA681A607B681A
:102530005B69FB60FB6823F00703FB603B68DA6ABA
:102540003B681B6B42EA0303FA6842EA0303FB6041
:102550007B68FA685A613B681A697B685A603B6815
:102560005A687B689A603B689A687B68DA6007F112
:102570001407BD4680BC70473F801CF080B483B018
:1025800000AF78607B684FF000021A607B684FF004
:1025900000025A607B684FF000029A607B684FF03F
:1025A0000002DA607B684FF000021A617B684FF02E
:1025B00000025A617B684FF000029A617B684FF01D
:1025C0000002DA617B684FF000021A627B684FF00C
:1025D00000025A627B684FF000029A627B684FF0FB
:1025E0000002DA627B684FF000021A637B684FF0EA
:1025F00000025A637B684FF000029A6307F10C07F0
:10260000BD4680BC704700BF80B483B000AF786027
:102610000B46FB70FB78002B06D07B681B6843F0F1
:1026200001027B681A6005E07B681B6823F00102E9
:102630007B681A6007F10C07BD4680BC704700BF7D
:1026400080B483B000AF786039603B68002B06D05F
:102650007B681B6843F400427B681A6005E07B6876
:102660001B6823F400427B681A6007F10C07BD4623
:1026700080BC704780B483B000AF786039603B683D
:10268000002B06D07B681B6843F020027B681A6031
:1026900005E07B681B6823F020027B681A6007F165
:1026A0000C07BD4680BC704780B483B000AF786033
:1026B0000B467B807A887B685A6007F10C07BD4621
:1026C00080BC704780B483B000AF78607B685B6883
:1026D0009BB2184607F10C07BD4680BC704700BF8F
:1026E00080B485B000AFF860B9607A607B68002B79
:1026F00006D0FB681B6843F40022FB681A6005E003
:10270000FB681B6823F40022FB681A60FB68BA6848
:102710001A6107F11407BD4680BC704780B483B0CE
:1027200000AF78600B46FB70FB78002B06D07B680F
:102730001B6843F480227B681A6005E07B681B6895
:1027400023F480227B681A6007F10C07BD4680BC29
:10275000704700BF80B485B000AFF860B9607A60A0
:102760007B68002B03D0FB68BA681A6102E0FB6843
:10277000BA68DA6007F11407BD4680BC704700BF35
:1027800080B485B000AF78604FF00003FB607B68D9
:102790001B6803F40023002B03D04FF00103FB6000
:1027A00002E04FF00003FB60FB68184607F11407D6
:1027B000BD4680BC704700BF80B485B000AF786074
:1027C0004FF00003FB737B681B6803F00103DBB26F
:1027D000002B03D04FF00103FB7302E04FF0000326
:1027E000FB73FB7B184607F11407BD4680BC70479E
:1027F00080B485B000AF78604FF00003FB607B6869
:102800005B6903F03803FB60FB68184607F11407A7
:10281000BD4680BC704700BF80B487B000AF786011
:1028200039604FF00003FB754FF00003FB607A68DE
:10283000164B9A4202D8164B3B6101E0154B3B61A7
:102840003B6803F00053002B03D03B695B68FB60DF
:1028500002E03B691B68FB60FA680F4B02EA030366
:10286000FB60FA683B6802EA0303002B03D04FF0D9
:102870000103FB7502E04FF00003FB75FB7D18467A
:1028800007F11C07BD4680BC704700BF0F640240C3
:1028900000600240006402407D0F7D0F80B485B06F
:1028A00000AF786039607A680F4B9A4202D80F4BBC
:1028B000FB6001E00E4BFB603B6803F00053002B14
:1028C00006D03A680B4B02EA0303FA68D36005E0CE
:1028D0003A68084B02EA0303FA68936007F11407A9
:1028E000BD4680BC704700BF0F64024000600240DC
:1028F000006402407D0F7D0F80B485B000AFF860AA
:10290000B9601346FB71BB6803F08003002B0FD046
:10291000FB79002B06D0FB685B6943F08002FB6803
:102920005A6105E0FB685B6923F08002FB685A612D
:10293000BB68802B15D0FB79002B08D0FB681A6888
:10294000BB6803F01E031A43FB681A6009E0FB68CA
:102950001A68BB6803F01E036FEA03031A40FB68A2
:102960001A6007F11407BD4680BC704780B487B079
:1029700000AF786039604FF00003FB754FF0000343
:10298000FB604FF00003BB607A68244B9A4202D888
:10299000234B3B6101E0234B3B613A68224B02EA47
:1029A0000303002B0CD03B684FEAD32303F01E0334
:1029B000FB607B681A68FB6802EA0303BB6004E003
:1029C0007B685B6903F08003BB603B6803F00053E6
:1029D000002B03D03B695B68FB6002E03B691B682E
:1029E000FB60FA68114B02EA0303FB60FA683B687C
:1029F00002EA0303002B06D0BB68002B03D04FF084
:102A00000103FB7502E04FF00003FB75FB7D1846E8
:102A100007F11C07BD4680BC704700BF0F64024031
:102A200000600240006402403C0F3C0F7D0F7D0FB0
:102A300080B485B000AF786039607A680F4B9A42F5
:102A400002D80F4BFB6001E00E4BFB603B6803F0CC
:102A50000053002B06D03A680B4B02EA0303FA68D6
:102A6000D36005E03A68084B02EA0303FA68936012
:102A700007F11407BD4680BC704700BF0F640240D9
:102A800000600240006402407D0F7D0F80B400AF03
:102A9000104B104A126842F001021A600D4B4FF0C1
:102AA00000029A600B4A0B4B1B6823F0847323F4DB
:102AB00080331360074B084A5A60064B054A126878
:102AC00022F480221A60034B4FF00002DA60BD4608
:102AD00080BC7047003802401030002480B483B0BE
:102AE00000AF0346FB71064B4FF000021A70044B17
:102AF000FA791A7007F10C07BD4680BC704700BF19
:102B00000238024080B582B000AF4FF000033B6056
:102B10004FF00003FB714FF00003BB714FF0310029
:102B200000F002FD0346BB713B6803F101033B600B
:102B30003B68B3F5A06F02D0BB79002BEED04FF00D
:102B4000310000F0F1FC0346002B03D04FF00103ED
:102B5000FB7102E04FF00003FB71FB79184607F1AF
:102B60000807BD4680BD00BF80B485B000AF0346F6
:102B7000FB714FF00003FB600A4B1B68FB60FB68B6
:102B800023F0F803FB60FB794FEAC303FA6842EADB
:102B90000303FB60034BFA681A6007F11407BD4694
:102BA00080BC70470038024080B483B000AF034659
:102BB000FB71044BFA791A6007F10C07BD4680BC23
:102BC000704700BF0000474280B483B000AF0346A7
:102BD000FB710E4B4FF000021A700C4B4FF00002CD
:102BE0001A70FB79012B02D0042B05D009E0074BAA
:102BF0004FF001021A7004E0044B4FF005021A7006
:102C000000BF07F10C07BD4680BC7047703802401A
:102C100080B483B000AF0346FB71044BFA791A60AD
:102C200007F10C07BD4680BC704700BF800E4742CD
:102C300080B485B000AFF860B9607A603B600D4B3E
:102C40007A684FEA8211BA6811433A684FEA520231
:102C500002F1FF324FEA02421143FA681143BA69A6
:102C60004FEA026241EA02025A6007F11407BD46C8
:102C700080BC70470038024080B483B000AF034688
:102C8000FB71044BFA791A6007F10C07BD4680BC52
:102C9000704700BF6000474280B483B000AF7860E7
:102CA0003960084B7A684FEA82113A684FEA02723B
:102CB00041EA0202C3F8842007F10C07BD4680BC3C
:102CC000704700BF0038024080B483B000AF0346B5
:102CD000FB71044BFA791A6007F10C07BD4680BC02
:102CE000704700BF6800474280B483B000AF03461E
:102CF000FB71044BFA791A6007F10C07BD4680BCE2
:102D0000704700BF4C00474280B485B000AF786088
:102D100039604FF00003FB600B4B9B68FB60FB6866
:102D200023F0EC63FB607A683B6842EA0303FA68CD
:102D300042EA0303FB60044BFA689A6007F1140748
:102D4000BD4680BC704700BF0038024080B485B0EB
:102D500000AF786039604FF00003FB600B4B9B685D
:102D6000FB60FB6823F07843FB607A683B6842EACB
:102D70000303FA6842EA0303FB60044BFA689A60B3
:102D800007F11407BD4680BC704700BF0038024001
:102D900080B485B000AF78604FF00003FB600A4B51
:102DA0009B68FB60FB6823F00303FB60FA687B68A9
:102DB00042EA0303FB60044BFA689A6007F11407C8
:102DC000BD4680BC704700BF0038024080B400AFF1
:102DD000044B9B68DBB203F00C03DBB21846BD4624
:102DE00080BC70470038024080B485B000AF786086
:102DF0004FF00003FB600A4B9B68FB60FB6823F00D
:102E0000F003FB60FA687B6842EA0303FB60044B53
:102E1000FA689A6007F11407BD4680BC704700BF8E
:102E20000038024080B485B000AF78604FF00003F6
:102E3000FB600A4B9B68FB60FB6823F4E053FB607C
:102E4000FA687B6842EA0303FB60044BFA689A6005
:102E500007F11407BD4680BC704700BF0038024030
:102E600080B485B000AF78604FF00003FB600B4B7F
:102E70009B68FB60FB6823F46043FB607B684FEA60
:102E8000C303FA6842EA0303FB60044BFA689A60E2
:102E900007F11407BD4680BC704700BF00380240F0
:102EA00080B489B000AF78604FF00003BB614FF091
:102EB00000037B614FF00003FB614FF002033B61B5
:102EC0004FF00003FB604FF00203BB604F4B9B6869
:102ED00003F00C03BB61BB69042B07D0082B09D09E
:102EE000002B47D17B684A4A1A6047E07B68494A11
:102EF0001A6043E0454B5B6803F480034FEA935349
:102F0000FB60424B5B6803F03F03BB60FB68002B38
:102F10000FD0404ABB68B2FBF3F23C4B596847F60E
:102F2000C07301EA03034FEA931303FB02F3FB614F
:102F30000EE0374ABB68B2FBF3F2344B596847F6F0
:102F4000C07301EA03034FEA931303FB02F3FB612F
:102F50002E4B5B6803F440334FEA134303F1010344
:102F60004FEA43033B61FA693B69B2FBF3F27B68CA
:102F70001A6003E07B68264A1A6000BF234B9B68F7
:102F800003F0F003BB61BB694FEA1313BB61224A34
:102F9000BB69D3181B78DBB27B617B681A687B69DD
:102FA00022FA03F27B685A60184B9B6803F4E053E3
:102FB000BB61BB694FEA9323BB61174ABB69D31856
:102FC0001B78DBB27B617B685A687B6922FA03F26B
:102FD0007B689A600D4B9B6803F46043BB61BB69DF
:102FE0004FEA5333BB610C4ABB69D3181B78DBB281
:102FF0007B617B685A687B6922FA03F27B68DA603E
:1030000007F12407BD4680BC704700BF003802406E
:103010000024F40000127A000400002080B485B07F
:1030200000AF78604FF00003FB607B6803F44073EF
:10303000B3F5407F12D1114B9B68FB60FB6823F412
:10304000F813FB607B6823F0704323F44073FA6845
:1030500042EA0303FB60094BFA689A60074A074B90
:10306000196F7B684FEA03534FEA135341EA030396
:10307000136707F11407BD4680BC70470038024053
:1030800080B483B000AF0346FB71044BFA791A6039
:1030900007F10C07BD4680BC704700BF3C0E47429D
:1030A00080B483B000AF0346FB71044BFA791A6019
:1030B00007F10C07BD4680BC704700BF400E474279
:1030C00080B483B000AF7860034B7A681A6007F170
:1030D0000C07BD4680BC70475C01474280B483B09A
:1030E00000AF78600B46FB70FB78002B07D00B4BD2
:1030F0000A4A116B7A6841EA02021A6308E0074B38
:10310000064A116B7A686FEA020201EA02021A6348
:1031100007F10C07BD4680BC704700BF0038024075
:1031200080B483B000AF78600B46FB70FB78002B57
:1031300007D00B4B0A4A516B7A6841EA02025A6384
:1031400008E0074B064A516B7A686FEA020201EA0F
:1031500002025A6307F10C07BD4680BC704700BFEE
:103160000038024080B483B000AF78600B46FB703B
:10317000FB78002B07D00B4B0A4A916B7A6841EA27
:1031800002029A6308E0074B064A916B7A686FEA7D
:10319000020201EA02029A6307F10C07BD4680BCF5
:1031A000704700BF0038024080B483B000AF786041
:1031B0000B46FB70FB78002B07D00B4B0A4A116CB7
:1031C0007A6841EA02021A6408E0074B064A116C69
:1031D0007A686FEA020201EA02021A6407F10C0738
:1031E000BD4680BC704700BF0038024080B483B049
:1031F00000AF78600B46FB70FB78002B07D00B4BC1
:103200000A4A516C7A6841EA02025A6408E0074BA4
:10321000064A516C7A686FEA020201EA02025A64B5
:1032200007F10C07BD4680BC704700BF0038024064
:1032300080B483B000AF78600B46FB70FB78002B46
:1032400007D00B4B0A4A11697A6841EA02021A61F7
:1032500008E0074B064A11697A686FEA020201EA40
:1032600002021A6107F10C07BD4680BC704700BF1F
:103270000038024080B483B000AF78600B46FB702A
:10328000FB78002B07D00B4B0A4A51697A6841EA58
:1032900002025A6108E0074B064A51697A686FEAF0
:1032A000020201EA02025A6107F10C07BD4680BC26
:1032B000704700BF0038024080B483B000AF786030
:1032C0000B46FB70FB78002B07D00B4B0A4A916929
:1032D0007A6841EA02029A6108E0074B064A91695E
:1032E0007A686FEA020201EA02029A6107F10C07AA
:1032F000BD4680BC704700BF0038024080B483B038
:1033000000AF78600B46FB70FB78002B07D00B4BAF
:103310000A4A116A7A6841EA02021A6208E0074B17
:10332000064A116A7A686FEA020201EA02021A6228
:1033300007F10C07BD4680BC704700BF0038024053
:1033400080B483B000AF78600B46FB70FB78002B35
:1033500007D00B4B0A4A516A7A6841EA02025A6264
:1033600008E0074B064A516A7A686FEA020201EAEE
:1033700002025A6207F10C07BD4680BC704700BFCD
:103380000038024080B483B000AF78600B46FB7019
:10339000FB78002B07D00B4B0A4A116D7A6841EA83
:1033A00002021A6508E0074B064A116D7A686FEA57
:1033B000020201EA02021A6507F10C07BD4680BC51
:1033C000704700BF0038024080B483B000AF78601F
:1033D0000B46FB70FB78002B07D00B4B0A4A516D54
:1033E0007A6841EA02025A6508E0074B064A516DC5
:1033F0007A686FEA020201EA02025A6507F10C07D5
:10340000BD4680BC704700BF0038024080B483B026
:1034100000AF78600B46FB70FB78002B07D00B4B9E
:103420000A4A916D7A6841EA02029A6508E0074B00
:10343000064A916D7A686FEA020201EA02029A6511
:1034400007F10C07BD4680BC704700BF0038024042
:1034500080B483B000AF78600B46FB70FB78002B24
:1034600007D00B4B0A4A116E7A6841EA02021A66CB
:1034700008E0074B064A116E7A686FEA020201EA19
:1034800002021A6607F10C07BD4680BC704700BFF8
:103490000038024080B483B000AF78600B46FB7008
:1034A000FB78002B07D00B4B0A4A516E7A6841EA31
:1034B00002025A6608E0074B064A516E7A686FEAC4
:1034C000020201EA02025A6607F10C07BD4680BCFF
:1034D000704700BF0038024080B483B000AF02469E
:1034E0000B46FA71BB71BB79002B09D00D4B0D4A0D
:1034F0001278D1B2FA7941EA0202D2B21A700BE024
:10350000084B084A1278D1B2FA796FEA0202D2B2B5
:1035100001EA0202D2B21A7007F10C07BD4680BC64
:10352000704700BF0D38024080B487B000AF03463B
:10353000FB714FF00003FB604FF000037B614FF025
:103540000003FB74FB794FEA5313DBB2FB60FB68AB
:10355000012B03D1144B1B687B6109E0FB68022B34
:1035600003D1114B1B6F7B6102E00F4B5B6F7B61E3
:10357000FB7903F01F03FB60FB687A6922FA03F30F
:1035800003F00103DBB2002B03D04FF00103FB7407
:1035900002E04FF00003FB74FB7C184607F11C07A8
:1035A000BD4680BC704700BF0038024080B400AF09
:1035B000044B044A526F42F080725A67BD4680BC89
:1035C000704700BF0038024080B485B000AF0346AA
:1035D000FB714FF00003FB730A4BDA68FB7902EAD8
:1035E0000303002B03D04FF00103FB7302E04FF005
:1035F0000003FB73FB7B184607F11407BD4680BC34
:10360000704700BF0038024080B483B000AF03466B
:10361000FB71044BFA791A7007F10C07BD4680BCA8
:10362000704700BF0E38024080B582B000AF7860AE
:103630007A681A4B9A420CD14FF480504FF0010136
:10364000FFF77EFE4FF480504FF00001FFF778FE49
:1036500020E07A68124B9A420CD14FF480404FF030
:103660000101FFF74BFE4FF480404FF00001FFF7E0
:1036700045FE0FE07A680B4B9A420BD14FF40040A5
:103680004FF00101FFF73AFE4FF400404FF0000108
:10369000FFF734FE07F10807BD4680BD003001404A
:1036A00000380040003C004080B485B000AF786036
:1036B00039604FF00003FB817B681B88FB81FB892D
:1036C00003F44153FB813B681A883B685B8842EAFC
:1036D00003039AB23B689B8842EA03039AB23B68B1
:1036E000DB8842EA03039AB23B681B8942EA030380
:1036F0009AB23B685B8942EA03039AB23B689B89B2
:1037000042EA03039AB23B68DB8942EA03039AB2B6
:10371000FB8942EA0303FB817B68FA891A807B6894
:103720009B8B9BB223F400639AB27B689A833B68BD
:103730001A8A7B681A8207F11407BD4680BC70475D
:1037400080B48BB000AF786039604FF000037B83AA
:103750004FF00203FB844FF00003BB844FF00103E2
:103760007B844FF00003FB614FF000037B614FF05F
:1037700000033B614FF00003FB604FF00003BB60B0
:103780007B689B8B9BB223F47A6323F01F039AB26E
:103790007B689A837B684FF002021A847B689B8B5C
:1037A0007B833B689B68022B06D14FF00003BB84F0
:1037B0004FF00203FB8483E03B689B88002B03D11E
:1037C0004FF001037B8402E04FF002037B84584BEF
:1037D0009B6803F40003002B05D0554B544A9268B4
:1037E00022F400029A60524BD3F8842047F6C0734B
:1037F00002EA03034FEA93134FEAC3534FEAD3534A
:10380000FB604B4BD3F8843003F0E0434FEA137373
:1038100003F00703BB60464B5B6803F03F033B616B
:10382000444A3B69B2FBF3F3FA6802FB03F2BB685C
:10383000B2FBF3F37B613B68DB88B3F5007F13D108
:103840007B694FEA132213464FEA83039B184FEA22
:1038500043031A463B689B68B2FBF3F39BB203F148
:1038600005039BB2FB6115E07B8C4FEA43137A6939
:10387000B2FBF3F213464FEA83039B184FEA43036C
:103880001A463B689B68B2FBF3F39BB203F1050356
:103890009BB2FB61FA69284BA3FB02134FEAD303E7
:1038A000FB61FB699BB203F00103BB84BB8CFA692B
:1038B000D31A4FEA5303FB84BB8C4FEA0323BB8428
:1038C000FB8C012B02D9FB8CFF2B05D94FF0020397
:1038D000FB844FF00003BB843B68DA88BB8C42EA70
:1038E00003039AB2FB8C42EA03039AB27B681A8400
:1038F0003B681A883B6859883B6898883B689B8975
:1039000040EA03039BB241EA03039BB242EA03038A
:103910009AB27B8B42EA03039BB243F400637B833E
:103920007B687A8B9A8307F12C07BD4680BC704771
:103930000038024000127A00CDCCCCCC80B483B0E9
:1039400000AF78607B684FF000021A807B684FF010
:1039500000025A807B684FF000029A807B684FF02B
:103960000002DA807B684FF000021A817B684FF01A
:1039700000025A817B684FF000029A817B684FF009
:103980000002DA817B684FF007021A8207F10C0708
:10399000BD4680BC704700BF80B483B000AF786084
:1039A0007B684FF000021A807B684FF000025A805B
:1039B0007B684FF000029A807B684FF00002DA804B
:1039C0007B684FF002029A607B684FF000029A8198
:1039D00007F10C07BD4680BC704700BF80B483B0C0
:1039E00000AF78600B46FB70FB78002B08D07B683B
:1039F0001B889BB243F040039AB27B681A8007E0B1
:103A00007B681B889BB223F040039AB27B681A80C4
:103A100007F10C07BD4680BC704700BF80B483B07F
:103A200000AF78600B46FB70FB78002B08D07B68FA
:103A30009B8B9BB243F480639AB27B689A8307E0C6
:103A40007B689B8B9BB223F480639AB27B689A83DA
:103A500007F10C07BD4680BC704700BF80B483B03F
:103A600000AF78600B467B807B681B889BB223F499
:103A700000639AB27B681A807B681B889AB27B8845
:103A800042EA03039AB27B681A8007F10C07BD462D
:103A900080BC704780B483B000AF78600B467B80F9
:103AA0007B88B3F5804F08D17B681B889BB243F4B9
:103AB00080439AB27B681A8007E07B681B889BB2C0
:103AC00023F480439AB27B681A8007F10C07BD4645
:103AD00080BC704780B483B000AF78600B467B80B9
:103AE0007A884FF6FF639A4208D07B681B889BB2A6
:103AF00043F480739AB27B681A8007E07B681B8866
:103B00009BB223F480739AB27B681A8007F10C078A
:103B1000BD4680BC704700BF80B483B000AF786002
:103B20000B46FB70FB78002B08D07B689B889BB210
:103B300043F004039AB27B689A8007E07B689B8815
:103B40009BB223F004039AB27B689A8007F10C07BA
:103B5000BD4680BC704700BF80B483B000AF7860C2
:103B60000B46FB70FB78002B08D07B689B889BB2D0
:103B700043F010039AB27B689A8007E07B689B88C9
:103B80009BB223F010039AB27B689A8007F10C076E
:103B9000BD4680BC704700BF80B485B000AF786080
:103BA00039604FF00003BB814FF00003FB817B685D
:103BB0009B8B9BB223F47A6323F01F039AB27B683A
:103BC0009A837B684FF002021A847B689B8BBB81CF
:103BD0003B681B88B3F5007F03D03B681B88002B34
:103BE00003D14FF48073FB810CE03B681B88B3F575
:103BF000407F04D03B681B88B3F5807F02D14FF033
:103C00000003FB813B685A883B6899883B689B8925
:103C100041EA03039BB242EA03039AB2FB8942EAF8
:103C200003039AB2BB8942EA03039BB243F40063E5
:103C3000BB817B68BA899A8307F11407BD4680BCB3
:103C4000704700BF80B483B000AF78607B689B8909
:103C50009BB2184607F10C07BD4680BC704700BFF9
:103C600080B483B000AF78600B467B807B687A8835
:103C70009A8107F10C07BD4680BC704780B483B0C1
:103C800000AF78600B46FB70FB78002B08D07B6898
:103C90001B889BB243F400539AB27B681A8007E0FA
:103CA0007B681B889BB223F400539AB27B681A800E
:103CB00007F10C07BD4680BC704700BF80B483B0DD
:103CC00000AF78607B681B889BB243F480539AB244
:103CD0007B681A8007F10C07BD4680BC704700BFA7
:103CE00080B485B000AF78600B46FB704FF00003E6
:103CF000FB81FB78012B03D07B681B8BFB8102E0EF
:103D00007B689B8AFB81FB89184607F11407BD4637
:103D100080BC704780B483B000AF78607B681B8A3A
:103D20009BB2184607F10C07BD4680BC704700BF28
:103D300080B483B000AF786013460A467A807B7007
:103D40007B78002B09D07B689B889AB27B8842EAFB
:103D500003039AB27B689A800BE07B689B889AB2D7
:103D60007B886FEA03039BB202EA03039AB27B6883
:103D70009A8007F10C07BD4680BC704780B485B0BF
:103D800000AF786013460A46FA70BB704FF000032C
:103D9000FB814FF00003BB81FB784FEA1313DBB2CA
:103DA000FB81FB894FF0010202FA03F3BB81BB7870
:103DB000002B09D07B689B889AB2BB8942EA030337
:103DC0009AB27B689A800BE07B689B889AB2BB8929
:103DD0006FEA03039BB202EA03039AB27B689A80FC
:103DE00007F11407BD4680BC704700BF80B485B0A2
:103DF00000AF78600B467B804FF00003FB737B685D
:103E00001B899AB27B8802EA03039BB2002B03D082
:103E10004FF00103FB7302E04FF00003FB73FB7BE9
:103E2000184607F11407BD4680BC704780B483B0C4
:103E300000AF78600B467B807B886FEA03039AB201
:103E40007B681A8107F10C07BD4680BC704700BF34
:103E500080B485B000AF78600B46FB704FF0000374
:103E6000FB734FF00003BB814FF000037B814FF0E9
:103E700000033B81FB7803F00F034FF0010202FACD
:103E800003F3BB81FB784FEA1313DBB27B817B89A1
:103E90004FF0010202FA03F37B817B689B889AB2A0
:103EA0007B8902EA03033B817B681B899AB2BB8949
:103EB00002EA03039BB2002B06D03B89002B03D000
:103EC0004FF00103FB7302E04FF00003FB73FB7B39
:103ED000184607F11407BD4680BC704780B485B012
:103EE00000AF78600B46FB704FF00003FB81FB785E
:103EF00003F00F034FF0010202FA03F3FB81FB8989
:103F00006FEA03039AB27B681A8107F11407BD4672
:103F100080BC704780B582B000AF78607A68784B1B
:103F20009A420CD14FF001004FF00101FFF708FA5F
:103F30004FF001004FF00001FFF702FADBE07B6871
:103F4000B3F1804F0CD14FF001004FF00101FFF7AA
:103F5000D5F94FF001004FF00001FFF7CFF9CAE0AB
:103F60007A68684B9A420CD14FF002004FF0010181
:103F7000FFF7C4F94FF002004FF00001FFF7BEF960
:103F8000B9E07A68604B9A420CD14FF004004FF0D0
:103F90000101FFF7B3F94FF004004FF00001FFF704
:103FA000ADF9A8E07A68594B9A420CD14FF008005D
:103FB0004FF00101FFF7A2F94FF008004FF00001A8
:103FC000FFF79CF997E07A68514B9A420CD14FF079
:103FD00010004FF00101FFF791F94FF010004FF082
:103FE0000001FFF78BF986E07A684A4B9A420CD1C0
:103FF0004FF020004FF00101FFF780F94FF0200053
:104000004FF00001FFF77AF975E07A68424B9A4267
:104010000CD14FF002004FF00101FFF791F94FF082
:1040200002004FF00001FFF78BF964E07A683B4B28
:104030009A420CD14FF480304FF00101FFF780F924
:104040004FF480304FF00001FFF77AF953E07A68BF
:10405000334B9A420CD14FF400304FF00101FFF77F
:104060006FF94FF400304FF00001FFF769F942E0BB
:104070007A682C4B9A420CD14FF480204FF001010A
:10408000FFF75EF94FF480204FF00001FFF758F979
:1040900031E07A68244B9A420CD14FF040004FF047
:1040A0000101FFF72BF94FF040004FF00001FFF73F
:1040B00025F920E07A681D4B9A420CD14FF0800020
:1040C0004FF00101FFF71AF94FF080004FF00001A7
:1040D000FFF714F90FE07A68154B9A420BD14FF4B1
:1040E00080704FF00101FFF709F94FF480704FF035
:1040F0000001FFF703F907F10807BD4680BD00BFC7
:10410000000001400004004000080040000C004096
:104110000010004000140040000401400040014035
:10412000004401400048014000180040001C0040CD
:104130000020004080B485B000AF786039604FF057
:104140000003FB817B681B88FB817A68294B9A42BC
:1041500013D07A68284B9A420FD07B68B3F1804F16
:104160000BD07A68254B9A4207D07A68244B9A4242
:1041700003D07A68234B9A4209D1FB8923F070035C
:10418000FB813B685A88FB8942EA0303FB817A681A
:104190001D4B9A420DD07A681C4B9A4209D0FB897C
:1041A00023F44073FB813B681A89FB8942EA0303CD
:1041B000FB817B68FA891A803B685A687B68DA62FF
:1041C0003B681A887B681A857A680A4B9A4203D042
:1041D0007A68094B9A4204D13B689B7A1A467B68FD
:1041E0001A867B684FF001029A8207F11407BD46D8
:1041F00080BC704700000140000401400004004002
:1042000000080040000C0040001000400014004076
:1042100080B483B000AF78607B684FF0FF325A60A3
:104220007B684FF000021A807B684FF000021A8111
:104230007B684FF000025A807B684FF000029A7250
:1042400007F10C07BD4680BC704700BF80B483B047
:1042500000AF786013460A467A803B807B687A8894
:104260001A857B683A889A8207F10C07BD4680BCA4
:10427000704700BF80B485B000AF78600B467B808C
:104280004FF00003FB817B681B88FB81FB8923F0D7
:104290007003FB81FA897B8842EA0303FB817B6818
:1042A000FA891A8007F11407BD4680BC704700BF29
:1042B00080B483B000AF786039607B683A685A6236
:1042C00007F10C07BD4680BC704700BF80B483B0C7
:1042D00000AF786039607B683A68DA6207F10C07F2
:1042E000BD4680BC704700BF80B483B000AF78602B
:1042F0007B685B6A184607F10C07BD4680BC7047B7
:1043000080B483B000AF78607B681B8D9BB2184689
:1043100007F10C07BD4680BC704700BF80B483B076
:1043200000AF78600B46FB70FB78002B08D07B68F1
:104330001B889BB243F002039AB27B681A8007E0A5
:104340007B681B889BB223F002039AB27B681A80B9
:1043500007F10C07BD4680BC704700BF80B483B036
:1043600000AF78600B467B807B88002B08D07B6891
:104370001B889BB243F004039AB27B681A8007E063
:104380007B681B889BB223F004039AB27B681A8077
:1043900007F10C07BD4680BC704700BF80B483B0F6
:1043A00000AF78600B46FB70FB78002B08D07B6871
:1043B0001B889BB243F080039AB27B681A8007E0A7
:1043C0007B681B889BB223F080039AB27B681A80BB
:1043D00007F10C07BD4680BC704700BF80B483B0B6
:1043E00000AF78600B467B807B681B889BB223F014
:1043F00008039AB27B681A807B681B889AB27B8814
:1044000042EA03039AB27B681A8007F10C07BD46A3
:1044100080BC704780B483B000AF78600B467B806F
:104420007B681B889BB223F440739AB27B681A8026
:104430007B681B889AB27B8842EA03039AB27B6846
:104440001A8007F10C07BD4680BC704780B483B06A
:1044500000AF78600B46FB70FB78002B08D07B68C0
:104460001B889BB243F001039AB27B681A8007E075
:104470007B681B889BB223F001039AB27B681A8089
:1044800007F10C07BD4680BC704700BF80B485B003
:1044900000AF786039604FF000037B814FF000037C
:1044A000FB814FF00003BB817B681B8C9BB223F028
:1044B00001039AB27B681A847B681B8CFB817B6842
:1044C0009B88BB817B681B8B7B817B8923F070037E
:1044D0007B817B8923F003037B813B681A887B897E
:1044E00042EA03037B81FB8923F00203FB813B68E3
:1044F0009A89FB8942EA0303FB813B685A88FB895E
:1045000042EA0303FB817A68204B9A4203D07A681F
:104510001F4B9A4227D1FB8923F00803FB813B689C
:10452000DA89FB8942EA0303FB81FB8923F0040358
:10453000FB813B689A88FB8942EA0303FB81BB89C4
:1045400023F48073BB81BB8923F40073BB813B6878
:104550001A8ABB8942EA0303BB813B685A8ABB893A
:1045600042EA0303BB817B68BA899A807B687A89B7
:104570001A833B689A687B685A637B68FA891A8455
:1045800007F11407BD4680BC704700BF0000014022
:104590000004014080B485B000AF786039604FF00E
:1045A00000037B814FF00003FB814FF00003BB81D0
:1045B0007B681B8C9BB223F010039AB27B681A8431
:1045C0007B681B8CFB817B689B88BB817B681B8B1A
:1045D0007B817B8923F4E0437B817B8923F44073D7
:1045E0007B813B681B884FEA03239AB27B8942EAAE
:1045F00003037B81FB8923F02003FB813B689B89BC
:104600004FEA03139AB2FB8942EA0303FB813B683A
:104610005B884FEA03139AB2FB8942EA0303FB81EA
:104620007A68264B9A4203D07A68254B9A4233D156
:10463000FB8923F08003FB813B68DB894FEA03138E
:104640009AB2FB8942EA0303FB81FB8923F0400312
:10465000FB813B689B884FEA03139AB2FB8942EACD
:104660000303FB81BB8923F48063BB81BB8923F4F3
:104670000063BB813B681B8A4FEA83039AB2BB8904
:1046800042EA0303BB813B685B8A4FEA83039AB229
:10469000BB8942EA0303BB817B68BA899A807B6845
:1046A0007A891A833B689A687B689A637B68FA897F
:1046B0001A8407F11407BD4680BC70470000014012
:1046C0000004014080B485B000AF786039604FF0DD
:1046D00000037B814FF00003FB814FF00003BB819F
:1046E0007B681B8C9BB223F480739AB27B681A841C
:1046F0007B681B8CFB817B689B88BB817B689B8B69
:104700007B817B8923F070037B817B8923F003030A
:104710007B813B681A887B8942EA03037B81FB89A2
:1047200023F40073FB813B689B894FEA03239AB211
:10473000FB8942EA0303FB813B685B884FEA032362
:104740009AB2FB8942EA0303FB817A68264B9A42BC
:1047500003D07A68254B9A4233D1FB8923F4006356
:10476000FB813B68DB894FEA03239AB2FB8942EA6B
:104770000303FB81FB8923F48063FB813B689B88F7
:104780004FEA03239AB2FB8942EA0303FB81BB8908
:1047900023F48053BB81BB8923F40053BB813B6866
:1047A0001B8A4FEA03139AB2BB8942EA0303BB8117
:1047B0003B685B8A4FEA03139AB2BB8942EA030360
:1047C000BB817B68BA899A807B687A899A833B68C7
:1047D0009A687B68DA637B68FA891A8407F11407A0
:1047E000BD4680BC704700BF00000140000401408E
:1047F00080B485B000AF786039604FF00003BB81B2
:104800004FF000037B814FF00003FB817B681B8C22
:104810009BB223F480539AB27B681A847B681B8C0A
:104820007B817B689B88FB817B689B8BBB81BB8981
:1048300023F4E043BB81BB8923F44073BB813B6815
:104840001B884FEA03239AB2BB8942EA0303BB8168
:104850007B8923F400537B813B689B894FEA0333B8
:104860009AB27B8942EA03037B813B685B884FEA0B
:1048700003339AB27B8942EA03037B817A68134B44
:104880009A4203D07A68124B9A420CD1FB8923F4E6
:104890008043FB813B681B8A4FEA83139AB2FB89F2
:1048A00042EA0303FB817B68FA899A807B68BA89B4
:1048B0009A833B689A687B681A647B687A891A8451
:1048C00007F11407BD4680BC704700BF00000140DF
:1048D0000004014080B483B000AF78607B684FF083
:1048E00000021A807B684FF000025A807B684FF00C
:1048F00000029A807B684FF000029A607B684FF05C
:1049000000029A817B684FF00002DA817B684FF0E9
:1049100000021A827B684FF000025A8207F10C07EE
:10492000BD4680BC704700BF80B485B000AF7860E2
:1049300013460A467A803B804FF00003FB604FF03D
:1049400000037B817B68FB60FB6803F11803FB605D
:104950007B884FF0010202FA03F37B817B681B8C9A
:104960009AB27B896FEA03039BB202EA03039AB20D
:104970007B681A847B88002B02D07B88082B16D199
:104980007B884FEA53039BB2FA68D318FB60FA683E
:10499000FB6819684FF68F7301EA03031360FB6825
:1049A000FA6811683A8841EA02021A601BE07B88C3
:1049B000A3F104039BB24FEA53039BB2FA68D318E6
:1049C000FB60FA68FB68196848F6FF7301EA0303A5
:1049D0001360FB68FA6811683A884FEA022292B2C3
:1049E00041EA02021A6007F11407BD4680BC704715
:1049F00080B483B000AF786039607B683A685A63EE
:104A000007F10C07BD4680BC704700BF80B483B07F
:104A100000AF786039607B683A689A6307F10C07E9
:104A2000BD4680BC704700BF80B483B000AF7860E3
:104A300039607B683A68DA6307F10C07BD4680BCD1
:104A4000704700BF80B483B000AF786039607B6886
:104A50003A681A6407F10C07BD4680BC704700BF76
:104A600080B485B000AF78600B467B804FF00003C8
:104A7000FB817B681B8BFB81FB8923F07003FB812F
:104A8000FA897B8842EA0303FB817B68FA891A83EF
:104A900007F11407BD4680BC704700BF80B485B0E5
:104AA00000AF78600B467B804FF00003FB817B6892
:104AB0001B8BFB81FB8923F4E043FB817B884FEA5E
:104AC00003239AB2FB8942EA0303FB817B68FA89DC
:104AD0001A8307F11407BD4680BC704780B485B0C7
:104AE00000AF78600B467B804FF00003FB817B6852
:104AF0009B8BFB81FB8923F07003FB81FA897B8808
:104B000042EA0303FB817B68FA899A8307F1140761
:104B1000BD4680BC704700BF80B485B000AF7860F0
:104B20000B467B804FF00003FB817B689B8BFB81F6
:104B3000FB8923F4E043FB817B884FEA03239AB28D
:104B4000FB8942EA0303FB817B68FA899A8307F1B8
:104B50001407BD4680BC704780B485B000AF786054
:104B60000B467B804FF00003FB817B681B8BFB8136
:104B7000FB8923F00803FB81FA897B8842EA03035F
:104B8000FB817B68FA891A8307F11407BD4680BC54
:104B9000704700BF80B485B000AF78600B467B8063
:104BA0004FF00003FB817B681B8BFB81FB8923F4A7
:104BB0000063FB817B884FEA03239AB2FB8942EAB8
:104BC0000303FB817B68FA891A8307F11407BD464A
:104BD00080BC704780B485B000AF78600B467B80A6
:104BE0004FF00003FB817B689B8BFB81FB8923F0EB
:104BF0000803FB81FA897B8842EA0303FB817B6817
:104C0000FA899A8307F11407BD4680BC704700BF3C
:104C100080B485B000AF78600B467B804FF0000316
:104C2000FB817B689B8BFB81FB8923F40063FB8109
:104C30007B884FEA03239AB2FB8942EA0303FB8194
:104C40007B68FA899A8307F11407BD4680BC7047D8
:104C500080B485B000AF78600B467B804FF00003D6
:104C6000FB817B681B8BFB81FB8923F00403FB81A9
:104C7000FA897B8842EA0303FB817B68FA891A83FD
:104C800007F11407BD4680BC704700BF80B485B0F3
:104C900000AF78600B467B804FF00003FB817B68A0
:104CA0001B8BFB81FB8923F48063FB817B884FEAAC
:104CB00003239AB2FB8942EA0303FB817B68FA89EA
:104CC0001A8307F11407BD4680BC704780B485B0D5
:104CD00000AF78600B467B804FF00003FB817B6860
:104CE0009B8BFB81FB8923F00403FB81FA897B8882
:104CF00042EA0303FB817B68FA899A8307F1140770
:104D0000BD4680BC704700BF80B485B000AF7860FE
:104D10000B467B804FF00003FB817B689B8BFB8104
:104D2000FB8923F48063FB817B884FEA03239AB2DB
:104D3000FB8942EA0303FB817B68FA899A8307F1C6
:104D40001407BD4680BC704780B485B000AF786062
:104D50000B467B804FF00003FB817B681B8BFB8144
:104D6000FB8923F08003FB81FA897B8842EA0303F5
:104D7000FB817B68FA891A8307F11407BD4680BC62
:104D8000704700BF80B485B000AF78600B467B8071
:104D90004FF00003FB817B681B8BFB81FB894FEA93
:104DA00043434FEA5343FB817B884FEA03239AB284
:104DB000FB8942EA0303FB817B68FA891A8307F1C6
:104DC0001407BD4680BC704780B485B000AF7860E2
:104DD0000B467B804FF00003FB817B689B8BFB8144
:104DE000FB8923F08003FB81FA897B8842EA030375
:104DF000FB817B68FA899A8307F11407BD4680BC62
:104E0000704700BF80B485B000AF78600B467B80F0
:104E10004FF00003FB817B689B8BFB81FB894FEA92
:104E200043434FEA5343FB817B884FEA03239AB203
:104E3000FB8942EA0303FB817B68FA899A8307F1C5
:104E40001407BD4680BC704780B485B000AF786061
:104E50000B467B804FF00003FB817B681B8CFB8142
:104E6000FB8923F00203FB81FA897B8842EA030372
:104E7000FB817B68FA891A8407F11407BD4680BC60
:104E8000704700BF80B485B000AF78600B467B8070
:104E90004FF00003FB817B681B8CFB81FB8923F0B7
:104EA0000803FB81FA897B8842EA0303FB817B6864
:104EB000FA891A8407F11407BD4680BC704700BF09
:104EC00080B485B000AF78600B467B804FF0000364
:104ED000FB817B681B8CFB81FB8923F02003FB811A
:104EE0007B884FEA03139AB2FB8942EA0303FB81F2
:104EF0007B68FA891A8407F11407BD4680BC7047A5
:104F000080B485B000AF78600B467B804FF0000323
:104F1000FB817B681B8CFB81FB8923F08003FB8179
:104F20007B884FEA03139AB2FB8942EA0303FB81B1
:104F30007B68FA891A8407F11407BD4680BC704764
:104F400080B485B000AF78600B467B804FF00003E3
:104F5000FB817B681B8CFB81FB8923F40073FB8145
:104F60007B884FEA03239AB2FB8942EA0303FB8161
:104F70007B68FA891A8407F11407BD4680BC704724
:104F800080B485B000AF78600B467B804FF00003A3
:104F9000FB817B681B8CFB81FB8923F40063FB8115
:104FA0007B884FEA03239AB2FB8942EA0303FB8121
:104FB0007B68FA891A8407F11407BD4680BC7047E4
:104FC00080B485B000AF78600B467B804FF0000363
:104FD000FB817B681B8CFB81FB8923F40053FB81E5
:104FE0007B884FEA03339AB2FB8942EA0303FB81D1
:104FF0007B68FA891A8407F11407BD4680BC7047A4
:1050000080B485B000AF786013460A467A803B8052
:105010004FF00003FB817B884FF0010202FA03F39B
:10502000FB817B681B8C9AB2FB896FEA03039BB2FE
:1050300002EA03039AB27B681A847B681B8C9AB2DB
:1050400039887B8801FA03F39BB242EA03039AB2E0
:105050007B681A8407F11407BD4680BC704700BF07
:1050600080B485B000AF786013460A467A803B80F2
:105070004FF00003FB817B884FF0040202FA03F338
:10508000FB817B681B8C9AB2FB896FEA03039BB29E
:1050900002EA03039AB27B681A847B681B8C9AB27B
:1050A00039887B8801FA03F39BB242EA03039AB280
:1050B0007B681A8407F11407BD4680BC704700BFA7
:1050C00080B582B000AF786039603B681B88002BE8
:1050D0000FD13B6859883B689A883B681B89786880
:1050E00000F0DEFC3B68DB887868194600F0ECF8DD
:1050F00036E03B681B88042B0FD13B6859883B681E
:105100009A883B681B89786800F00CFD3B68DB8857
:105110007868194600F0F4F822E03B681B88082BF9
:105120000FD13B6859883B689A883B681B8978682F
:1051300000F04AFD3B68DB887868194600F000F90A
:105140000EE03B6859883B689A883B681B89786801
:1051500000F084FD3B68DB887868194600F00CF9A4
:1051600007F10807BD4680BD80B483B000AF78600A
:105170007B684FF000021A807B684FF000025A8073
:105180007B684FF001029A807B684FF00002DA8062
:105190007B684FF000021A8107F10C07BD4680BC06
:1051A000704700BF80B584B000AF786039604FF0C1
:1051B0000003FB814FF00103BB813B685B88002B40
:1051C00003D14FF00203FB8102E04FF00003FB81AB
:1051D0003B689B88012B03D14FF00203BB8102E0A7
:1051E0004FF00103BB813B681B88002B1CD13B683F
:1051F00059883B689A883B681B89786800F050FCA6
:105200003B68DB887868194600F05EF83B681B89CC
:10521000F989BA89786800F085FC3B68DB88786892
:10522000194600F06DF81BE03B6859883B689A8886
:105230003B681B89786800F075FC3B68DB88786800
:10524000194600F05DF83B681B89F989BA897868CE
:1052500000F026FC3B68DB887868194600F034F8DB
:1052600007F11007BD4680BD80B483B000AF786001
:105270007B685B6B184607F10C07BD4680BC704726
:1052800080B483B000AF78607B689B6B184607F1F1
:105290000C07BD4680BC704780B483B000AF786017
:1052A0007B68DB6B184607F10C07BD4680BC704776
:1052B00080B483B000AF78607B681B6C184607F140
:1052C0000C07BD4680BC704780B483B000AF7860E7
:1052D0000B467B807B681B8B9BB223F00C039AB23E
:1052E0007B681A837B681B8B9AB27B8842EA030334
:1052F0009AB27B681A8307F10C07BD4680BC7047E1
:1053000080B483B000AF78600B467B807B681B8BDA
:105310009BB223F440639AB27B681A837B681B8B31
:105320009AB27B884FEA03239BB242EA03039AB204
:105330007B681A8307F10C07BD4680BC704700BF2D
:1053400080B483B000AF78600B467B807B689B8B1A
:105350009BB223F00C039AB27B689A837B689B8B89
:105360009AB27B8842EA03039AB27B689A8307F178
:105370000C07BD4680BC704780B483B000AF786036
:105380000B467B807B689B8B9BB223F440639AB275
:105390007B689A837B689B8B9AB27B884FEA032356
:1053A0009BB242EA03039AB27B689A8307F10C0727
:1053B000BD4680BC704700BF80B483B000AF78604A
:1053C00039603B681A883B685B8842EA03039AB2FB
:1053D0003B689B8842EA03039AB23B68DB8842EA57
:1053E00003039AB23B681B8942EA03039AB23B6803
:1053F0005B8942EA03039AB23B689B8942EA030352
:105400009AB27B68A3F8442007F10C07BD4680BC24
:10541000704700BF80B483B000AF78607B684FF006
:1054200000021A807B684FF000025A807B684FF0C0
:1054300000029A807B684FF00002DA807B684FF0B0
:1054400000021A817B684FF000025A817B684FF09E
:1054500000029A8107F10C07BD4680BC704700BF6F
:1054600080B483B000AF78600B46FB70FB78002BF4
:105470000CD07B68B3F844309BB26FEA43436FEAC9
:1054800053439AB27B68A3F844200BE07B68B3F8DF
:1054900044309BB24FEA43434FEA53439AB27B688E
:1054A000A3F8442007F10C07BD4680BC704700BF3D
:1054B00080B483B000AF78600B46FB70FB78002BA4
:1054C00008D07B689B889BB243F004039AB27B6848
:1054D0009A8007E07B689B889BB223F004039AB212
:1054E0007B689A8007F10C07BD4680BC704700BFFF
:1054F00080B483B000AF78600B46FB70FB78002B64
:1055000008D07B689B889BB243F001039AB27B680A
:105510009A8007E07B689B889BB223F001039AB2D4
:105520007B689A8007F10C07BD4680BC704700BFBE
:1055300080B483B000AF786013460A467A807B70EF
:105540007B78002B09D07B689B899AB27B8842EAE2
:1055500003039AB27B689A810BE07B689B899AB2BD
:105560007B886FEA03039BB202EA03039AB27B686B
:105570009A8107F10C07BD4680BC704780B483B0A8
:1055800000AF78600B467B807B687A889A8207F14F
:105590000C07BD4680BC704780B485B000AF786012
:1055A0000B467B804FF00003FB737B681B8A9AB22B
:1055B0007B8802EA03039BB2002B03D04FF0010368
:1055C000FB7302E04FF00003FB73FB7B184607F10F
:1055D0001407BD4680BC704780B483B000AF7860CC
:1055E0000B467B807B886FEA03039AB27B681A8242
:1055F00007F10C07BD4680BC704700BF80B485B082
:1056000000AF78600B467B804FF00003FB734FF0D8
:105610000003BB814FF000037B817B681B8A9AB239
:105620007B8802EA0303BB817B689B899AB27B88F3
:1056300002EA03037B81BB89002B06D07B89002B08
:1056400003D04FF00103FB7302E04FF00003FB7344
:10565000FB7B184607F11407BD4680BC704700BFAE
:1056600080B483B000AF78600B467B807B886FEAA4
:1056700003039AB27B681A8207F10C07BD4680BC0F
:10568000704700BF80B483B000AF786013460A460D
:105690007A803B807A883B8842EA03039AB27B682F
:1056A000A3F8482007F10C07BD4680BC704700BF37
:1056B00080B483B000AF786013460A467A807B706E
:1056C0007B78002B09D07B689B899AB27B8842EA61
:1056D00003039AB27B689A810BE07B689B899AB23C
:1056E0007B886FEA03039BB202EA03039AB27B68EA
:1056F0009A8107F10C07BD4680BC704780B483B027
:1057000000AF78600B46FB70FB78002B08D07B68FD
:105710009B889BB243F008039AB27B689A8007E0AB
:105720007B689B889BB223F008039AB27B689A80BF
:1057300007F10C07BD4680BC704700BF80B483B042
:1057400000AF78607B681B899BB223F007039AB295
:105750007B681A8107F10C07BD4680BC704700BF0B
:1057600080B582B000AF78600B467B807B8878681C
:10577000194600F07DF87B681B899BB243F0070354
:105780009AB27B681A8107F10807BD4680BD00BF49
:1057900080B584B000AFF86079813A81FB807B8965
:1057A000602B08D13A89FB88F86811464FF0010256
:1057B00000F0B8F907E03A89FB88F86811464FF025
:1057C000010200F06DF97B89F868194600F050F885
:1057D000FB681B899BB243F007039AB2FB681A81EE
:1057E00007F11007BD4680BD80B586B000AFF860F8
:1057F00079813A81FB804FF00003FB8279893A89F5
:10580000FB88F86800F0A6F8FB681B89FB82FB8A1E
:1058100023F00703FB82FB8A43F00703FB82FB8A2A
:1058200023F07003FB82FB8A43F07003FB82FB686A
:10583000FA8A1A8107F11807BD4680BD80B584B089
:1058400000AFF86079813A81FB8079893A89FB88D9
:10585000F86800F07FF8FB681B899BB243F4804333
:105860009AB2FB681A8107F11007BD4680BD00BFE0
:1058700080B485B000AF78600B467B804FF00003AA
:10588000FB817B681B89FB81FB8923F07003FB8113
:10589000FA897B8842EA0303FB817B68FA891A81D3
:1058A00007F11407BD4680BC704700BF80B483B0C9
:1058B00000AF78600B467B807B689B889BB223F0AF
:1058C00070039AB27B689A807B689B889AB27B88C7
:1058D00042EA03039AB27B689A8007F10C07BD463F
:1058E00080BC704780B483B000AF78600B467B808B
:1058F0007B681B899BB223F007039AB27B681A81ED
:105900007B681B899AB27B8842EA03039AB27B6860
:105910001A8107F10C07BD4680BC704780B483B084
:1059200000AF78600B467B807B681B899BB223F0BD
:1059300080039AB27B681A817B681B899AB27B8844
:1059400042EA03039AB27B681A8107F10C07BD464D
:1059500080BC704780B487B000AFF86079813A812D
:10596000FB804FF00003FB82FB681B89FB82FB8AF4
:1059700003F0FF03FB82FB884FEA03239AB23B89C3
:1059800042EA03039AB27B8942EA03039AB2FB8A92
:1059900042EA0303FB82FB68FA8A1A8107F11C07BB
:1059A000BD4680BC704700BF80B487B000AFF860D0
:1059B00079813A81FB804FF00003FB824FF00003B6
:1059C000BB824FF000037B82FB681B89FB82FB6874
:1059D0001B8BBB82FB681B8C7B82FB8A23F007033B
:1059E000FB82FA8A7B8942EA0303FB82BB8A23F4A7
:1059F000407323F00303BB82BB8A43F4807343F0FC
:105A00000103BB827B8A23F022037B82FB884FEA5F
:105A100003139AB23B8942EA03039AB27B8A42EAB1
:105A200003037B82FB68FA8A1A81FB68BA8A1A83AD
:105A3000FB687A8A1A8407F11C07BD4680BC704750
:105A400080B483B000AF78600B46FB70FB78002B0E
:105A500008D07B689B889BB243F080039AB27B6836
:105A60009A8007E07B689B889BB223F080039AB200
:105A70007B689A8007F10C07BD4680BC704700BF69
:105A800080B483B000AF78600B467B807B687A88F7
:105A9000A3F8502007F10C07BD4680BC704700BF3B
:105AA00080B487B000AFF86079813A81FB804FF015
:105AB0000003FB824FF00003BB82FB681B8C9BB290
:105AC00023F001039AB2FB681A84FB681B8BFB82EC
:105AD000FB681B8CBB82FB8A23F0F303FB82FB88F1
