:020000021000EC
:1010000072B6374880F30988364A374913684FF07B
:10101000404443F4700313600C600023E1EE103A87
:1010200006228B6082F31488BFF36F8F2F4B304AF8
:1010300093420BD2D9430A4422F0030204321A44E9
:101040004FF0553143F8041B9342FBD1294B8342A7
:101050000CD2294A191D521A22F0030204321A44F2
:101060004FF0553143F8041B9342FBD101F038FE99
:10107000224A234B9A420CD2D043184420F003005A
:10108000204B0430184453F8041B42F8041B8342DD
:10109000F9D11D4B1D4A93420AD2D9430A4422F08A
:1010A000030204321A44002143F8041B9342FBD18B
:1010B000174D184C00F0CCF9AC4204D254F8043B64
:1010C0009847AC42FAD3144D144C00F029F8AC42C6
:1010D00004D254F8043B9847AC42FAD300F0C0F96C
:1010E0000004001088ED00E034EF00E00000001084
:1010F000000200100002001003040010CC3A0100AE
:10110000CC3A0100CC3A0100F83F0100AC440100A8
:10111000703801007038010070380100703801002B
:101120002DE9F04F91B001F0B3FF684C00F088FE5C
:1011300000224FF40061664801F00AFB00224FF4E0
:101140008051634801F004FB204601224FF4805196
:1011500001F0FEFA4FF480532383204601224FF41E
:10116000804101F0F5FA204601224FF4005101F0D0
:10117000EFFA204601224FF4004101F0E9FA00F0B5
:101180006FFA01F085FF10224FF4A021684601F0AC
:10119000D7FE01F07DFF4FF040431A78662A02D057
:1011A000012001F0B5FF4B4A12786C2AF8D14A4A67
:1011B0001278612AF4D1494A1278732AF0D1484A48
:1011C0001278632AECD1474A12786F2AE8D1464A4E
:1011D0001278702AE4D1454A1278792AE0D19D68C4
:1011E000B5F5801F02D9022001F092FF2946404840
:1011F000D3F80C8001F0C4FE804502D0032001F03A
:1012000087FF3C4B3C493D4ADFF8F4902F4E596034
:1012100000245A60204601F0F3FE80234A46032151
:10122000002001F03DFE4FF480472246032150206C
:1012300001F0B6FD0134B761642000F039FC4FF0D5
:1012400080430C2CB361E5D12946294801F098FE72
:10125000804527D1EE1CB60804F14044DFF894A085
:10126000DFF868904FF0000B10E004F190406168E7
:101270000C3801F0D5FEDAF80C3004340BB1DAF892
:101280000C30CBF30B0383B10BF1010BB345ECD165
:1012900029464FF0006001F073FE80450FD0052015
:1012A00001F036FF042001F033FFC9F81870642004
:1012B00000F0FEFB4FF08043C9F81830E4E74FF42C
:1012C0007A7000F0F5FB01F013FF00BF000C024044
:1012D00000000240010000C0020000C0030000C086
:1012E000040000C0050000C0060000C0070000C0E8
:1012F000100000C0003C024023016745AB89EFCDE0
:101300006038010000000000000000000000000044
:10131000844641EA000313F003036DD1403A41D300
:1013200051F8043B40F8043B51F8043B40F8043BBF
:1013300051F8043B40F8043B51F8043B40F8043BAF
:1013400051F8043B40F8043B51F8043B40F8043B9F
:1013500051F8043B40F8043B51F8043B40F8043B8F
:1013600051F8043B40F8043B51F8043B40F8043B7F
:1013700051F8043B40F8043B51F8043B40F8043B6F
:1013800051F8043B40F8043B51F8043B40F8043B5F
:1013900051F8043B40F8043B51F8043B40F8043B4F
:1013A000403ABDD2303211D351F8043B40F8043BEF
:1013B00051F8043B40F8043B51F8043B40F8043B2F
:1013C00051F8043B40F8043B103AEDD20C3205D3FF
:1013D00051F8043B40F8043B043AF9D2043208D0F7
:1013E000D2071CBF11F8013B00F8013B01D30B8869
:1013F00003806046704700BF082A13D38B078DD047
:1014000010F003038AD0C3F10403D21ADB071CBF18
:1014100011F8013B00F8013B80D331F8023B20F882
:10142000023B7BE7043AD9D3013A11F8013B00F8BB
:10143000013BF9D20B7803704B7843708B78837043
:10144000604670470000000000000000000000003F
:10145000704700BF00000000000000000000000016
:10146000FEE700BF000000000000000000000000D8
:10147000FEE700BF000000000000000000000000C8
:1014800000F09EFA00DF00BF000000000000000036
:10149000064A536823F001035360EFF3098368336E
:1014A00083F30988002383F31188704730EF00E04D
:1014B00008B5094B094A002199600720DA6010211C
:1014C00000F0A6F80A20202100F0A2F80B208021CD
:1014D000BDE8084000F09CB800ED00E00003FA050C
:1014E000202383F311881A4B5B6813F400631FD029
:1014F000F1EE10FAEFF30983164A4FF08071D268CB
:1015000043F8082C43F84C1CA3F1680282F30988C5
:1015100011498A69907F70B10868916882688A422F
:1015200094BF002201227AB10C4A43F8502C704734
:1015300083F3118870470868916882688A4234BFD3
:1015400000220122002AEFD1054A43F8502C7047AF
:1015500000ED00E030EF00E0B04101008114010037
:1015600084140100000000000000000000000000E2
:1015700008B5202383F3118800F0A2F8002383F339
:101580001188BDE80840FFF7ABBF00BF00000000B6
:101590002DE9F04F2DED108AC1F80CD0D0F80CD009
:1015A000BDEC108ABDE8F08F0000000000000000D4
:1015B000002383F311882846A04700F0A9FA70475A
:1015C00020F0030202F1604202F5614270B4430967
:1015D00000F00304D2F80053E400FF269B00A6406D
:1015E00003F16043A14025EA060503F561430124A8
:1015F00000F01F0004FA00F02943C2F8001370BC89
:10160000C3F880011860704700000000000000006F
:1016100020F0030303F1604303F56D4300F0030082
:1016200010B4C0009A69FF24844022EA0402814079
:10163000114399615DF8044B704700BF0000000042
:10164000024B034A9B699A61FEE700BFB04101006B
:101650005031010000000000000000000000000008
:1016600000B583B0FFF724FF00F0D2F800F058F87F
:1016700040210C4800F0B4F90B490122886102773F
:10168000002383F3118862B6896908488861009352
:101690004FF4B071064B074800F0CAF903B05DF88B
:1016A00004FB00BFF83F0100B041010060310100C0
:1016B0004116010040400100000000000000000051
:1016C00070B5134B9B699A7F0AB1013A9A771A6AEF
:1016D000104C01321A62E36822680133A242E360CF
:1016E00014D09668013E966086B91168D56821606D
:1016F000D66000234C6083F311881069A84720232B
:1017000083F3118822689368002BEED070BD00BF70
:10171000B0410100A04101000000000000000000F5
:10172000044B4FF0FF3100225B601B609960DA6070
:10173000704700BFA0410100000000000000000051
:1017400070B40C4E3468A5680361A942C26004D924
:101750002468491BA5688D42FAD363684360B4428C
:10176000046060601860816002D0A368591AA160AB
:1017700070BC7047A04101000000000000000000A4
:10178000074A0368934203D0996882680A449A60C2
:1017900042681360016800234A60C360704700BF5D
:1017A000A041010000000000000000000000000057
:1017B00010B4202383F31188037F032B18D00D2B43
:1017C0001AD083B14FF0FF34002381680D4A446280
:1017D0000377126893688B42FBD2516841600260C4
:1017E00000235060086083F311885DF8044B704754
:1017F000426A93680133936090E80C001A600268B3
:101800005360DFE7B041010000000000000000006D
:10181000034B00225B601B605B611B619A60704739
:10182000B0410100000000000000000000000000C6
:1018300000228168084B10B4044602771B689A683E
:101840008A42FBD25A686260236020465C60146062
:101850005DF8044B704700BFB0410100000000007C
:10186000084B30B41A689969146808770125142068
:101870008877636015771C60104630BC9A61FFF76B
:1018800087BE00BFB0410100000000000000000062
:1018900030B54B1C87B012D00C4C0D4AA3690546DD
:1018A00001A8FFF74DFF2846FFF7DAFF049B13B1AD
:1018B00001A8FFF765FFA369586A07B030BD034C64
:1018C000FFF7CEFFA369586A07B030BDB0410100F1
:1018D000B11701000000000000000000000000003F
:1018E000144BF0B49E6984680546B068696284420E
:1018F0004FF000020BD82A771B689A689442FBD9F4
:101900005A686A602B605D601560F0BC7047327782
:101910001A46126891688842FBD95468746001279E
:101920003260566026602F77314628469D61F0BCB4
:10193000FFF72EBEB04101000000000000000000D3
:101940000E4A1068F0B403689469136001271426E6
:101950000025A1685A60077703469061A67725772E
:1019600000E01B689A688A42FBD25A686260236072
:1019700021465C601460F0BCFFF70ABEB041010074
:101980000D4A106870B4036894691360012600253D
:10199000A1685A60067703469061257700E01B68CE
:1019A0009A688A42FBD85A686260236021465C606C
:1019B000146070BCFFF7ECBDB041010000000000F6
:1019C000034B9B699B7F0BB1FFF7DABFFFF7B8BFF3
:1019D000B041010000000000000000000000000015
:1019E000F0B50F4C016466694661002200F12C05D8
:1019F0004FF0020C4FF0140E00F1280781600461D3
:101A000080F81CC0606180F81EE04277C263826388
:101A100002628261306187620563C562F0BD00BF0A
:101A2000B0410100000000000000000000000000C4
:101A30002DE9F84F984696460446202383F31188F3
:101A4000194B0A9F5A69DFF864B0643901440025D4
:101A500000F12C0600F1280C4FF0020A4FF0140997
:101A6000C160C1F840804F64C1F860B00361C0F844
:101A700008E04261C0F840E0586180F81CA080F89E
:101A80001E904577C56385630562856129461061AF
:101A9000C0F828C00663C662FFF722FF2B4683F317
:101AA00011882046BDE8F88FB0410100B115010052
:101AB00008B50146202383F311880620FFF7E8FECE
:101AC000002383F3118808BD00000000000000001F
:101AD00038B50E4B9C692546606255F8280FA84220
:101AE00006D00368A362FFF7A3FEA06AA842F8D15C
:101AF000637F9B0704D1636922691A61226953617C
:101B00000E20BDE83840FFF7ABBE00BFB04101007A
:101B1000202383F31188FFF7DBBF00BF0000000024
:101B20000023406000608360704700BF0000000039
:101B300008B5836B027F1943082A81630BD0092AF9
:101B400000D008BD436A19408B42FAD1FFF770FEFE
:101B50000023436208BD436A1942F7D108BD00BFA4
:101B600070B50468A04205460E4608D0201D0BC87B
:101B70003343E360FFF7DCFF2468A542F6D170BD74
:101B800071B1094B9B6910B458624468024683E8FE
:101B900014000D20536023605DF8044BFFF778BEFE
:101BA0004FF0FF30704700BFB0410100000000005F
:101BB00030B4029C046200250A44856002614060E2
:101BC000006041618161C160C36130BC704700BF8A
:101BD000034640699A69904210B59A681BD0013259
:101BE000441C9A605C61017059691A6991420BD278
:101BF000186898420DD002681A605360FFF718FE0B
:101C000000234362184610BD1868DA685A6198428A
:101C1000F1D1002010BD002AE1D06FF0030010BD0B
:101C200070B520230E46044683F31188C3692BB197
:101C3000984703E0FFF7A4FF002815DBA5682046BE
:101C40003146002DF6D0A2692169531C8B4205F163
:101C5000FF35A361A56028BFE368107828BFA361A2
:101C6000002383F3118870BD2B4683F3118870BD68
:101C70002DE9F0471E46044689469246D0F81C805E
:101C8000202383F311880027B8F1000F05D02046E8
:101C9000C04702E0FFF774FFE0B9A568204631466F
:101CA000002DF7D0A369013D5A1CA261A5601B78E5
:101CB00009F8013B2369A2699A4224BFE368A36142
:101CC000002383F311880137BA4506D0202383F31C
:101CD0001188D9E72B4683F311883846BDE8F08791
:101CE00030B4029C04628D1805614060006082601F
:101CF00041618161C160C36130BC70470000000078
:101D0000F8B504460F461646202383F3118803E0F6
:101D1000FFF736FF002819DBA56820463146002D65
:101D2000F6D06369013D5A1C6261A5601F7023698A
:101D300062699A4224BFE3686361E3690BB120469C
:101D40009847002383F311881846F8BD2B4683F388
:101D50001188F8BD00000000000000000000000035
:101D600038B5826943699342836818D00569511C6C
:101D7000013383608161A94214780DD202688242E6
:101D800008D01168016003464B601046FFF750FD14
:101D900000234362204638BDC3688361EEE7002B11
:101DA000E4D06FF0020038BD000000000000000029
:101DB0002DE9F84F9A4604460E461746D0F81C9077
:101DC000202383F311884FF00008A56806F1010B6A
:101DD0006A1E20460DB36369A2605A1C62613278A4
:101DE0001A70236962699A4224BFE3686361B9F19A
:101DF000000F00D0C847002383F31188013F08F18A
:101E0000010813D0202383F31188A5685E466A1E5B
:101E100006F1010B2046002DDDD120465146FFF78B
:101E2000AFFE0028D1D02B4683F311884046BDE891
:101E3000F88F00BF0000000000000000000000005C
:101E400008B500F085FA074800F0AAFB00F010F88A
:101E500000F026F800F074F800F0BAF8BDE8084089
:101E600000F06EBF603201000000000000000000C2
:101E700000F076BB00000000000000000000000041
:101E800000230122027043608360C36003614361E9
:101E90001830FFF745BE00BF000000000000000042
:101EA00000F0F6BD0000000000000000000000008F
:101EB0000122002302704360704700BF0000000051
:101EC0000C30FFF7D5BE00BF00000000000000008E
:101ED0000C304FF0FF33FFF7CBBE00BF0000000017
:101EE0003030FFF765BF00BF0000000000000000B9
:101EF00030304FF0FF33FFF75BBF00BF0000000042
:101F00000C30FFF78DBE00BF000000000000000095
:101F10000C304FF0FF31FFF783BE00BF0000000020
:101F20003030FFF7EDBE00BF0000000000000000F1
:101F300030304FF0FF32FFF7E3BE00BF000000007B
:101F400000F0AEBE00000000000000000000000035
:101F500070B50E4B044682B040F8043B0126009455
:101F600015460B46606004F1540104F10C00267222
:101F70002022FFF71DFE00942B4604F1740104F1AA
:101F800030002022FFF7ACFE02B070BD80310100AE
:101F900038B5436904460D463BB1294604F10C00AF
:101FA000FFF716FE00280BDB38BD04210844FFF7BD
:101FB000D7FD294604F10C00FFF70AFE0028F3DAEA
:101FC000201D8021BDE83840FFF7CABD0000000099
:101FD00000F01EBC00000000000000000000000037
:101FE000002301220270436083600C30FFF798BD2C
:101FF00008B5074B074A196801F03D01996013685D
:102000000BB150689847BDE80840FFF769BA00BFB8
:1020100000600240CC410100000000000000000010
:10202000084B094819688268890901F03D0110B51B
:102030008C019C600AB1C0689047BDE81040FFF772
:102040004FBA00BF00600240CC4101000000000018
:10205000084B094819680269090C01F03D0110B5E7
:102060000C049C600AB140699047BDE81040FFF73E
:1020700037BA00BF00600240CC4101000000000000
:10208000084B094819688269890D01F03D0110B5B6
:102090008C059C600AB1C0699047BDE81040FFF70D
:1020A0001FBA00BF00600240CC41010000000000E8
:1020B00008B5074B07485968026A01F03D01D9602D
:1020C0000AB1406A9047BDE80840FFF709BA00BF6F
:1020D00000600240CC410100000000000000000050
:1020E000084B09485968826A890901F03D0110B519
:1020F0008C01DC600AB1C06A9047BDE81040FFF770
:10210000EFB900BF00600240CC41010000000000B8
:10211000084B09485968026B090C01F03D0110B5E4
:102120000C04DC600AB1406B9047BDE81040FFF73B
:10213000D7B900BF00600240CC41010000000000A0
:10214000084B09485968826B890D01F03D0110B5B3
:102150008C05DC600AB1C06B9047BDE81040FFF70A
:10216000BFB900BF00600240CC4101000000000088
:1021700008B5074B07481968026C01F03D019960EA
:102180000AB1406C9047BDE80840FFF7A9B900BF0D
:1021900000640240CC41010000000000000000008B
:1021A000084B09481968826C890901F03D0110B596
:1021B0008C019C600AB1C06C9047BDE81040FFF7ED
:1021C0008FB900BF00640240CC4101000000000054
:1021D000084B09481968026D090C01F03D0110B562
:1021E0000C049C600AB1406D9047BDE81040FFF7B9
:1021F00077B900BF00640240CC410100000000003C
:10220000084B09481968826D890D01F03D0110B530
:102210008C059C600AB1C06D9047BDE81040FFF787
:102220005FB900BF00640240CC4101000000000023
:1022300008B5074B07485968026E01F03D01D960A7
:102240000AB1406E9047BDE80840FFF749B900BFAA
:1022500000640240CC4101000000000000000000CA
:10226000084B09485968826E890901F03D0110B593
:102270008C01DC600AB1C06E9047BDE81040FFF7EA
:102280002FB900BF00640240CC41010000000000F3
:10229000084B09485968026F090C01F03D0110B55F
:1022A0000C04DC600AB1406F9047BDE81040FFF7B6
:1022B00017B900BF00640240CC41010000000000DB
:1022C000084B09485968826F890D01F03D0110B52E
:1022D0008C05DC600AB1C06F9047BDE81040FFF785
:1022E000FFB800BF00640240CC41010000000000C4
:1022F0000E490F4A0F48002310B40B600E4C1946CC
:1023000001E052F80C0C016044F833100133102B3B
:1023100002F10C02F5D10949094A5DF8044B4FF06E
:10232000FF338B60CB609360D36070474C420100F9
:10233000AC31010010600240CC410100006002405D
:1023400000640240000000000000000000000000E7
:102350001F4B20491A694FF0FF300022F0B5186179
:102360001A615C6958615A611C6A1B4E1B4F1C4DF7
:1023700064F080541C621A620724D3F824E0586287
:102380005A624F608A600C60F168164841F08071B3
:10239000F160296841F001012960196C41F0805118
:1023A0001964016841F480710160196F01F4407192
:1023B000B1F5007F03D04FF4803119671A67094ADD
:1023C000536823F400735360BDE8F040FFF790BFFB
:1023D0000038024010E000E0F0ED00E03F90020025
:1023E000001000E00070004000000000000000004D
:1023F000304A314B4FF080504FF440411064196027
:10240000136843F00103136013689907FCD59368C0
:10241000284923F003039360936893608B6813F05B
:102420000C03FBD10A68234802F0F9020A608B60B2
:102430000B6843F480330B6003689A03FCD5436F49
:102440001C4A43F001034367536F9B07FCD51B4BAA
:1024500053601368184943F0807313604B68580445
:10246000FCD5144A13689901FCD5154BC2F8843089
:102470001368104943F0806313600B681B01FCD59F
:10248000104B114A8A6040F205721A608B68094A43
:1024900043F002038B60936803F00C03082BFAD11E
:1024A000536C43F480435364536E43F48043536648
:1024B000704700BF003802400070004008544007D9
:1024C00080400030003C024000944838000000008A
:1024D000F8B5204B1A6800211960930635D51E4CBB
:1024E000E16A0A685368002B2FD02569002D2CD093
:1024F000136823F01F031360136813F00103FBD16B
:102500000F7A4E68AD68A26A3D20B8400121306064
:1025100053609360916045B1052323700E48A8472E
:102520002378052B04BF022323700022226120237D
:1025300083F31188606928B14FF0FF334362626111
:10254000FFF776F9002383F31188BDE8F840FEF722
:10255000C7BF00BF00200140504201000000000042
:1025600010B5084C2046FFF78BFC0749074A084B7B
:10257000A162E262236360211220BDE81040FFF7F0
:102580001FB800BF5042010000200140303201005E
:10259000162C0200000000000000000000000000F7
:1025A000F0B5654D654C2F6B6549664A664B40F248
:1025B000FF1E47EA0E072F632E6D46EA0E062E65B4
:1025C000456865608568A560C568E5600569656101
:1025D000456925628569656205682560046A4C6005
:1025E000446A8C60846ACC60C46A4C61046B0C627F
:1025F000446B4C62C4690C60C16B5160016C9160AA
:10260000416CD160816C5161C16C1162016D51628C
:10261000816B1160826D5A60C26D9A60026EDA60E1
:10262000426E5A61826E1A62C26E5A62426D1A60BE
:10263000426FC3F80424826FC3F80824C26FC3F842
:102640000C24D0F88020C3F81424D0F88420C3F8D8
:102650002024D0F88820C3F82424026FC3F8002473
:10266000D0F89020C3F80428D0F89420C3F80828A4
:10267000D0F89820C3F80C28D0F89C20C3F8142870
:10268000D0F8A020C3F82028D0F8A420C3F824282C
:10269000D0F88C20C3F8002803F54063D0F8AC20B4
:1026A0005A60D0F8B0209A60D0F8B420DA60D0F840
:1026B000B8205A61D0F8BC201A62D0F8C0205A6203
:1026C000D0F8A8201A60D0F8C820C3F80424D0F8A5
:1026D000CC20C3F80824D0F8D020C3F80C24D0F8BC
:1026E000D420C3F81424D0F8D820C3F82024D0F87C
:1026F000DC20C3F82424D0F8C420C3F80024D0F888
:10270000E420C3F80428D0F8E820C3F80828D0F85B
:10271000EC20C3F80C28D0F8F020C3F81428D0F827
:10272000F420C3F82028D0F8F820C3F82428D0F8E3
:10273000E020C3F80028F0BD00380240000002404D
:102740000004024000080240000C024000000000AB
:102750002DE9F04F4FF00F0C02F0030EC2F380078B
:10276000C2F3C106C2F341150024C2F3C3124FF0F5
:1027700001094FF0030830E0D0F820B02BEA030342
:1027800043EA0A030362436809FA04FA23EA0A03E4
:102790003B4343606300D0F808A008FA03F3DB432F
:1027A0000AEA030A4AEA060AC0F808A0D0F80CA010
:1027B00003EA0A0A4AEA050AC0F80CA0D0F800A009
:1027C00003EA0A0343EA0E030360490819D07F00B5
:1027D000B600AD004FEA8E0E013404F007039B00F3
:1027E00011F0010F02FA03FA0CFA03F3EDD0072CF3
:1027F000C2D9D0F824B02BEA030343EA0A034362A8
:10280000C1E7BDE8F08F00BF00000000000000003D
:10281000F8B5194F194B1A4C1A4E1B4D38464FF646
:10282000FF721A80FFF7DCFB1849194A194BF9614E
:10283000304604F124013C627962BA62FB62FFF720
:10284000CFFB1549154A164BF161A4F13C07A4F1E1
:10285000300128467162B262F3623762FFF7C0FB53
:102860001049114A114BE961A4F160010C3C296245
:102870006C62AA62EB62F8BD84420100144301005D
:1028800000320100B4420100E44201000030014086
:10289000160001064600010600380040160001003F
:1028A00046000100003C0040160003004600030003
:1028B000036970B51C69DA68D2B21440E243A60716
:1028C00005461A611DD4600716D421070FD4E2060D
:1028D00008D4E30700D470BD6B6828469B68BDE848
:1028E000704018476B6828469B6A9847F1E76B6809
:1028F00028461B6A9847EAE76B6828469B69984711
:10290000E3E743681B699847DDE700BF000000006C
:1029100008B50648064A43686FF001019B681161DB
:102920009847BDE80840FEF7DBBD00BF1843010033
:102930000000014000000000000000000000000056
:10294000134B10B51C69DA681440A4B2E2B2D2434A
:10295000A0071A6117D4610710D4220709D4E3062F
:1029600003D50C4843689B6A9847BDE81040FEF7C2
:10297000B7BD084843681B6A9847F0E705484368B5
:102980009B699847E9E7034843681B699847E2E772
:10299000000001401843010000000000000000009A
:1029A00008B50348FFF784FFBDE80840FEF798BD6F
:1029B0002C430100000000000000000000000000A7
:1029C00008B50348FFF774FFBDE80840FEF788BD6F
:1029D0004043010000000000000000000000000073
:1029E00008B50348FFF764FFBDE80840FEF778BD6F
:1029F000544301000000000000000000000000003F
:102A000008B50648064A43686FF001019B681161EA
:102A10009847BDE80840FEF763BD00BF684301006A
:102A20000004014000000000000000000000000061
:102A3000134B10B51C69DA681440A4B2E2B2D24359
:102A4000A0071A6117D4610710D4220709D4E3063E
:102A500003D50C4843689B6A9847BDE81040FEF7D1
:102A60003FBD084843681B6A9847F0E7054843683C
:102A70009B699847E9E7034843681B699847E2E781
:102A80000004014068430100000000000000000055
:102A90002DE9F041DFF864800F4F104E104D114CBE
:102AA0004046FFF705FA104BC8F810303846FFF7DC
:102AB000FFF90E4B3B613046FFF7FAF90C4B3361DF
:102AC0002846FFF7F5F90B4B2B612046FFF7F0F98D
:102AD000094B2361BDE8F0812C4301004043010014
:102AE000544301006843010000000140000400401D
:102AF00000080040000C00400004014018430100A1
:102B0000034A93899BB243F080039381704700BFCF
:102B10000010014000000000000000000000000064
:102B2000034A93899BB243F080039381704700BFAF
:102B30000044004000000000000000000000000011
:102B40002DE9F041D0F89450AF892C88A4B2E20569
:102B50000646BFB252D4202383F3118814F02F0FFE
:102B60002ED006F1040808E0A988A00689B21ED478
:102B70002C88A4B214F02F0F22D02307F4D014F025
:102B8000080F0CBF00218021E00748BF41F0200161
:102B9000A20748BF41F04001630748BF41F480717C
:102BA0004046FEF7DDFFA988A00689B2E0D5C9B28C
:102BB0003046FFF7EDF92C88A4B214F02F0FDCD1CA
:102BC000002383F31188390601D5220625D4630634
:102BD00012D5202383F31188726CB36C9A422BD0E8
:102BE00027F04007BFB24FF6BF72AF8100232A80A3
:102BF00083F31188BDE8F081BDE8F081202383F3E1
:102C000011884FF400710430FEF7AAFF002383F30C
:102C100011884FF6FF632B809DE7202383F31188F3
:102C200006F13000FFF79CF800280DDB80B2A88089
:102C3000002383F31188CAE7B36B002BD0D0301D7B
:102C40001021FEF78DFFCBE70821301DFEF788FF2E
:102C500027F0C00343F04003AB81E9E70000000028
:102C600008B50348FFF76CFFBDE80840FEF738BC25
:102C70007C43010000000000000000000000000094
:102C800008B50348FFF75CFFBDE80840FEF728BC25
:102C900014440100000000000000000000000000DB
:102CA00038B5094D094C0A4A28460021FFF750F96A
:102CB000084B094AC5F8943020460021FFF748F92F
:102CC000064BC4F8943038BD7C4301001444010025
:102CD000012B010000100140212B010000440040A5
:102CE00038B5124B124D1A69124900244FF0FF32C9
:102CF0001A611C6158695A615C61186A1A621C6227
:102D00005A6A62F080525A624FF000505C624FF48F
:102D10000072AC61FEF7FCFA074A136843F0030344
:102D20001360BDE83840FFF763BB00BF00380240C6
:102D3000000004407038010000380140000000002D
:102D4000704700BF0000000000000000000000000D
:102D5000704700BF000000000000000000000000FD
:102D6000F0B40C4D0C4C02EB8202043001EB41112B
:102D700000EB8101A8186318AA5C62544778867832
:102D8000C57800795F7000229E70DD7018715A71ED
:102D9000F0BC704760330100CC3A01000000000035
:102DA000F8B5161E04460D4654DB7A2834D904F1D2
:102DB00012007A280BD8072D37D904F10C037A2B8F
:102DC00064D9A01D7A2801D8072D4CD9F8BD04F18B
:102DD0000C007A28F5D8072DF8D82F49F71781FB72
:102DE0000623C7EBA30381FB0321DA17C2EBA10281
:102DF00002EB8202A3EB42023032D2B22946FFF745
:102E0000AFFFA01D7A28E1D8244A82FB0632C7EB27
:102E100062123032D2B22EE00729C8D82022FFF742
:102E20009FFF04F112007A2831DC1B4BF71783FB5C
:102E30000623C7EBA30303EB8302A6EB4202303267
:102E4000D2B22946FFF78CFF04F10C007A28B8D8DB
:102E50001149C4E77A2813D904F112007A28C6F17F
:102E60000006B4D8A7E70D4BF21783FB0636C2EB7A
:102E700066123032D2B22946BDE8F840FFF770BF83
:102E80000729E9D82D22FFF76BFFE5E7F8BD04F12C
:102E90000C007A2895DCA0E7676666661F85EB5113
:102EA000072944D8002842DB01EB411C21492DE9C8
:102EB000F0474FEA8C0C01EB0C0303444FF0000980
:102EC00083F804901478431C14B37A2B20DC6044FC
:102ED000194E084401E07A2B1ADC04EB84043519FE
:102EE00016F804A095F801802C7995F802E0EF78A7
:102EF00080F80A9080F805A080F8068080F807E046
:102F00000772447212F8014F06300633002CE2D1EA
:102F10007F2B0DDC634403330CF183020B440A4422
:102F2000002103F8011F9A42FBD1BDE8F0877047EA
:102F3000BDE8F087CC3A01006033010000000000DA
:102F400030B583B00546019114462021002000F0E1
:102F5000A7F80028F9D15CB1019B03F14043013C83
:102F60001A68019B45F8042B03F104030193F3D184
:102F700003B030BD000000000000000000000000B1
:102F800030B51C4A1C4C136B012543F4805313636A
:102F900083B0A56000BF00BF00BF8B0805E050F8FC
:102FA000042B92FAA2F22260E3B113F1FF33F6D2BE
:102FB000114B1B6893FAA3F301F003014518A842D3
:102FC0000E490CD010F8014B08226340DC074CBFBF
:102FD00081EA53035B08013AF8D1A842F2D1D84301
:102FE00003B030BD8DE8030000F052F89DE8030007
:102FF000DEE700BF00380240003002402083B8ED19
:1030000008B5202383F3118800F022FD002383F309
:103010001188184608BD00BF000000000000000035
:10302000184A38B5D368B3F5803F06D1164D7F24D2
:103030002C60D368B3F5803FFAD0124BDA681A6976
:1030400022F440721A611A6942F400721A611A6914
:1030500042F001021A610160DA68B2F5803F06D1E0
:1030600009487F210160DA68B2F5803FFAD0054B4C
:10307000DC681A6922F001021A6100F009F82046A2
:1030800038BD00BF003C0240002C004000000000A2
:10309000704700BF000000000000000000000000BA
:1030A000102810D0B0F5807F10D0B0F5805F0BBF36
:1030B000084B094B5B689B6903EA0100081AB0FAE8
:1030C00080F040097047054B5B68F5E7044B5B688F
:1030D000F2E700BFA00000A0400100A0600000A037
:1030E000800000A0000000000000000000000000C0
:1030F000BFF34F8F0449054BCA6802F4E0621343E3
:10310000CB60BFF34F8FFEE700ED00E00400FA054F
:1031100070B50B4D4FF08053AB610A244FF48046DD
:103120004FF47A70AE61FEF7C3FC4FF08043AB61A1
:103130004FF47A70FEF7BCFC013CF1D1FFF7D8FFE9
:10314000000C024000000000000000000000000031
:1031500069646C65000000000000000000000000D1
:103160006D61696E00168911040444080C1014186E
:10317000001C1D001E2000000000000000000000D8
:10318000F11E0100D11E0100311F0100111F0100BD
:10319000211F0100011F0100E11E0100C11E0100ED
:1031A000106002400860024000000B0028600240EE
:1031B0000860024006010C004060024008600240C6
:1031C00010020D00586002400860024016030E0015
:1031D000706002400C60024000040F0088600240F2
:1031E0000C60024006051000A06002400C60024026
:1031F00010061100B86002400C60024016072F0054
:10320000106402400864024000083800286402404C
:103210000864024006093900406402400864024024
:10322000100A3A005864024008640240160B3B0042
:10323000706402400C640240000C3C008864024050
:103240000C640240060D4400A06402400C6402407D
:10325000100E4500B86402400C640240160F460090
:1032600000AAA02A00000000FFABFFFF54000140AD
:10327000FFFF00000000565500AA0A008028080041
:1032800000020000FFFFFFFF15415155FFFF000046
:103290000000C00C40000000A280200200000000DE
:1032A000FFFFFFFF54154554FFFF00000CCC0060EA
:1032B000000606000A012AA500000000FFFFFFFF2C
:1032C00055505500FFCF0000CC000000CC0C00CCC6
:1032D0004A80AAAA00000000FFFFFFFF00000000D4
:1032E000FFFF0000CC0000C0CCCCCCCCAA0AB0AA16
:1032F00000000000FFFFFFFF00000000FFFF0000D4
:10330000CCCCCC0000C0CCCC2A0A0280000000004B
:10331000FFFFFFFF00000004FFFF0000CC0CCC000B
:103320000C0000C0A0A8000000000000FFFFFFFF8D
:1033300000000000FFFF000000CCC0CC0000000037
:103340000000000000000000FFFFFFFF0000000081
:10335000FFFF00000000000000000000000000006F
:1033600000000000003E5B4F5B3E3E6B4F6B3E1C1F
:103370003E7C3E1C183C7E3C181C577D571C1C5E36
:103380007F5E1C00183C1800FFE7C3E7FF0018240D
:103390001800FFE7DBE7FF30483A060E26297929B7
:1033A00026407F050507407F05253F5A3CE73C5AEC
:1033B0007F3E1C1C08081C1C3E7F14227F22145FC9
:1033C0005F005F5F06097F017F006689956A606024
:1033D00060606094A2FFA29408047E040810207E1E
:1033E000201008082A1C08081C2A08081E101010A3
:1033F000100C1E0C1E0C30383E3830060E3E0E06E9
:10340000000000000000005F00000007000700143B
:103410007F147F14242A7F2A1223130864623649FA
:103420005620500008070300001C224100004122E2
:103430001C002A1C7F1C2A08083E080800807030E7
:103440000008080808080000606000201008040256
:103450003E5149453E00427F40007249494946215C
:1034600041494D331814127F1027454545393C4AD0
:1034700049493141211109073649494936464949E7
:10348000291E00001400000040340000000814222F
:10349000411414141414004122140802015909069D
:1034A0003E415D594E7C1211127C7F494949363E9E
:1034B000414141227F4141413E7F494949417F0984
:1034C0000909013E414151737F0808087F00417F8F
:1034D00041002040413F017F081422417F4040408D
:1034E000407F021C027F7F0408107F3E4141413E25
:1034F0007F090909063E4151215E7F0919294626A7
:103500004949493203017F01033F4040403F1F20AA
:1035100040201F3F4038403F631408146303047881
:1035200004036159494D43007F41414102040810A1
:1035300020004141417F04020102044040404040DC
:10354000000307080020545478407F28444438384A
:1035500044444428384444287F38545454180008BC
:103560007E090218A4A49C787F0804047800447D96
:1035700040002040403D007F1028440000417F4033
:10358000007C047804787C08040478384444443887
:10359000FC1824241818242418FC7C080404084867
:1035A0005454542404043F44243C4040207C1C20B8
:1035B00040201C3C4030403C44281028444C909013
:1035C000907C4464544C440008364100000077006D
:1035D00000004136080002010204023C2623263C7A
:1035E0001EA1A161123A4040207A38545455592105
:1035F00055557941215454784121555478402054EF
:103600005579400C1E52721239555555593954543A
:10361000545939555454580000457C410002457DA9
:10362000420001457C40F0292429F0F0282528F0AB
:103630007C545545002054547C547C0A097F4932FF
:10364000494949323248484832324A4848303A417A
:1036500041217A3A42402078009DA0A07D3944441F
:1036600044393D4040403D3C24FF2424487E4943AA
:10367000662B2FFC2F2BFF0929F620C0887E09031B
:1036800020545479410000447D413048484A323842
:103690004040227A007A0A0A727D0D19317D26296E
:1036A000292F28262929292630484D402038080866
:1036B000080808080808382F10C8ACBA2F1028349A
:1036C000FA00007B000008142A142222142A14088D
:1036D000AA005500AAAA55AA55AA000000FF00108A
:1036E0001010FF00141414FF001010FF00FF101042
:1036F000F010F0141414FC001414F700FF0000FF85
:1037000000FF1414F404FC141417101F10101F10E1
:103710001F1414141F00101010F0000000001F10E0
:103720001010101F10101010F010000000FF1010EB
:1037300010101010101010FF10000000FF140000F7
:10374000FF00FF00001F10170000FC04F414141702
:1037500010171414F404F40000FF00F714141414E8
:10376000141414F700F7141414171410101F101F5A
:10377000141414F4141010F010F000001F101F00A7
:1037800000001F14000000FC140000F010F01010E6
:10379000FF10FF141414FF141010101F000000007D
:1037A000F010FFFFFFFFFFF0F0F0F0F0FFFFFF0071
:1037B00000000000FFFF0F0F0F0F0F384444384484
:1037C0007C2A2A3E147E02020606027E027E0263E4
:1037D000554941633844443C04407E201E20060283
:1037E0007E020299A5E7A5991C2A492A1C4C720160
:1037F000724C304A4D4D303048784830BC625A46A1
:103800003D3E494949007E0101017E2A2A2A2A2A91
:1038100044445F444440514A444040444A5140007B
:1038200000FF0103E080FF000008086B6B08361200
:10383000362436060F090F06000018180000001085
:1038400010003040FF0101001F01011E00191D176B
:1038500012003C3C3C3C0000000000000000000066
:1038600045726173656420736563746F7200000054
:103870000002001001100100711401007114010018
:103880007114010071140100711401007114010020
:1038900071140100711401007114010091140100F0
:1038A00071140100711401007114010071150100FF
:1038B00071140100711401007114010071140100F0
:1038C00071140100711401007114010071140100E0
:1038D000711401007114010071140100F11F010045
:1038E000212001005120010081200100B1200100B0
:1038F000E120010011210100D12401007114010017
:10390000711401007114010071140100711401009F
:1039100071140100112901007114010041290100F5
:1039200071140100A1290100C129010071140100D5
:10393000711401007114010071140100711401006F
:1039400071140100612C0100812C0100711401002F
:10395000711401007114010071140100711401004F
:10396000012A010071140100312A010041210100E6
:103970007114010071140100E129010071140100AA
:10398000711401007114010071140100711401001F
:1039900071210100A1210100D121010001220100BA
:1039A0003122010071140100711401007114010031
:1039B00071140100711401007114010071140100EF
:1039C0006122010091220100C12201007114010055
:1039D00071140100711401007114010071140100CF
:1039E00071140100512D01007114010071140100C6
:1039F00071140100711401007114010071140100AF
:103A0000711401007114010071140100711401009E
:0C3A100071140100711401007114010018
:103A2000074AD368B3F5803F06D106487F2101607D
:103A3000D368B3F5803FFAD0014BD86870470000D7
:103A4000003C0240002C004000000000000000008C
:103A50001C4B1A6922F440721A611A6942F400720E
:103A60001A611A6922F0F8021A611A6942F0020218
:103A700042EAC00018611A6942F480321A61DA68B9
:103A8000B2F5803F06D110487F210160DA68B2F5B7
:103A9000803FFAD00B4AD368136923F00203136105
:103AA000136923F002031361D368B3F5803F06D195
:103AB00005487F210160D368B3F5803FFAD0014B00
:0C3AC000DB687047003C0240002C004016
:103ACC0000000000000000000000000000000000EA
:103ADC0000000000000000000000000000000000DA
:103AEC0000000000000000000000000000000000CA
:103AFC0000000000000000000000000000000000BA
:0400000310001001D8
:00000001FF
